:020000040001F9
:1050000008280020F5500100075101000951010056
:105010000000000000000000000000000000000090
:105020000000000000000000000000000B51010023
:1050300000000000000000000D5101000F510100B0
:1050400011510100115101001151010011510100D4
:105050001151010000000000115101001151010027
:1050600011510100115101001151010011510100B4
:1050700011510100115101001151010011510100A4
:105080001151010011510100115101001151010094
:105090001151010011510100115101001151010084
:1050A000115101001151010000000000000000003A
:1050B00000000000000000000000000000000000F0
:1050C0000348854600F02CF800480047355201009F
:1050D00008280020401E00BF00BF00BF00BF00BF67
:1050E00000BF00BF00BF00BF00BF00BF00BFF1D1C5
:1050F000704700000748026803210A43026006481F
:10510000804706480047FEE7FEE7FEE7FEE7FEE7CA
:10511000FEE700002405004045510100C150010098
:10512000064C0125064E05E02046E36807C82B43E0
:1051300098471034B442F7D3FFF7C6FFBC520100C2
:10514000CC52010010B500F043F8002805D0074804
:1051500007494860C8130749886100F01FF8002814
:1051600002D001200449886010BD0000DFFF07C0A5
:1051700000050040006C00400006004002E008C846
:10518000121F08C1002AFAD170477047002001E0C1
:1051900001C1121F002AFBD1704700000B48008C90
:1051A000C0B2012810D10948808C0007000F0BD134
:1051B0000648806AF0210840402805D10348C06AAB
:1051C000084201D1012070470020FCE7C00F00F029
:1051D0001748008CC0B2012827D11548808C0007E1
:1051E000000F22D11248806AF021084205D11048F0
:1051F000C06A084201D1012070470D48806AF02141
:105200000840102805D10A48C06A084201D101208F
:10521000F2E70748806AF0210840302805D10448A9
:10522000C06A084201D10120E6E70020E4E700005F
:10523000C00F00F0082000F027F8092000F024F843
:1052400013E0082000F02AF8092000F02FF8FF20D2
:10525000F53000F00BF8092000F020F8082000F0ED
:1052600025F8FF20F53000F001F8EAE701B505E088
:105270000098401E00900348FFF72CFF009800287C
:10528000F6D108BDE703000001210522120707231C
:105290001B02D2188300D1507047000001218140C9
:1052A000014AD16070470000000500500121814093
:1052B000014A91607047000000050050CC52010087
:1052C00000200020040000007C5101000024F400B4
:04000005000150C1E5
:00000001FF
