:020000040003F7
:10C000006834002085C2030097C2030099C2030070
:10C010000000000000000000000000000000000020
:10C020000000000000000000000000009BC20300B0
:10C0300000000000000000009DC203009FC203003A
:10C04000A1C20300A1C20300A1C20300A1C2030058
:10C05000A1C203000000000049DC0300A1C20300EC
:10C06000A1C20300A1C20300A1C20300A1C2030038
:10C07000A1C20300A1C20300A1C20300A1C2030028
:10C08000A1C2030045D50300A1C20300A1C2030061
:10C090005BD50300A1C2030045DE0300A1C203007B
:10C0A000A1C20300A1C203000000000000000000C4
:10C0B0000000000000000000000000000000000080
:10C0C00000F002F800F040F80CA030C8083824183E
:10C0D0002D18A246671EAB4654465D46AC4201D1C0
:10C0E00000F032F87E460F3E0FCCB64601263342B2
:10C0F00000D0FB1AA246AB46334318476034000019
:10C1000080340000103A02D378C878C1FAD85207B8
:10C1100001D330C830C101D504680C6070470000FD
:10C120000023002400250026103A01D378C1FBD853
:10C13000520700D330C100D50B6070471FB5C04611
:10C14000C0461FBD10B510BD03F0B0F91146FFF792
:10C15000F5FF00F0F3F803F0C8F903B4FFF7F2FFBE
:10C1600003BC03F0CDF90000026882F3088843683D
:10C1700018470000401E00BF00BF00BF00BF00BF47
:10C1800000BF00BF00BF00BF00BF00BF00BFF1D1B4
:10C1900070470000401E00BF00BF00BF00BF00BFCF
:10C1A00000BF00BF00BF00BF00BF00BF00BFF1D194
:10C1B0007047000070B505460C46164602E00FCCED
:10C1C0000FC5103E102EFAD2082E02D303CC03C5A1
:10C1D000083E042E07D301CC01C5361F03E02178A9
:10C1E0002970641C6D1C761EF9D270BD10B500F06C
:10C1F0001DF8002805D01F491D484860C8131E4976
:10C2000088611E48018CC9B201290ED1818C0907B1
:10C210000BD1018D0906090F042906D1808D000676
:10C22000000F02D116490120886010BD1348018C0F
:10C23000C9B2012917D1818C090714D1018D0906D2
:10C240000A0F03D1828D1206120F0ED0090F012999
:10C2500003D1828D1206120F07D0032903D1808DDE
:10C260000006000F01D00020704701207047000039
:10C27000DFFF07C000050040006C0040C00F00F069
:10C28000000600400A48026803210A430260094888
:10C29000804709480047FEE7FEE7FEE7FEE7FEE7C6
:10C2A000FEE7000005480649064A074B70470000B4
:10C2B00024050040EDC10300C1C003006828002030
:10C2C00068340020682C0020682C0020012086495A
:10C2D000C003886000F0C4F80A4601468348FFF7AF
:10C2E000F5FF10B501F024FF10BD1FB5804B6C4663
:10C2F0000FCB0FC4684618DF002802D07DA2BF21F3
:10C3000019E00F20800313DF002802D079A2C22198
:10C3100011E07B4B50227B49082001F06FFD002883
:10C3200002D074A2C42106E0774801F083FD002802
:10C3300003D070A2C721FFF7C9FF1FBD08B573491D
:10C3400001200860091D0860091D08606F491C3143
:10C3500008606F480F2140698903884213D101208A
:10C36000000700690124A402A0420FD1694800908F
:10C37000694B05220321002001F015F900280AD09D
:10C3800066A29A2105E05BA2DD2101E059A2DE212F
:10C390000020FFF79BFF60490120143901F094FC55
:10C3A000002802D05DA28F21F3E758490320000442
:10C3B000091F086000F052FC00F098FC002811D022
:10C3C00000F0B6FC002802D04AA2E921E1E7FFF71D
:10C3D0008CFF00F062F800F0D4FC002806D045A2E3
:10C3E000EF21D6E7FFF781FF00F057F83E4E3069A6
:10C3F0004D4DC009C007C00F04D0A86800F07AFBFB
:10C4000000280BD1B46000F03AFC002803D0FF21D3
:10C4100038A20131BDE70A2000F02AF8A86800F030
:10C4200069FB00280ED0082000F022F8092000F057
:10C430001FF80A2000F01CF80F2000F019F8A86877
:10C4400000F029FC082000F013F8092000F010F893
:10C450000A2000F00DF80F2000F00AF800F000F8B4
:10C46000BFF34F8F32493148C860BFF34F8FFEE7AB
:10C47000012181401C48C16070471CB501910090AA
:10C480002C4A0821684601F0F9FA1CBD10B50021BC
:10C49000294A084601F0F2FA10BD1A4A10B5503286
:10C4A0001421082001F0D6FA002803D01BA2CF21C6
:10C4B000FFF70CFF10BD10B50246082905D0FF217B
:10C4C0001EA215310020FFF701FF11685068884750
:10C4D00010BD10B5002904D024A298210020FFF738
:10C4E000F5FE01F04DFC10BD00050050EFBEADDEC5
:10C4F00028F503002E2E5C6D61696E2E630000002E
:10C500008DC4030044230020E3C203002007005031
:10C51000001000107BC40300042100202E2E5C6D4F
:10C5200061696E2E63000000003000000400FA050F
:10C5300000ED00E0B7C40300D3C403002E2E5C2E30
:10C540002E5C2E2E5C2E2E5C2E2E5C496E636C753E
:10C5500064655C6170705F636F6D6D6F6E5C617060
:10C56000705F74696D65722E680000002E2E5C2E5F
:10C570002E5C2E2E5C2E2E5C2E2E5C496E636C750E
:10C5800064655C73645F636F6D6D6F6E5C736F6623
:10C59000746465766963655F68616E646C65722E4C
:10C5A0006800000010460A4610B5FE494C68042C8D
:10C5B00003D1022A01D1002806D0002803D0FAA214
:10C5C0005221FFF783FE10BD4A69002AFBD01946AD
:10C5D000904710BD38B5F34D012028700620009417
:10C5E00000F0C2FA38BD10B5EE4C2078002801D01A
:10C5F000082010BD206901F0AAF8002803D0EAA2A3
:10C600007521FFF763FE0F2100228904206901F0E4
:10C6100063F8040003D0E4A27821FFF757FE204618
:10C6200010BDF0B5E6498BB0E44808600326360338
:10C63000B0680F218903091ADA4C49084718002508
:10C640006570214665802031DD4801F029FF002812
:10C6500023D121462031B068486020390A46126A49
:10C660008A610F229203C861121A52081831801889
:10C67000486001A800F097FB0398FE2802D13868B3
:10C68000401C12D00F20B1688003401A4108C548F1
:10C69000183001F051FF002802D065600BB0F0BDEA
:10C6A00008AE0ECE052000F05FFABE48C54A002154
:10C6B000103000F0CAFF002803D0BBA2A921FFF769
:10C6C00005FE0F2100228904206901F005F80028E9
:10C6D00003D0B5A2AD21FFF7F9FD0120E560606050
:10C6E0000020DBE7AF494861704708B5042000949B
:10C6F00000F03AFAAB488168203001F01DFF0028B5
:10C7000003D0A9A2C621FFF7E1FD08BD70B5AC4C6E
:10C710008368603CC268416800696361A261254624
:10C7200021611035E0614C0703D58C0701D08407E7
:10C7300007D1CC0701D09C0703D18C0703D5940700
:10C7400001D0062070BD9B181818964C03231B03BC
:10C75000A0609E680F239B039B1B5E08864201D24C
:10C76000CE0707D0890703D50F2189028A4201D855
:10C77000834201D20C2070BD6068012802D00826D7
:10C78000304670BDFFF72FFF0600FAD12878C007AA
:10C7900002D0A068FFF7A9FF02206060F0E770B543
:10C7A000050004D0287A800703D0102070BD0E2029
:10C7B00070BD7C4C6068022805D0032803D0042893
:10C7C00003D0082070BD042060606868A1688600FE
:10C7D000E0688019884204D90020C043E0600C2042
:10C7E00070BDFFF700FF0028FAD17548A9685038DE
:10C7F0000078E368C007324602D06A48203001E082
:10C800006848183001F068FE0028E9D1E16889190C
:10C81000E160A2689142E3D0092070BDF8B5614C97
:10C8200005466068022802D0032805D101E00320F4
:10C830006060E068002801D00820F8BDFFF7D3FE53
:10C840000028FAD15E4B0021403B08E0AA688E0028
:10C85000965962789700521CDE516270491C6A68D2
:10C860008A42F3D8F8BD70B54E4C6068042805D1F3
:10C8700005206060E168A068814201D0082520E0C1
:10C88000FFF7B1FE05001CD14D48504E50380078DE
:10C89000C1074D48806804D10F218903091A49084E
:10C8A00040180022A16801F047FA60806178308862
:10C8B000002904D06188814201D00B2070BD062080
:10C8C0006060284670BD70B5364D86B06868062831
:10C8D00003D00824204606B070BD286900F037FF59
:10C8E000040004D0452130A2C900FFF7EFFC37490E
:10C8F000002610390868C207002A01D0012008E08C
:10C90000420703D500F09DF80446E3E78007E1D530
:10C91000032000906A886B469A804A6802928A686F
:10C920000392C968049113460091029A019900F09C
:10C930001BF93446CEE708B50720009400F014F93F
:10C9400008BD00B58BB004A800F02DFA08980028A7
:10C950000CD0012000901C48806801900120000349
:10C960000290089880080390684618DF0BB000BD5D
:10C9700000B587B0684600F016FA059800282AD05E
:10C98000114804998068002903D10F218903091AED
:10C99000490840180D49002220390A60486005986E
:10C9A000800815E0042000202E2E5C6466755F640C
:10C9B00075616C5F62616E6B2E630000A5C503003C
:10C9C00044250020D5C503000030000004250020C8
:10C9D0008860084618DF07B000BD00B58BB004A81A
:10C9E00000F0E1F909980028C0D0032000030F21CE
:10C9F000089A89038068002A01D10A1A520880180F
:10CA000002900322099800928008039001916846E1
:10CA100018DFABE700B58BB004A800F0C4F90898A4
:10CA20000028A3D0032000900120000301900320E0
:10CA3000000380680290089880080390684618DF19
:10CA400094E730B5134C85B01348E16801F074FDEC
:10CA5000002804D0FF2111A2ED31FFF737FC0E486A
:10CA6000E268083841680023083001F035FD050010
:10CA70000CD109490090203949886A469180E168C3
:10CA80000491009101A90EC900F06EF8284605B086
:10CA900030BD0000F4240020242000202E2E5C64F1
:10CAA00066755F6475616C5F62616E6B2E6300001A
:10CAB00010B5CA480368012B02D1022900D10160D8
:10CAC000100003D0C6A23521FFF700FC10BD10B541
:10CAD000C24C40DF002803D0C1A24721FFF7F6FB7C
:10CAE00001F042F82068022803D0032801D004286E
:10CAF000EFD110BD38B50068401C19D0002468463D
:10CB000000F082F900980168012910D1818800297C
:10CB10000AD0C168032000038068002201F00CF9EC
:10CB200000998988814201D1012400E00024204637
:10CB300038BD10B50446A9481C21001D01F076FC43
:10CB4000002803D0A6A27C21FFF7C0FBA348002346
:10CB50001C222146001D01F0D8FB002803D0A0A212
:10CB60008221FFF7B3FB10BD0FB438B5684600F063
:10CB70004BF96846818A049D9D480122FF23974C0A
:10CB8000002D20D0012D24D0032D36D00021022DE0
:10CB900042D02A46062D47D01346FE22042B4DD004
:10CBA0001946052B51D0072909D101F0BBFD0028FA
:10CBB00003D08BA2DE21FFF789FB0420206038BC64
:10CBC00008BC04B018478180089983600260C16086
:10CBD0000EE08180079D06994919089D4919C16099
:10CBE000A521836001600699016107998561416112
:10CBF00022607F48FFF79DFFE1E700990B68036023
:10CC00008B888380C968C160AA218160069901610F
:10CC100007994161089905E081800360C160016165
:10CC2000836041618161E3E701F07CFD002803D06E
:10CC30006BA2C421FFF74AFB0320BFE7818002609B
:10CC4000C160009989688160D3E700990B6803602F
:10CC50008B888380C9688260C160CAE70EB5654869
:10CC600000901C2001900120029001F0C7FA0028DA
:10CC700004D15A496846091D01F0E9FA0EBD10B504
:10CC8000FFF7CFFC002805D101F053FE0446FFF763
:10CC90001EFF204610BD70B511DF002804D0FF2113
:10CCA0004FA22E31FFF712FB534900200B68524C64
:10CCB000012180340A4682401A4204D0C506ED0E96
:10CCC0000A46AA402260401CC0B22028F2D30324A6
:10CCD0002403A06813DF002804D0FF2140A23331D1
:10CCE000FFF7F4FAA06800F08BF870BD38B50024A7
:10CCF000684600F089F800980168A52910D181885C
:10CD000000290AD0C168032000038068002201F0D6
:10CD100013F800998988814201D1012400E00024A0
:10CD200000988068AA2801D0204638BD012038BD6F
:10CD300010B5FFF76FFE002803D1FFF74EFE002865
:10CD40001ED0642001F032FCFFF7FBFD002804D068
:10CD5000FF2123A26631FFF7B9FAFFF75BFE002837
:10CD600004D0FF211EA26931FFF7B0FAFFF700FEE1
:10CD7000040004D0FF211AA26C31FFF7A7FA204665
:10CD800010BD00B587B014221C4901A8FFF712FAA4
:10CD90000598009001A80FC8FFF7E6FEFFF797FE81
:10CDA000002007B000BD10B50C4988B00446002330
:10CDB0001C22091D684601F0EBFA009820606846C5
:10CDC0008088A0800398E0600298A06004982061A9
:10CDD000059860610698A06108B010BD2C20002065
:10CDE0002E2E5C626F6F746C6F616465722E6300CF
:10CDF00050250020B1CA030000E100E038F503002F
:10CE000010B5FFF7B1F910BD01490160704700008E
:10CE100000FC030030B585B0002822D00388FB4C0D
:10CE2000A34220D0FA4B1B78002B1CD0F84B1025C6
:10CE30005B1C1D705970002401259A7003226946FD
:10CE40000A820094019402940394C2890A808D702E
:10CE50008C8004A90291039300886946A6DF05B07F
:10CE600030BD0E20FBE70820F9E7F0B589B0044695
:10CE70000227684607700D468783608A08AB07AAB9
:10CE80000021A5DF0026002804D0616A00291AD0FD
:10CE9000884718E06846008CC007C00F13D068466A
:10CEA000868020886946A8DF002812D1A97E2846FE
:10CEB00001221B300B0002F02AFB093F0E1E20222C
:10CEC00024263D283F00FF20FE30694688802088C8
:10CED000A8DF09B0F0BD0496298B022902D268466A
:10CEE000067502E069460A750690226A04A9204682
:10CEF00090470020EDE70492F7E70497F5E7032059
:10CF000014E0042012E0052010E0298B032905D24B
:10CF1000032208212046FFF77DFFDAE741780278F7
:10CF2000080210436946888202D006200490DCE79C
:10CF30000720FBE70920F9E70322EBE730B585B0CE
:10CF40000D46040032D0002D30D0286800282DD0A6
:10CF50000020C043AF4B20800FCB049301AB07C32D
:10CF6000AD486946088001A8811E62DF00281CD1F7
:10CF7000A21C69460120A0DF002816D168468078EF
:10CF80002071204600F0C0F800280ED1204600F0A5
:10CF9000FBF8002809D1286820626868002800D0C2
:10CFA00060629B4901200870002058E70E2056E778
:10CFB0003EB5002820D000291ED0026A002A1BD0CE
:10CFC0000A88102A19D0112A28D0502A17D0512A9D
:10CFD00012D104468879891D02280DD14888E2893A
:10CFE000904209D12046891CFFF73FFF002803D05B
:10CFF000616A002900D088473EBD898810E0CA8850
:10D00000C3889A42F8D1082200928A7F6B461A712F
:10D0100020310291026A694690473EBD0021C94312
:10D0200001803EBDF0B585B00A4605002DD02888A8
:10D03000764988422BD076480078002827D0744C57
:10D040001020641C2070072060700127A770032146
:10D05000684601820026E11C104600F04CF80146AB
:10D060006846008A09186846018200960196029671
:10D070000396E98901808770868004A80394029052
:10D0800028886946A6DF05B0F0BD0E20FBE7082022
:10D09000F9E7F0B585B00A46050028D028885B4935
:10D0A000884226D05A480078002822D0584C1120B7
:10D0B000641C20700127684607820026611C104608
:10D0C00000F019F801466846008A0918684601828E
:10D0D0000096019602960396E98901808770868002
:10D0E00004A80394029028886946A6DFCBE70E20A7
:10D0F000C9E70820C7E70870020A4A70020C8A7064
:10D10000000EC8700420704730B58FB005461C2152
:10D11000684602F008F96946087804210843694620
:10D1200008700024019403940494059406942879CB
:10D1300008A9887038486946801C0884601C00076C
:10D140000794000F0C77103048778A7FF92002404F
:10D15000F720921C0240EF200240012002438A7710
:10D16000142109A802F0DFF808A8099007A80A907E
:10D1700069468C851420CC8508860D946888AB1D83
:10D1800009AAA2DF0FB030BD30B58FB005461C2113
:10D19000684602F0C8F8694608780821084310225A
:10D1A0001043694608700024019403940494059484
:10D1B0000694287908A9887017486946401C088495
:10D1C000601C00070794000F0C7710304877887FA9
:10D1D000F9210840F721801C084010430121084331
:10D1E00069468877142109A802F09DF808A80990DB
:10D1F00007A80A9069468C851720CC8508860D946F
:10D200002B4668880E3309AAA2DFBBE7FFFF0000A8
:10D21000382000204CF50300301500004B48002159
:10D2200001704C484A4A02608160C1600161082275
:10D230004161426081610846704710B500291DD0E8
:10D2400000220A60434A5368002B1BD0202817D8BD
:10D250005B1E5360D0682423401CD06010691468A2
:10D260004343E3180B60012383409169401C194339
:10D270004007400F91611061002010BD0E2010BDCD
:10D280000C2010BD042010BDF0B5324A064691684E
:10D2900000292AD057691020791A4907490F1468C4
:10D2A0000B4624254D436519B54206D101249569E5
:10D2B0008C4065400020956104E0491C4907490FF6
:10D2C0008F42EED1491C4E07760F956901210C461D
:10D2D0009C4025420AD19368002B07D05B1E9360C7
:10D2E00053685B1C53603346F1E70420F0BD194AD4
:10D2F0002423117C1268491E4907490F59432031E4
:10D3000050500020704770B500281AD0002918D05E
:10D31000104AD368002B16D05B1ED3609368242676
:10D320005B1C9360536915681C467343EE182033E9
:10D330000660E858641C08606007400F50610020D8
:10D3400070BD0E2070BD042070BD00004020002084
:10D350006C2500208C2600208307FF22DB0E9A40DC
:10D360008907090E994000280BDA0007000F0838DA
:10D370008308FC489B001818C36993430B43C3619F
:10D3800070478308F8489B001B18186890430843AF
:10D3900018607047F0B5F54F28217C6841430D199E
:10D3A000F9684A1C09D028224A431619AB68B268AA
:10D3B000934204D8D21AB2606962F860F0BD0A469E
:10D3C00002E00A46796A9B1B4E1C0BD028264E436E
:10D3D0003719BE689E42F4D328264E433619B768E3
:10D3E000FF1AB760AB60696228214A43111948628D
:10D3F000F0BDF8B5DD4CE568681C36D0DC48002689
:10D4000040682169401A07023F0A1AE02820454374
:10D4100060682A189068B84215D863693F1A86195F
:10D42000556A002B0AD0116AD0699847002808D0A5
:10D43000FF21D0A25531FEF749FF02E0D169106A01
:10D440008847681CE2D1A178E078814206D1401C6F
:10D45000C0B2E070022801D10020E070C34900068C
:10D46000800D18310E5000F0D3F9F8BDF8B5044620
:10D47000BE48C1680091467856E0BC48F100826819
:10D480008D184BE0601C07D0B84A282152686143D0
:10D49000204689184C6A20E02878182141436A68A0
:10D4A000401CC0B252182870A978884201D10020CF
:10D4B0002870AE4B506828215B684143C918136837
:10D4C000012B2DD10B7E002B2AD19368CB60D36822
:10D4D0000B6113694B6152690A62A44ACF681369F0
:10D4E000BC46FA1A1202AF4F120ABA4202D20B69B4
:10D4F000D21809E062469A1A12020B69120A934284
:10D5000001D99A1A00E000228A600022CA600A61EA
:10D5100001220A76921E4A62FFF73CFF601CB1D1DD
:10D52000287869788842ADD13046761EF6B2002858
:10D53000A3D18E48C1680098814201D00120F8BD76
:10D540000020F8BD98490020086048608860C860E5
:10D5500095494039086048604BE7F0B5002087B036
:10D56000C043029081480669C568684600F056F9D4
:10D57000074600F070F90446002F08D002AA314691
:10D58000009800F0B0F90298FFF770FF06E00298EB
:10D59000FFF76CFF002801D1002C02D0284600F0D4
:10D5A000CBF907B0F0BDFFB59807002481B01E4647
:10D5B00015460F4600280BD1002E09D000F017F9B0
:10D5C0006A490A9848610F70324600204E6008E0B0
:10D5D000072005B0F0BD28234343D4509B181C7688
:10D5E000401CB842F7DB28204743BB190320487092
:10D5F0000F4618468B6019461830002218232E4615
:10D600005E43D3005B181C705C709D7058603018CE
:10D61000521C032AF5DB0020C043F860BC70FC708C
:10D62000012462482405046003211420FFF794FEBE
:10D630005F4804604E4C0198A06003211120FFF761
:10D640008BFE606838610020C3E770B5474C6568A1
:10D65000002D06D0002A06D0002804D0002324780C
:10D6600009E0082070BD072070BD28265E43AE5932
:10D67000002E04D05B1CA342F7DB042070BD2824DD
:10D6800001265C432E516419E26161600360002051
:10D6900070BD34494868C005C00D17D0103807D593
:10D6A0000207120F083A920892005118C96904E063
:10D6B00081082D4A8900891809688007C00EC14079
:10D6C0000806800F012803D0032803D002207047EA
:10D6D0000020704701207047FEB5044623481746D6
:10D6E00042680D46002A0CD001788C4201D2052DEB
:10D6F00001D20720FEBD2146282359435358012B50
:10D7000001D00820FEBD8818406801281BD00026E3
:10D71000FFF7BFFFC00015490190896840186946AE
:10D7200000F04DF9002810D0012112C010494968BD
:10D73000E2C00E490198896841180098487000F0CD
:10D7400067F80020FEBD2E46E2E70420FEBDF8B5D6
:10D75000064D04466868002831D029788C4229D3C8
:10D760000720F8BD00ED00E000E400E048200020C4
:10D77000001501402E2E5C2E2E5C2E2E5C2E2E5C73
:10D780002E2E5C536F757263655C6170705F636FA2
:10D790006D6D6F6E5C6170705F74696D65722E6324
:10D7A00000000000FFFF7F004011014080E200E028
:10D7B00000E100E0282161434058012801D0082001
:10D7C000CFE7FFF766FFC600A8686946301800F08B
:10D7D000F6F8002809D0022112C0A8683118009874
:10D7E000487000F015F80020BBE70420B9E710B539
:10D7F0000121924A48041060914A40109060904A7A
:10D80000403A90608F4841602F20FEF7B3FC10BD76
:10D8100001208A49000580310860704710B58A49A7
:10D8200000238A78CC78A24212D0521CD2B28A70DD
:10D83000022A00D18B708A78834B920018339A5851
:10D840000260086910180002000A0861012010BD7A
:10D850000360002010BDF8B57B48C1680091457891
:10D8600033E07948E90080680E1834782AE01820FF
:10D8700060437168641C0818B178E4B2A14200D119
:10D8800000240168022902D003291BD113E06E4A4B
:10D8900040682821526841438F18397E002911D0F1
:10D8A00000F09FF8002038760CE028277843C01855
:10D8B0000276406A03E0644900224B68C868471C4E
:10D8C000F3D1C8607078A042D1D128466D1EEDB268
:10D8D0000028C6D15C48C1680098814201D001206F
:10D8E0003FE700203DE7F7B5574C00256768E36840
:10D8F0001EE028215943C9198E68864202D9301A80
:10D90000886017E0801B751900268E600E764E69C0
:10D910009C464B6AB646002E0AD0019E7619360206
:10D92000360ACE6076460E6116684E626146116018
:10D93000591CDED1E360FEBDF8B54349CA68531CEB
:10D940003AD028235A434B68D21896683F4A546805
:10D950000F69401CE11B0D022D0A0121ED1C00285E
:10D9600010D1374A08045060354A403A5060384A6E
:10D9700040001060314A803A1060324801602F2028
:10D98000FEF7F8FBB54200D23546E81900022F49F0
:10D99000000A403108602D494968001B091B090233
:10D9A000090A0002000AC91C814204D90120234946
:10D9B000400480310860D4E6FFF719FFD1E64278D1
:10D9C0008378521C934200D100220378934201D104
:10D9D000002070470A6041684078182250430818B8
:10D9E000704770B5184DEA686B681446114606E03A
:10D9F000814207D00A4628267143C918496A4E1C3D
:10DA0000F6D170BD002EFCD08A4204D128204443B8
:10DA1000E018406AE86028204143C818282481683B
:10DA20006243406AD2185062421CEAD02822504316
:10DA3000C01882685118816070BD000080E100E06C
:10DA40004013014000100140482000200015014013
:10DA500080E200E030B5CB0008339DB2930700248C
:10DA6000002B01D0072030BD564B9A605219DA6066
:10DA70005C701C7058809980002030BDF7B5514C07
:10DA800082B060880F4681426CD8002069460870D9
:10DA90004E494D4E4868C005C00D16D0103807D508
:10DAA0000207120F083A920892005118C96904E05F
:10DAB0008108474A8900891809688007C00EC1405B
:10DAC0000806850F012D01D10AE0042568462EDFE6
:10DAD00002280BD0002803D03EA25921FEF7F6FB06
:10DAE0006078A188884203D2401C02E072B6F7E752
:10DAF00000202278C0B2904207D0667860788842D1
:10DB000001DA401C00E000206070012D0BD062B6ED
:10DB1000684600782FDF022805D0002803D02DA208
:10DB20006121FEF7D3FB2848864219D0A068F50092
:10DB300004994151029900290CD0002F0AD0608825
:10DB40003A464643E068301801F08EFBA06828187A
:10DB5000878002E0002128188180002005B0F0BDF8
:10DB60000420FBE70920F9E70EB504E06846818848
:10DB7000029A0098904702AA01A9684600F003F8AB
:10DB80000028F3D00EBD70B50E4B05245D781E78CD
:10DB9000B54215D01D781C789E88B44201DA641C09
:10DBA00000E000241C705C88DE686C43A4190460EB
:10DBB0009B68E800C418A4880C80185800241060E2
:10DBC000204670BD68200020FFFF000000ED00E04F
:10DBD00000E400E02E2E5C2E2E5C2E2E5C2E2E5CA1
:10DBE0002E2E5C536F757263655C6170705F636F3E
:10DBF0006D6D6F6E5C6170705F7363686564756C8A
:10DC000065722E6300000000F0B500220123032698
:10DC100036041F469740394212D0C5683D4203D1B1
:10DC2000012464043D4301E03446BD43C5603A4DE0
:10DC300097007D192F68B7432F602F6827432F6007
:10DC4000521C202AE5D3F0BDF8B5344805693449A3
:10DC50000020C863074632E014213A464A4341682F
:10DC6000806854180121B940014226D0E068C643BB
:10DC700020686E40064031462046FFF7C5FF274822
:10DC8000006968400CD00543E0682168C0436840E3
:10DC90000840014600902046FFF7B6FF0098064373
:10DCA0003046A168A84301402A46606832401040CF
:10DCB00002460A4301D0226990477F1CFFB21948EF
:10DCC00041788F42C8D3F8BD10B5002903D08A0728
:10DCD0000024002A01D0072010BD124A0B465160D3
:10DCE00010701421547041431846946001F01BFBDE
:10DCF00000200D49C04388600C48402101600C4A57
:10DD00001068FF231B0498430B0418431060094854
:10DD10000160002010BD0000000700500005005009
:10DD200040610040782000200063004080E200E075
:10DD300004E400E000E100E010B50446002A02D04F
:10DD40001088002210E00A48FBE7030A00020343A0
:10DD5000A05C584003061B0F43401803584083B291
:10DD60001806C00C5840521C8A42EED310BD000069
:10DD7000FFFF000010B508461146FEF7ADFA10BDD2
:10DD8000F8B5394C2078002837D02069002807D012
:10DD90000026E068002805D00025002E04D013E0FE
:10DDA0000126F6E70125F8E7684651DF052806D089
:10DDB000002806D02DA26921FEF788FA04E001268A
:10DDC00002E0216900988847002D12D160886946D9
:10DDD0000880A06860DF052806D0002806D023A2AE
:10DDE0008021FEF773FA04E0012502E0E168A068F3
:10DDF0008847002ED8D0002DCFD0F8BD70B50029AF
:10DE000001D08C0701D0072070BD174C0125A160FF
:10DE100062802449636010DF0028F5D12570162048
:10DE200026DF70BD002803D00F49C860002070476E
:10DE30000E207047002803D00B490861002070476E
:10DE40000E20704710B508484068002808D0804769
:10DE5000002804D0FF2105A23331FEF737FA10BDA8
:10DE6000FFF78EFF10BD0000842000202E2E5C2EB8
:10DE70002E5C2E2E5C2E2E5C2E2E5C536F757263E4
:10DE8000655C73645F636F6D6D6F6E5C736F6674FA
:10DE90006465766963655F68616E646C65722E6344
:10DEA0000000000075DD030018225043FA4A0021EB
:10DEB0008018017181604161012281610261C1604C
:10DEC0007047FFB581B0F54C049B039A054626695F
:10DED0001A4303200092002E03D1002A0ED0012203
:10DEE00022612769039A0126360792003B0001F060
:10DEF0000EFB072707162940526127000222EFE791
:10DF00007069326992B25043326933691204920CDB
:10DF10009BB2594321DF002812D102210FE00846AD
:10DF200020DF00280CD10399002901D0032106E04D
:10DF30000499002916D12978042946D017E02161D7
:10DF400005B0F0BD7069326992B25043326993B244
:10DF50004B4301461846039A21DF0028F0D104996B
:10DF6000002901D00421EAE72978042920D00521DD
:10DF7000E5E773693069366980B2434368681B1806
:10DF80009B18B6B24E43301880181946049A21DF08
:10DF90000028E9D0D4E7306980B248436968801826
:10DFA0008A08696921DF0028CAD1009900290CD0AC
:10DFB0000621C4E77069316989B24843316989B281
:10DFC00001F0C4F920DF0028BAD10721B7E7F8B57E
:10DFD000B14918230A780F205A435418AF492279BF
:10DFE0006669241DCF68022A1BD001252D07042A4B
:10DFF0002AD0052A5BD1286981B2304601F0A6F902
:10E000000146A36828699A1980B24843101A820809
:10E0100060681818861928694B1C80B25843801B09
:10E0200034E0B80262686169121A0918A3683018EE
:10E03000181801239B029A4202D2920821DF31E094
:10E04000FF22013221DF2DE0E26893491420504382
:10E05000F4314018001D0BC8B04203D16068594329
:10E06000814218D0022A16D0286981B2304601F0C8
:10E070006DF90146286980B24843301A8208286940
:10E080004B1C80B2584363689B19C01A8308204612
:10E09000FFF717FF06E0286981B2304601F056F914
:10E0A000C01920DF002802D17B4901228A70F8BD07
:10E0B000F8B5794C069E65780A2D1DD027787D1914
:10E0C000EDB20A2D01D30A3DEDB218277D432D197B
:10E0D0002871AA6103C9EE60AB6069612861A1780B
:10E0E0000020002904D1FFF772FF112800D1002081
:10E0F0006178491C6170F8BD0420F8BD38B502464E
:10E100006548182301785943081803690179022BDF
:10E110000AD014246343604CF434E45883680093B9
:10E1200083691030A04738BD5C4B14331C68F5E799
:10E13000F8B5594B9978012914D1002557499D709C
:10E140000A69082A05D002280FD003280AD10D2019
:10E1500006E0022807D00D7000F012FA002801D066
:10E16000FFF7CCFFF8BD0D61F6E74B4818240378A4
:10E170004A496343CC681818641CCC600379001DBD
:10E18000022B05D14668A102B14201D3012700E06C
:10E190000027052B01D1072A03D00021042B02D030
:10E1A00003E00121FAE7072A03D00026042B02D05E
:10E1B00007E00126FAE74068A302834201D3002A60
:10E1C0001AD00020314301433943C5D0334E28468D
:10E1D0003561FFF793FF304C2078FFF765FEF5605F
:10E1E0006078401E60702078401CC0B220700A2801
:10E1F000B2D30A382070AFE70120E3E770B50025FD
:10E20000264C2548E56025610570457085702E46D1
:10E210003046FFF749FE761C0A2EF9D30122120779
:10E220006560516928461269491E92B25143E56002
:10E23000A1601949F4310D608D600D61CD60174901
:10E2400014310D60888001212170206170BDF0B50E
:10E25000124A1378002B23D0002823D0002921D084
:10E260000368002B1ED00124240743682569ADB242
:10E27000AB420FD8102B0DD38568002D0AD09268C1
:10E280005D436669AD182769BFB27E43B54201D8C8
:10E290009B0709D00720F0BDA82600209820002069
:10E2A0000820F8E70E20F6E7BE4D6B68012B1BD067
:10E2B0000B604A60194614256943BB4D4E197260C4
:10E2C00007686F504168B1608168F160416880689B
:10E2D000002541436D1C2069ADB280B2884205D251
:10E2E000206980B2091A02E00420D4E700212069E5
:10E2F00080B28218206980B28842EBD9A9485B1CA1
:10E300008260356143600020C5E7F8B50446A54842
:10E310001E46007815460F46002807D0002F07D06C
:10E32000002C05D02068002817D103E00820F8BD94
:10E330000E20F8BD9C48016800290ED0C268816893
:10E3400040684A4310186268904206D9002D04D0F4
:10E35000A94202D3A819884201D90720F8BD38463E
:10E3600000F008F9002811D0304600F003F9002829
:10E370000CD0606800F0FEF8002807D02B463A4623
:10E38000214602200096FFF793FEF8BD1020F8BD4D
:10E39000FFB5844881B000781F4616460D46002818
:10E3A00008D0002D08D00198002805D02868002842
:10E3B00017D103E00820C3E50E20C1E57A4C2068A0
:10E3C00000280ED0E168A0686268414389186A6835
:10E3D000914206D9002E04D0B04202D3F1198142F5
:10E3E00001D90720ACE5019800F0C4F800281BD043
:10E3F000384600F0BFF8002816D0686800F0BAF878
:10E40000002811D068683246C119019800F02CFF2D
:10E4100000962868142148432458002203212846E6
:10E42000019BA04700208BE5102089E5F8B5054643
:10E430005C480F460078002805D0002D05D02868DC
:10E44000002821D103E00820F8BD0E20F8BD564C6D
:10E4500000262068002817D0A168E068484361685A
:10E460004118686881420FD900F084F800280DD067
:10E47000296814225143091968684A688968801A12
:10E4800000F064FF002903D00720F8BD1020F8BD7C
:10E490003B460022294604200096FFF709FEF8BDFE
:10E4A000404A1278002A0DD000280DD000290BD048
:10E4B0000268002A08D03B4A14321368002B05D0AA
:10E4C00004207047082070470E20704702230B601D
:10E4D0000068106000207047F8B5044631481E46B9
:10E4E000007817460D46002807D0002D07D0002CD5
:10E4F00005D0206802281BD103E00820F8BD0E20BB
:10E50000F8BD284814300068002811D0084600F0F3
:10E5100031F800280ED0304600F02CF8002809D041
:10E520003B462A46214602200096FFF7C1FDF8BD72
:10E530000720F8BD1020F8BD08B51A4A1278002A45
:10E5400005D0002805D00268022A11D103E0082076
:10E5500008BD0E2008BD134A14321268002A07D0E5
:10E560000B460022014604200092FFF7A1FD08BDE2
:10E57000072008BD800701D00020704701207047A8
:10E58000094810B5F43840780024002807D0FFF778
:10E590001EFD040003D0112C01D0FFF7AFFD204673
:10E5A00010BD0000982000209C27002031B5054CAC
:10E5B00004E0401E00902046FDF7ECFD0098002886
:10E5C000F7D138BDE703000010B500280BD0FE4896
:10E5D000FE49808888420FD0132176DF00280BD0B7
:10E5E000FBA2722106E00846FEF74EFE002803D08B
:10E5F000F7A27821FDF76AFE10BD08280CD004DCD4
:10E60000002807D006280FD108E00B280AD00C28D4
:10E610000AD105E0012070470220704703207047AF
:10E6200004207047042901D0062070470520704758
:10E63000F0B5054608790E4687B081070AD0032257
:10E6400011462846FEF7E6FB00281FD0FF21E0A276
:10E650003D3143E0DC4900901831FEF7EEFD01004A
:10E6600011D1D94CB168009AA06900F0FDFD009865
:10E67000FEF73DFE010006D1204669461830FEF740
:10E6800042FE010004D0284600F0D9F907B0F0BDE1
:10E6900003200190009880080290A069039001A8CF
:10E6A000FEF77DF807000BD0092F1AD0A069FEF7FE
:10E6B000EBFD010002D0284600F0C1F93946E2E73F
:10E6C0003079616901224018606103212846FEF714
:10E6D000A1FB0028DAD0FF21BDA26D31FDF7F6FDC8
:10E6E000D4E7307961694118616160780028CDD044
:10E6F0002089401E0004000C2081C7D12846FEF767
:10E70000C8FC002804D0FF21B1A27E31FDF7DEFD58
:10E71000E0882081BAE710B5FF21ADA2B931FDF73D
:10E72000D5FD10BD10B5A84CA849A088884208D0D6
:10E73000132176DF002815D0A5A2AB49FDF7C6FD51
:10E7400010E0A07800280DD074DF002804D0A6497E
:10E75000A6A2FF39FDF7BAFDFF20AA490130C86023
:10E760000020A07000F0C1FA002804D09E4998A2B1
:10E770000931FDF7ABFD002010BD70B50D680446F2
:10E780000120914A2B0000F0C2FE0A303A3C0616E6
:10E790002450553F5923FEF766F80421FFF72DFF5B
:10E7A000024604212046FEF735FB002810D0FF2149
:10E7B00087A2EB314AE0FFF7B5FF002804D0FF2124
:10E7C00083A2F131FDF782FDFEF77DF8002809D123
:10E7D00070BDFFF7A7FF002804D0FF217CA2FD3108
:10E7E000FDF774FDFEF7A7F870BDD060087900282A
:10E7F00003D088680078106170BD0420FBE7022018
:10E8000000E00320D06070BDD2682046012A06D007
:10E81000022A07D0032AF6D1FFF70AFF70BD00F0E5
:10E8200021F970BD00F05BF970BD50708888D08010
:10E83000108170BD00205070D08070BD204651699D
:10E84000FEF7F0FB0028F8D061A26F49FDF73EFD0E
:10E8500070BD10B55C4CA07800280DD16B4873DFFB
:10E86000002804D068495AA21331FDF72FFD01207A
:10E87000644A01029160A07010BD70B5524C0588C9
:10E88000A388132D2CD00ADC614A5E49102D18D0C4
:10E89000112D15D1CA60207800281BD01CE0522D04
:10E8A00029D0552D0CD18079002809D11321184683
:10E8B00076DF002804D0544945A25C31FDF706FDFF
:10E8C00070BD8A60FF220132CA608088A08000206B
:10E8D000A07070BDFFF7BDFF0020C043A08070BDD9
:10E8E000394A18461C3200217FDF0028F7D04649FC
:10E8F00037A25431E2E7002211461846A9DF00286A
:10E90000EDD0512132A2C900D8E710B5044600F07D
:10E910001DFA3E4821461430FEF74AFB2046FFF719
:10E92000ACFF10BD10B5BF2129A28900FDF7CEFCB8
:10E9300010BD10B5244888B00024C46035490120BA
:10E940000860091D086033491C3108603248FFF730
:10E9500069FA002871D13148FDF7C4FEFEF75EFC6C
:10E9600000286AD100F0EEF82D4800902D48019063
:10E97000264869461430FEF7E1FA002804D01A4907
:10E980001AA23B39FDF7A2FC00F000F91C216846F1
:10E9900000F0C9FC244801900120800302900094FB
:10E9A000032168460173C4810474204806900594CD
:10E9B000684600F076F9002804D0FF210BA2D03180
:10E9C000FDF784FC34E038E0B4200020FFFF0000B5
:10E9D0002E2E5C6466755F7472616E73706F7274F4
:10E9E0005F626C652E6300004A0300002E2E5C649B
:10E9F00066755F7472616E73706F72745F626C655E
:10EA00002E6300000005005026020000B027002001
:10EA100000020000200700500BE90300C9E50300D5
:10EA20007BE7030025E90300CD0C000017E7030096
:10EA300000F0E2F8FFF70DFF002008B010BD10B5A0
:10EA40000A46044603211046FFF7D7FD024603217C
:10EA50002046FEF7DFF9002803D0754ABA21FDF7FA
:10EA600035FC10BD30B5054685B00879022200920C
:10EA7000704A0C281269019225D0042809D003227B
:10EA800001212846FEF7C6F900281AD0684AD52188
:10EA900015E0886800210291039100F0BFF804900E
:10EAA0006846FDF733FE0121FFF7A7FD024601216D
:10EAB0002846FEF7AFF9002803D05D4AF621FDF79E
:10EAC00005FC05B030BD8C68204600F0A7F8029028
:10EAD000201D00F0A3F8039020460830DDE770B554
:10EAE000044686B0012000908868029008790022D0
:10EAF00083070FD08007800F0422121A00200346DC
:10EB000006E00E79029D3618B600401CAB51C0B22B
:10EB10009042F6D308798018800801906846FDF786
:10EB20007DFE0221FFF769FD024602212046FEF725
:10EB300071F9002804D0FF213D4A2931FDF7C6FBB9
:10EB400006B070BD0EB511206946087207223AA1C1
:10EB500002A87CDF002803D0354A3949FDF7B6FB0F
:10EB6000002000900C22694601900A8018224A80F9
:10EB70008880FF209130C88068467ADF002804D062
:10EB800059212B4AC900FDF7A1FB0EBD10B592B06B
:10EB90000621684601712B480179684681702A492F
:10EBA00001803C2102A800F0BEFB0220029000245C
:10EBB000684644730121018201A80590684681835B
:10EBC0000890214602A800F031FA002804D01C4920
:10EBD000174A2831FDF77AFB1A481421143800F03F
:10EBE000A2FB1848FF21143804704460047291316C
:10EBF0000182448212B010BD0E491E201C310880D3
:10EC0000887801221043E1221040DF220C301040AE
:10EC100088700720C87010200871704710B504462E
:10EC200000F083FB0002E178000A0906084310BDEA
:10EC3000ECE90300B4200020446675546573740049
:10EC4000BE020000C42700203015000038B5674917
:10EC5000674A488890420FD04A78664C521CD2B21C
:10EC60004A70237B934208D3083175DF002803D014
:10EC7000A169002900D0884738BD00254D70217C4E
:10EC8000002907D03B2176DF002803D0A1690029A5
:10EC900000D0884761690029EED068460095884712
:10ECA00038BD70B5054601461C225248FDF782FA70
:10ECB0004E4C002626702968002907D00822A0188B
:10ECC00000F0D2FA204608307ADF02E047480830E8
:10ECD0007BDF002808D1401E608044486670464AA9
:10ECE0000021001DFEF7B1FC70BD10B53F48406823
:10ECF000FEF72DFD10BDF8B53C48103000F069F866
:10ED000000263A4D3B4C002806D06169002919D0F5
:10ED100001200090684614E02878002804D061693A
:10ED200000290FD00096F5E7687800280CD0A1687C
:10ED300000226868FEF7D0FC002803D0A1690029F2
:10ED400000D088472E70F8BD6168F1E7F8B5294C0E
:10ED500002880027254DE689102A18D029464968DF
:10ED6000112A21D0122A2DD0502A0FD1C288801DFD
:10ED7000B2420BD1028B022A08D1C27E837E1002DE
:10ED80001843C007C00F13D0FFF7B5FFF8BD818847
:10ED900069800146154808220E31103000F064FAEF
:10EDA0006F70002EF0D0F8BD0020C04368806F70F7
:10EDB0000846FEF7CCFC0028F5D0A1690029F2D066
:10EDC0008847F8BD811D09480822103000F04CFA30
:10EDD000DAE74188054808300288914204D3408828
:10EDE000814201D80120704700207047D8200020C0
:10EDF000FFFF0000EC2700204DEC0300FFB583B0BF
:10EE0000074600200C9C8646267805463AE078683E
:10EE1000A90041180A88684682804988C18000227A
:10EE2000694601A864DF002810D16846017805987A
:10EE3000814226D17046002801D0002200E0022243
:10EE40002078891841181F2902D90C2007B0F0BD7D
:10EE50007146002908D1401CC0B2411C069B049A8F
:10EE600021701A5401208646217806980A186946AE
:10EE700001A864DF0028E9D16946207809784018A4
:10EE800020706D1C3888A842C1DC7046002804D070
:10EE900020780699801B401E88550020D6E7F8B5DB
:10EEA0001546069C1E46074602220094FFF7A6FF61
:10EEB000002806D133461022294638460094FFF731
:10EEC0009DFFF8BDF7B582B00026054616700068B4
:10EED0001446002805D02846039900F0DFF8060004
:10EEE0002DD1687900281BD02078039F001D1F2892
:10EEF00024D8684679DF002821D121780322481CD4
:10EF000020707A5421781922481C20707A54207875
:10EF1000C1196846008800F0BCF8217840182070BC
:10EF20002989002923D001208446EA680398002A11
:10EF300007D0227853189B1C1F2B04D90C2005B036
:10EF4000F0BD0720FBE71346521C2270491CC15438
:10EF500022786746511C2170875423782A89181813
:10EF6000E96800F081F92078297A40182070286932
:10EF7000002815D00021415622788C46D01C0399D8
:10EF80001F28DBD8501C022320708B5422780A23C0
:10EF9000501C20708B5420786246431C23700A5406
:10EFA000A88A002809D0284600940622022114309D
:10EFB000039BFFF774FF0600C1D1A88B002809D07E
:10EFC00028460094072203211C30039BFFF767FFAC
:10EFD0000600B4D1A88C002809D028460094152238
:10EFE00014212430039BFFF75AFF0600A7D1E86ADB
:10EFF000002805D02246039900F085F806009ED12E
:10F00000286B002805D02246039900F0BBF80600C3
:10F0100095D13820405D002806D022462846039925
:10F0200000F0E2F806008AD1304688E770B50D4658
:10F0300092B000216A46117007241171002812D085
:10F040000189002905D0C168002902D00978490743
:10F0500002D4204612B070BD02A9FFF733FF00288A
:10F06000F8D102AE00E00026002D0BD02889002840
:10F07000EFD101AA0AA92846FFF724FF0028E9D109
:10F080000AAA00E00022684603790178304672DF60
:10F09000E0E70870000A487002207047F8B514785D
:10F0A0000746A01C15460E461F2803D83879801C39
:10F0B0001F2801D90C20F8BD1D20001B80B2694615
:10F0C000864608803019801C7DDF0028F3D138681F
:10F0D000022805D168460088704501D8092107E05B
:10F0E00038790821002801D0704501D96846008888
:10F0F000421C3255641CE2B2B1542978801C0818B5
:10F1000028700020F8BDF8B50D4611780646881D18
:10F1100014461F2801D90C20F8BD33880720062B80
:10F12000FAD31927FF01BB4202D94E4A9342F3D1C9
:10F130007288062AF0D3BA4202D94A4FBA42EBD1BA
:10F14000484FBB4203D0BA4201D09342E4D8481C96
:10F15000052220706A5420781222411C21702A5402
:10F16000207841193088FFF794FF21784018C0B209
:10F17000207041197088FFF78CFF217840182070AB
:10F180000020F8BD70B5054600790E46801C144677
:10F19000C0B21178821C8A181F2A01D90C2070BDB8
:10F1A0000A46491C2170401CB0542078FF22411CA3
:10F1B00021703254207881192888FFF76AFF21785E
:10F1C0004018C0B22070AA88002A09D0A968002976
:10F1D00008D0801900F048F820782979401820706C
:10F1E000002070BD072070BDF7B582B002981446AC
:10F1F000406B0F46002832D0029800252030009046
:10F2000028E00298416B0C2068430E182178307971
:10F210004A1C2270C01C785420781622411C217090
:10F220003A542078C1193088FFF733FF217840180D
:10F23000C0B22070B288002A09D0B16800290ED06F
:10F24000C01900F011F820783179401820706D1C39
:10F250000098EDB2007EA842D3D800206FE60720C8
:10F260006DE60000FFFF0000F8B5042A2CD38307E9
:10F2700012D00B78491C0370401C521E83070BD020
:10F280000B78491C0370401C521E830704D00B7876
:10F29000491C0370401C521E8B079B0F05D0C91AD6
:10F2A000DF002023DE1B08C90AE0FCF783FFF8BD5E
:10F2B0001D4608C9FD401C46B4402C4310C0121F17
:10F2C000042AF5D2F308C91A521EF0D40B78491C4F
:10F2D0000370401C521EEAD40B78491C0370401C7A
:10F2E000012AE4D409780170F8BD01E004C0091FC7
:10F2F0000429FBD28B0701D50280801CC90700D0EE
:10F300000270704700290BD0C30702D00270401C66
:10F31000491E022904D3830702D50280801C891E5E
:10F32000E3E70022EEE70022DFE70378C278194620
:10F33000437812061B0219438378C0781B041943D3
:10F3400011430902090A0006084370470022030915
:10F350008B422CD3030A8B4211D300239C464EE0F0
:10F3600003460B433CD4002243088B4231D30309AC
:10F370008B421CD3030A8B4201D394463FE0C3095E
:10F380008B4201D3CB01C01A524183098B4201D376
:10F390008B01C01A524143098B4201D34B01C01A61
:10F3A000524103098B4201D30B01C01A5241C308D9
:10F3B0008B4201D3CB00C01A524183088B4201D348
:10F3C0008B00C01A524143088B4201D34B00C01A34
:10F3D0005241411A00D201465241104670475DE049
:10F3E000CA0F00D04942031000D3404253400022CC
:10F3F0009C4603098B422DD3030A8B4212D3FC2275
:10F40000890112BA030A8B420CD3890192118B42F3
:10F4100008D3890192118B4204D389013AD0921109
:10F4200000E08909C3098B4201D3CB01C01A5241C4
:10F4300083098B4201D38B01C01A524143098B428D
:10F4400001D34B01C01A524103098B4201D30B0176
:10F45000C01A5241C3088B4201D3CB00C01A52419B
:10F4600083088B4201D38B00C01A5241D9D2430882
:10F470008B4201D34B00C01A5241411A00D20146BF
:10F48000634652415B10104601D34042002B00D529
:10F490004942704763465B1000D3404201B50020EB
:10F4A000C046C04602BD704770477047754600F0C1
:10F4B00023F8AE46050069465346C008C00085469D
:10F4C00018B020B5FCF7EEFE60BC00274908B64630
:10F4D0000026C0C5C0C5C0C5C0C5C0C5C0C5C0C563
:10F4E000C0C5403D49008D4670470446C046C046F1
:10F4F0002046FCF732FE0000004870470828002034
:10F5000001491820ABBEFEE726000200704730B468
:10F510007446641E2578641CAB4200D21D46635DB0
:10F520005B00E31830BC1847020000000000000038
:10F5300000000000000000000200000000000000C9
:10F5400000000000000000000000000023D1BCEA21
:10F550005F782315DEEF1212000000007CF5030037
:10F5600000200020F000000004C103006CF603003E
:10F57000F02000207813000020C103000024F400D4
:10F58000000000000000000000000000000000007B
:10F59000000000000000000000000000000000006B
:10F5A000000000000000000000000000000000005B
:10F5B000000000000000000000000000000000004B
:10F5C000000000000000000000000000000000003B
:10F5D000000000000000000000000000000000002B
:10F5E000000000000000000000000000000000001B
:10F5F000000000000000000000000000000000000B
:10F6000000000000000000000000000000000000FA
:10F6100000000000000000000000000000000000EA
:10F6200000000000000000000000000000000000DA
:10F6300000000000FFFF00000000000000000000CC
:10F6400000000000000000000000000000000000BA
:10F6500000000000000000000000000000000000AA
:0CF660000000000000000000000000009E
:020000041000EA
:0410140000C0030015
:040000050003C0C173
:00000001FF
