:020000040000FA
:10100000981D0020DD510100A12D00004351010079
:1010100000000000000000000000000000000000D0
:101020000000000000000000000000004D52010020
:101030000000000000000000A12D0000A12D000014
:10104000B9520100BF520100A12D0000A12D0000E6
:10105000A12D0000A12D0000A12D0000A12D000058
:10106000C5520100A12D0000A12D0000CB520100AE
:10107000A12D0000D1520100D7520100DD52010024
:10108000A12D0000A12D0000A12D0000A12D000028
:10109000A12D0000A12D0000A12D0000A12D000018
:1010A000E3520100E9520100A12D0000A12D000032
:1010B000A12D0000A12D0000A12D0000A12D0000F8
:1010C00000F002F814F06BF80CA030C808382418AF
:1010D0002D18A246671EAB4654465D46AC4201D170
:1010E00014F05DF87E460F3E0FCCB6460126334223
:1010F00000D0FB1AA246AB4633431847A842010072
:10110000D8420100103A02D378C878C1FAD8520701
:1011100001D330C830C101D504680C6070470000AD
:101120000023002400250026103A01D378C1FBD803
:10113000520700D330C100D50B6070471FB5C046C1
:10114000C04613F0CDFF04B00FB41FBD8269024941
:1011500081610248104470476111000001000000E5
:1011600001B41EB400B510F0DDFC01B40198864650
:1011700001BC01B01EBD0000F0B4404649465246D5
:101180005B460FB402A0013001B50648004700BF1E
:1011900001BC86460FBC8046894692469B46F0BC01
:1011A00070470000C1100000401E00BF00BF00BF1C
:1011B00000BF00BF00BF00BF00BF00BF00BF00BF37
:1011C00000BFF1D17047000070B505460C461646C9
:1011D00002E00FCC0FC5103E102EFAD2082E02D31B
:1011E00003CC03C5083E042E07D301CC01C5361F2E
:1011F00003E021782970641C6D1C761EF9D270BD45
:101200008307FF22DB0E9A408907090E99400028C8
:101210000BDA0007000F0838830828489B001B18CA
:10122000D86990430843D8617047830824489B00DD
:101230001B181868904308431860704710B504469F
:1012400000210120FFF7DCFF00211820FFF7D8FF65
:1012500000210B20FFF7D4FF02211920FFF7D0FF58
:1012600002210D20FFF7CCFF02210E20FFF7C8FF5F
:1012700002210F20FFF7C4FF0221C81FFFF7C0FFA4
:1012800003211620FFF7BCFF03211520FFF7B8FF4D
:10129000204600F019F8002010BD0121C94301804B
:1012A000704710B500F039F810BD0648704710B50A
:1012B00000F034F810BD70477047704700ED00E053
:1012C00000E400E003F900C330B50446374D95B0A3
:1012D00007202870A81CFFF7E0FF5920A880344899
:1012E00001F046FC0546072000F0DCF929462F48AE
:1012F00000F08CFA641E072C0AD830216846017071
:10130000847001F001FB002802D009A800F0DDFC88
:10131000284601F083FE15B030BD7047F8B5234E66
:101320000446B61E307801270D46002807D0204617
:1013300060380B2808D8204601F0BCFB2BE0602C5D
:10134000F9D01C480860F8BD20466C38032803D843
:10135000204601F0F1FB1EE0204670381F2803D81C
:10136000204600F037F816E0204690380F2803D8C2
:10137000204600F0BBF80EE02046A0380F2803D826
:10138000204600F023F906E02046B0380F2804D8A4
:10139000204600F000F9286000E02F60602CD2D1D8
:1013A00028680028CFD13770F8BD00001A0000204F
:1013B000C33300000130000070477047704770472A
:1013C000704770477047704710B5012801D100F091
:1013D00042FA10BD10B57038030013F09DFF150CD4
:1013E00012161E22252C33383D41454950555C6468
:1013F0006C747B8085004A680878114604F0DEF83A
:1014000010BD086804F044F910BD0C790B7B8A68A4
:101410000868214604F050F910BD086804F0C9F9C5
:1014200010BD03F092FD10BD08884A6880B21146D5
:1014300004F090FB10BD0A790888114680B204F0D0
:10144000DEFB10BD087840B204F0E9FB10BD08884F
:1014500080B204F005FC10BD086804F014FC10BD57
:10146000086804F02CFC10BD086804F065FC10BD91
:10147000088982B209C9194604F08FFC10BD05C95C
:10148000114604F0DDFC10BD08884A6880B21146A0
:1014900004F0FBFC10BD0B7908888A6880B21946FD
:1014A00004F04DFD10BD0B7908888A6880B219469A
:1014B00004F003FE10BD08884B688A6880B21946A4
:1014C00004F04EFE10BD08884A6880B2114604F050
:1014D00099FE10BD088880B204F0B1FE10BD0888E6
:1014E00080B204F0D1FE10BD012010BD10B59038BF
:1014F000030013F011FF09060F161D242C363F467A
:101500004E0088888A6883B20888194680B205F040
:10151000EBFA10BD08884A6880B2114605F041FB1D
:1015200010BD08884A6880B2114605F085FB10BDE1
:1015300008884A6880B2114605F0BBFB10BD0888D8
:101540004B688A6880B2194605F0ECFB10BD08892B
:1015500082B2888883B20888194680B205F021FCDF
:1015600010BD08894B6882B20888194680B205F020
:1015700056FC10BD08884A6880B2114605F086FC0A
:1015800010BD888882B20888114680B205F01AFD25
:1015900010BD012010BD10B5B02805D0B12808D06D
:1015A000B2280BD0012010BD088880B205F0FEFFE4
:1015B00010BD088880B206F029F810BD08884B6875
:1015C0008A6880B2194606F032F810BD10B5A0380E
:1015D000030013F0A1FE0B070E172028323C434DE9
:1015E000545D65004B6808788A68194607F06FFB00
:1015F00010BD88888A6883B20888194680B207F0CF
:101600007BFB10BD08884C68CB688A6880B2214695
:1016100007F082FB10BD08884B688A6880B21946C3
:1016200007F09CFB10BD8888CB6884B208888A6864
:1016300080B2214607F0BCFB10BD8888CB6884B21D
:1016400008888A6880B2214607F0E1FB10BD08884F
:101650004A6880B2114607F015FC10BD088982B2B5
:10166000888883B20888194680B207F015FC10BD3F
:1016700008884A6880B2114607F032FC10BD08891C
:101680004B6882B20888194680B207F0AFFC10BDE3
:1016900008884B688A6880B2194607F06CFD10BD57
:1016A000012010BD10B507F052FE10F055F800F003
:1016B00007F810F0A3F901F005FC01F091FB10BD53
:1016C00001202B49C00308602A490020087003202C
:1016D0002949800288607047F8B5264D044628786D
:1016E000A04207D0002C05D0002803D023A14D2014
:1016F00013F021FD2878A04213D02C70032500237D
:101700002349AD021C48002C27D01B4A214E4032F1
:10171000214F012C06D0022C13D018A16E2013F0FB
:101720000AFDF8BD0B6002230B604E6185601B490A
:1017300011625762091D91621749091DD162456006
:10174000F8BD0B6003230B604E610121C90281606B
:10175000134B9362D7624160F8BD0B600B608560EC
:10176000F8BD10B505A1772013F0E5FC10BD000011
:1017700080E100E02000002000F501407372635C0E
:1017800068616C5F63636D5F6161722E630000006E
:1017900000F500407C01002000F0004000110040F6
:1017A000488100401CB50446002069460870204668
:1017B00001F00AFC6946204609F022F8002803D10E
:1017C000FBA1B62013F0B7FC01A9204608F077FF73
:1017D000002803D1F6A1BB2013F0ADFC68460078C9
:1017E0001CBD70B5F74D002428462C76203084713E
:1017F000C47113F09FFD2846403804702030847374
:10180000847484762C74AC7070BDEAE710B50C4615
:10181000ED4982888A8042884A80007808700846AC
:101820000A38847008F021FFFFF7DBFF20460AF03A
:10183000D5FAE44AE0321146383908461446813870
:1018400009F07FF92146E0480BF068FD01F0B3FB99
:1018500013F070FD10BD10B50120FFF7ADFD10BDF8
:10186000F8B509F029FED84DD64C0A3D022802D021
:10187000207C00287CD0207E0026102819D1A0785A
:10188000002803D0CAA1D14813F055FCCD48E83850
:10189000817A89070DD50146267160398989E180F1
:1018A000C17A217281896181C089A0810120A070E3
:1018B0002676C44F203FB87C002859D1C4486946D9
:1018C000808908F09DFF002805D06946687809786E
:1018D0004018687004E0D720B5A1C00013F02BFCBD
:1018E000207C002838D0BA488189FF300930406D0B
:1018F0008089814204D0B548ADA1223013F01BFC91
:10190000B348808909F022F8002804D1AF48A8A183
:10191000283013F010FC09F090F800281CD0AC48D7
:101920008089FFF73FFF697840186870A548403804
:10193000416D20318A7C012A0DD1A54A3E779289DA
:10194000C287C87C20700120B876207E102801D084
:10195000282800D1267626746978002908D09C486A
:101960008289FF300930C28601870120B8746E7009
:1019700009F072FD002805D1207C002802D0A8784B
:1019800001F01AF9F8BDF8B50F460446FFF768FFF5
:101990008C4D403D28788B4E002813D0002F10D15D
:1019A000307E002804D0FF2081A1C93013F0C3FB92
:1019B0002C22A91C204613F022FA0E2020700020B1
:1019C00028708FE07F4D203DA87B002818D0002F85
:1019D000F7D1307E102808D0282806D0002804D05F
:1019E000FF2073A1D53013F0A6FB0120E070E87B47
:1019F000A070287C60700F2020700020A87371E018
:101A00000121204609F030F8002807D0307C00285A
:101A100052D13946204609F027F8F8BDA97C69481B
:101A20000C38009068480A38002913D0017805293D
:101A300010D2002F56D1491C0170002666700D206F
:101A40002070012028750622A01C009913F0D7F9F8
:101A5000AE7447E05C4800210A380170B078002875
:101A600015D0002F3ED1307E002804D0432050A155
:101A7000C00013F060FB0025657001205149207003
:101A80000A22091DA01C13F0BAF9B5702AE03946E4
:101A900020460BF0ADFB002824D1A87C002805D0FF
:101AA000002F1FD148480A380178C4E7A87E0028D3
:101AB00002D0307C002801D00020F8BD002F11D1C9
:101AC000307E002803D03AA1424813F034FB0026B0
:101AD00066700A203B4920700622091FA01C13F0E3
:101AE0008EF9AE760120F8BD10B53648017E00298A
:101AF00008D1007C012805D001210020FFF743FF19
:101B0000002801D0072010BD012010BD10B5012410
:101B10000AF0ACF90443FFF7E7FF044301F04CFA85
:101B200001462143084610BDF8B51D4614460E4631
:101B300008F0E5FD002807D0684608F0EBFD002816
:101B400003D0002C07D101E00120F8BD214818A1E5
:101B5000303013F0F0FA08F089FDA04204D22720BB
:101B600013A1000113F0E7FA009808F0F7F93146E5
:101B7000009808F005FAE2B22946009808F0BCFB8C
:101B800008F0DAFD002804D1124809A1403013F012
:101B9000D2FA01F013FA0E4800244030417C0029AB
:101BA00002D044740AF04DFA0948C480CCE7000022
:101BB0007372635C6C6C5F6374726C2E73302E6333
:101BC00000000000200300202C0000209B060000E5
:101BD000D80100203F02000010B50179002908D08B
:101BE00001290BD0FF20FE49043013F0A4FA002095
:101BF00010BD831D42880488022103E042880488C6
:101C0000831D01212046FFF78FFF10BDF8B51F4649
:101C100015460E46044609F04FFC022803D0F14851
:101C2000007C00281FD0F0488089208008F08EFEBC
:101C3000002803D1EA49ED4813F07DFA05246846EF
:101C400008F08FFE00280ED0009808F0D1F930700F
:101C5000022809D0012807D008F0C3FE641E24061C
:101C6000240EECD10020F8BD3946009808F05CFB4A
:101C70002880002804D1DD48D949123013F05BFADE
:101C800008F0AFFE002804D1D848D549193013F028
:101C900052FA0120F8BD38B50446831D821C6946FE
:101CA000FFF7B4FF00280DD000206071684600786F
:101CB000012808D0022806D0FF20C949253013F09A
:101CC0003AFA012038BD2071FBE700215BE670B5D0
:101CD000C44C0546403C2078002803D1C148007E12
:101CE000002803D0BE49C24813F025FA09F0E4FBEE
:101CF000032808D009F0E4FB032804D0287808F072
:101D0000EEFF002000E00C202071012060713D21D9
:101D1000E170207070BD70B5B24C0546403C207833
:101D2000002803D1AF48007E002804D0B048AC4959
:101D3000AE3013F000FA287808F0C0FF28780BF0D6
:101D400043FC00202071012060713921E170207076
:101D500070BD70B5A34D0446403D2878002803D1DE
:101D6000A048007E002804D0A1489D49963013F079
:101D7000E2F99D4E2188B089884203D109F09CFB8D
:101D8000022807D002202871012068713821E970EB
:101D9000287070BD7F2070769348E17820304174C0
:101DA000A17801740020EEE710B58E4C403C2078FD
:101DB00000280BD18B48007E002807D109F07CFB5E
:101DC000032803D009F07CFB032804D18748844909
:101DD000653013F0B0F9834900202031C8712071BB
:101DE000012060713A21E170207010BD70B57D4C0A
:101DF0000646403C207800280BD17A48007E002817
:101E000007D109F059FB032803D009F059FB032837
:101E100004D165207249C00013F08DF9714D203551
:101E2000E87908280CD2E8791022000100196830FE
:101E3000314600F02AFEE879401CE871002000E0FD
:101E400007202071012060713B21E170207070BD7E
:101E5000F8B5644D0446403D2878002803D1614818
:101E6000007E002804D062485D495C3013F063F9BD
:101E70005D4F2188B889884203D109F01DFB0228F3
:101E800001D0022022E03E8C64887200788CF98BAD
:101E9000521C944217D3574A51439200504313F0B7
:101EA00028F8401EFF2180B2F531884200D908464B
:101EB000844200D22046711C401C13F01AF8761C94
:101EC0007043401E86B2FE85EE80002028710120FE
:101ED00068713C21E9702870F8BDF8B5414C0546A1
:101EE000403C2078002803D13E48007E002804D0E2
:101EF0003F483B49303013F01EF9A878002801D044
:101F0000012804D1A888FF21F531884204D9384836
:101F10003349363013F00FF9334E2988B08988429F
:101F200003D109F0C9FA022807D00220207101204C
:101F300060713621E1702070F8BD2B4800272030F9
:101F40008772A988B18501213176A978012900D04D
:101F50000021817224484030407C002801D00AF0E2
:101F600070F82771E3E770B51E4C0546403C2078B9
:101F7000002807D11B48007E002803D109F09CFAF5
:101F8000002804D01A4816490D3813F0D4F82878E0
:101F900009F06FFF00202071012060713021E17095
:101FA000207070BD70B50F4C0546403C207800286D
:101FB00003D10C48007E002804D00D480849BB30EE
:101FC00013F0B9F82878002818D0012816D0022874
:101FD00014D06878402811D305480149C2300BE07D
:101FE000B01B000020030020D8010020AD0200003B
:101FF00073050000C409000013F09DF8284609F09D
:1020000052FA002801D0002000E00C2020710120AD
:1020100060713421E170207070BD70B5FE4C0546D2
:102020002078002808D120464030007E002803D1C7
:1020300009F042FA002803D0F849F94813F07BF878
:102040002978002914D00A2912D0142910D01E2969
:102050000ED028290CD032290AD04B2908D0642967
:1020600006D0FF2904D0EE48EC490E3013F063F897
:10207000284609F07DFF0020207101206071332186
:10208000E170207070BD70B5E34C06462078251DC8
:10209000002804D120464030007E002804D0E048CB
:1020A000DE49363813F047F83146002008F0DBFDF2
:1020B0002870002804D106223146DA4812F09FFE2B
:1020C000012060713221E170207070BD70B5D24C7A
:1020D00005462078002804D120464030007E0028A4
:1020E00004D0CF48CD494E3813F025F80021695669
:1020F000042914D0002912D0081D10D0001D0ED0C4
:10210000001D0CD0001D0AD0001D08D00A3006D0DA
:10211000283104D0C248C1494C3813F00CF8C248E9
:1021200029780170012060713121E170207070BD4B
:1021300010B5B94C2078002804D120464030007EEC
:10214000002804D00720B549000212F0F4FF08F07F
:102150008DFAE08008F052FB2072002020710120EF
:1021600060710521E170207010BDF8B5AA4C0746DA
:102170002034A07B25462035002805D1287E002864
:1021800002D1A878002804D0A548A449783812F0D4
:10219000D2FF09F091F91026022822D1A3483988EC
:1021A000808988421DD19C49483908460A7F603899
:1021B000807A002A03D080070CD40C200CE0800722
:1021C00008D40620087799484030407C002801D088
:1021D00009F037FF2E760020E07326740120A073EB
:1021E000F8BD0220F8E710B58B4C2078002804D108
:1021F00020464030007E002804D0894887498A382C
:1022000012F099FF002020710E20A0700F20E070C6
:10221000FF20A0710020C04320818248C01D0178AA
:10222000A1728188A1814088E081012060712070C5
:1022300010BD10B5784C2078002804D120464030DD
:10224000007E002804D0DF207449800012F073FF64
:102250000821A01D0FF01CFB0020207101206071DF
:102260002B21E170207010BD70B56B4D04462878AD
:10227000002804D128464030007E002804D0C92020
:102280006649C00012F057FF6848102221463038D6
:1022900000F0FBFB65481022A118203800F0F5FB88
:1022A000624830380FF0FBFB6049102210392C4691
:1022B000A81D00F0EAFB002020710E20A0702A204B
:1022C000E07001206071207070BDF8B5524C054679
:1022D0002034A07B26462036002802D1307E0028FC
:1022E00003D04E49524812F026FFA978052912D092
:1022F000132910D014290ED015290CD01A290AD070
:10230000292908D03D2906D03B2904D04848434913
:10231000083012F010FF28884649884204D9444802
:102320003E49113012F007FF09F0C6F80C212827AA
:10233000022809D13D482A888089904215D1364823
:102340004838027E002A01D0E17310E0A978417676
:102350000121017637760020E07334484030407C1C
:10236000002804D009F06DFE01E00220E07327741C
:102370000120A073F8BDF8B5274F064638783D1DFB
:10238000002804D138464030007E002804D0284878
:102390002249163812F0CFFE3146012008F063FCC6
:1023A00001242870002807D11B48062260303146DE
:1023B000054612F024FDAC717C711720F8703C705A
:1023C000F8BDF0B5184F85B0403F3D7A064612483B
:1023D0000078002804D13846A038007E002803D0B9
:1023E0000E49154812F0A7FE3078002806D00128C3
:1023F00004D035200949000112F09DFE082D4CD271
:10240000094820380190C469307800283FD001285D
:1024100017D00249084811E0E0020020B01B00007C
:10242000890500002500002000040020D8010020BC
:1024300061040000FF0E00004F0300000F3012F097
:102440007AFE294608310120884004430120A84033
:1024500020430090B179FF4C080272796900091994
:102460001043FF3101318881B01C12F029FD7178D1
:1024700000020843A9000919C031C862387A401C1B
:10248000387201990098C8610020207108E029463F
:102490000831012088408443D8E7EE4807210171C4
:1024A0000121EC480B224171C270017005B0F0BDF2
:1024B00010B5E84C2078002804D120464030007E3A
:1024C000002803D0E449E54812F035FE12F032FF4F
:1024D00000202071012060710A21E170207010BD80
:1024E00010B509F05EFC002804D0DC48DA49583801
:1024F00012F021FE00F05EFD08F09BF80AF0FFFEEE
:10250000002804D0D548D4494A3812F014FE08F007
:10251000EAFA002804D0D148CF49463812F00BFE21
:1025200012F008FFCE4800240470FFF75AF9C9489A
:102530000121047141710222C270017010BD70B599
:10254000C44D04462878002804D128464030007E37
:10255000002804D0C148C0498E3012F0ECFD20782C
:102560001F2801D8601C04D13D20BB49000112F096
:10257000E2FD002028712078611C08F08EFB01200C
:1025800068712021E970287070BDF8B5B14C06461D
:10259000207825464035002802D1287E002804D026
:1025A000AE48AD499C3012F0C6FD3078012806D007
:1025B000002804D0A948A8499D3012F0BCFD012094
:1025C00060710C20207130780027A64E012808D0B9
:1025D00008F072FF032867D008F072FF032871D05B
:1025E00076E008F069FF002803D108F069FF0028B1
:1025F00004D008F061FF02283DD069E008F0B8FA85
:10260000002865D0287C002862D1964802210C3031
:102610000FF0C7F8002806D00F21B089090212F088
:1026200068FCB18100E0B781012203218D4807F0E9
:10263000A3FE8C4808F042FCB08908F019F8002885
:1026400004D186488449B83012F075FDB089002164
:1026500000F0B8FC002804D080487F49BC3012F05C
:102660006AFD297F688B09F008FC00282FD07B4881
:102670007949C03015E008F023FF002828D1287FD1
:10268000002825D0012823D008F072FA00281FD096
:10269000297F688B09F0F1FB002818D06F486E493C
:1026A000D33012F048FD12E0002009F019FB002899
:1026B0000ED12771287C00280AD1B089FFF772F863
:1026C00006E0FFE7002009F00BFB002800D127718E
:1026D0001B20E07001202070F8BD70B55D4D0446F0
:1026E0002878002804D128464030007E002804D0F5
:1026F0005A485949803012F01EFD20781F2801D811
:10270000601C04D155485449813012F014FD00205A
:1027100028712078611C08F0D4FA012068711A2110
:10272000E970287070BDF8B54A4D044628780C272A
:102730002E46403600280AD1307E002807D108F006
:10274000BBFE032803D008F0BBFE032804D1712090
:102750004149C00012F0EFFC6079002801D0012847
:102760002FD1A079002801D001282AD1A07B0028F0
:1027700005D0012803D0022801D0032821D1607B95
:1027800040071ED0618801208003814202D8228840
:10279000824201D920790CE02079002804D0022857
:1027A00005D0032803D004E0202904D209E0A02AA0
:1027B00001D2012805D12088884207D92079012833
:1027C00004D0264824495C3012F0B5FC2088708380
:1027D000207930776079002802D0012803D00CE0FE
:1027E000214A002105E01B4A60329079002804D07C
:1027F0000121204608F0C0F9074601202F716871B9
:102800001821E9702870F8BD70B5124C0546207883
:10281000002804D120464030007E002803D00E4915
:10282000124812F088FC08F047FE0C2102280ED155
:102830000C482A8883899A4228D10246C032137FE5
:10284000002B04D1807E0E2812D00F2810D02171C9
:1028500012E00000E0020020B01B00004103000075
:1028600000040020D801002025000020D40400002E
:1028700005201077002020710E20A0702E20E0701F
:102880002888E08001206071207070BD0220F2E78E
:1028900070B5844C05462078002804D1204640308D
:1028A000007E002804D095207F49C00012F043FC30
:1028B00008F002FE0C2102280ED17C482A88838968
:1028C0009A421FD10646C036327F002A04D1807E4C
:1028D0000E2803D00F2801D0217109E07148102281
:1028E000A91C1E3812F08BFA0420307700202071CA
:1028F0000E20A0702D20E0702888E08001206071FB
:10290000207070BD0220F2E710B501780B0012F0C4
:1029100003FD3E8B8B388B8B588B8B8B8B3B3E8B8D
:102920008B8B51548B8B8B8B8B8B42288B2C308BCE
:102930008B8B8B348B8B8B8B8B8B8B468B4A4E8B01
:1029400020248B6B5B5F63678B6F8B7E827B7773DF
:10295000868B801CFFF79CFF64E0801CFFF754FF10
:1029600060E0801CFFF7DFFE5CE0801CFFF7B5FE37
:1029700058E0801CFFF709FE54E0801CFFF7DFFDE4
:1029800050E0FFF7ADFD4DE0FFF792FD4AE0801CFF
:10299000FFF717FD46E0801CFFF7EDFC42E0801CCE
:1029A000FFF793FC3EE0801CFFF75EFC3AE0FFF788
:1029B00040FC37E0FFF717FC34E0801CFFF7D5FB45
:1029C00030E0FFF7B5FB2DE0801CFFF77FFB29E02F
:1029D000801CFFF758FB25E0801CFFF71EFB21E061
:1029E000801CFFF7DFFA1DE0801CFFF7BCFA19E03E
:1029F000801CFFF772FA15E0801CFFF729FA11E03E
:102A0000801CFFF7F3F90DE0FFF7CEF90AE0801C18
:102A1000FFF79FF906E0801CFFF77DF902E0801CBC
:102A2000FFF755F9012010BD002010BD10B51E495B
:102A30001F4812F080FB10BD70B51A4A01241146E0
:102A40001A4D4031030012F067FC05191C1C0419D3
:102A50001C0001220021154807F08EFC11480021BE
:102A6000483801774177C03809F083FA002804D04C
:102A70000F480D49D33012F05EFB70BD0C745565E4
:102A800070BD3B2008494001F5E730B5134606E02C
:102A9000CC18203CE47FD51A44555B1EDBB2002BDA
:102AA000F6D130BDE0020020B01B0000D8010020AC
:102AB0005A06000010B56038030012F02DFC0A061B
:102AC0000A0F13181F262A31363B086800F06DFDE7
:102AD00010BD05C9114600F087FD10BD086800F063
:102AE00026FE10BD05C9114600F02EFE10BD4B6834
:102AF00008788A68194600F03FFE10BD4B688A6866
:102B00000868194600F059FE10BD086800F074FE10
:102B100010BD08884A6880B2114600F0C4FE10BD9E
:102B200005C9114600F0E4FE10BD05C9114600F0CC
:102B3000F7FE10BD012010BD10B56C2801D001209A
:102B400010BD087800F092FE10BD000001203F4942
:102B5000400608603E4908603E490A68FF231B02A0
:102B60009A4383121A430A603849803908607047D3
:102B700010B502460420384904E0C3005B181B79F5
:102B8000002B0AD00346401EC0B2002BF5D133A162
:102B9000432012F0D0FAFF2010BDC300CA5000221B
:102BA00059184A718A7101220A7110BD2A4A0021FE
:102BB000C00080180171704710B50446042803D383
:102BC00026A1522012F0B7FA2348E1000C18207910
:102BD000012803D021A1532012F0ADFA6079A17928
:102BE000401CC0B2814200D06071012017494006EC
:102BF0008031086010BD70B5164800680004800F71
:102C0000022803D015A1692012F095FA124E194C32
:102C100003252078C10088190279012A07D1427959
:102C200083799A4203D04279827170588047207824
:102C3000401CC0B22070042801D300202070284618
:102C40006D1EEDB20028E4D170BD000080E100E00F
:102C500080E200E018E400E02C1200207372635C54
:102C6000736F635F7369676E616C6C696E672E6307
:102C7000000000003C0000208107C90E002808DA8F
:102C80000007000F083880082C4A80008018C069AF
:102C900004E080082A4A800080180068C8400006C6
:102CA000800F704710B50D20FFF7E6FFC4B2042077
:102CB000C043FFF7E1FFC0B2844203D021A11A2034
:102CC00012F039FA10BD0121234A48031060234B4A
:102CD00000221A60224A5160224A1060224A116082
:102CE0001D4980390860704701211B4A4803106064
:102CF0001D4A5160194A002111601A490860704745
:102D000010B516490868012804D00EA1562012F00B
:102D100012FA10BD154880680022C0B20A600EF099
:102D2000DDFD10BD10B50D4801680029FCD0FFF78E
:102D3000E7FF01200B494003086010BD00ED00E0F3
:102D400000E400E07372635C736F635F68616C5FE3
:102D5000726E672E6300000080E100E000D1004049
:102D600000D3004080E200E000D0004000D50040E9
:102D700010B510F038FA10BD00200449C8630120D6
:102D800001218140024A116000BF7047C01F00400E
:102D900080E200E00E4A12680C498A420AD11847C4
:102DA0000B4A1268094B9A4204D101B50EF0B1FEEC
:102DB00003BC8E4607490968095808470648074971
:102DC000054A064B7047000000000000BEBAFECA6C
:102DD0001C01002004000020981D0020981D0020E8
:102DE0002E48002101704170704770B506461446A8
:102DF0000D460120FEF770FC28490120284B087081
:102E00009E60DC601D6170BDF8B504460120FEF7D0
:102E100063FC22490120087021494C6021490026A9
:102E20004E600321204D8902A960204F002C0AD05A
:102E3000012C03D01EA1402012F07DF93E6003203A
:102E400080026860F8BD386001208002F9E710B5A3
:102E50001248017800290ED00321134A890291609B
:102E600010494A680021002A03D0154A12684270AE
:102E700000E0417001700020FEF72EFC10BD0748F5
:102E80000178002907D007484068002802D00C4884
:102E90000068C0B2704740787047000061000020B1
:102EA00000F5004000F1004000F5014000F2004054
:102EB0007372635C68616C5F63636D2E6300000016
:102EC00000F40040364800210170417010218170EB
:102ED000704770B5064614460D460220FEF7FCFB0F
:102EE00001202F492F4A0870E41E14619660556036
:102EF00070BD10B50220FEF7EFFB294901200870D4
:102F0000294800210160416081602849C01448605F
:102F100010BD10B5224C2078002811D00120234983
:102F2000C002886000F02EF80021002804D00120A3
:102F300060701F48006801E061701020A07021706F
:102F40000020FEF7C9FB10BD10B515480178002917
:102F500005D000F017F8002800D0012010BD4078FF
:102F600010BD10B50E480178002909D000F00AF80C
:102F7000002803D00E480068C0B210BD102010BD5C
:102F8000807810BD08480168002905D041680029F3
:102F900002D08068002801D00020704701207047CF
:102FA0006300002000F5004000F1004000F5014002
:102FB00000F4004070477047FF207047704770472B
:102FC00000207047002070470020704700207047A5
:102FD0000020704700207047002070470020704795
:102FE0000020704701207047002070470020704784
:102FF0000020704700207047704770477047704747
:1030000010FFFFFFDBE5B15100600100FEFFFFFF95
:1030100003B40148019001BD09000020FE49487039
:10302000704710B5030012F077F9080E050E080876
:103030000B0B0E1104F0D5F910BD0CF0B3F910BD57
:103040000EF096F810BD01F0CCFF10BDFF20F3A1EB
:10305000713012F070F810BD7FB5F449054648682C
:103060008968082301910090F14A1946F1480EF051
:1030700039FE0024F0480EF053FE641CE4B2082C24
:10308000F8D3EB490320803140020CF0DDF9002831
:1030900003D0E2A1962012F04EF81E220221E7484A
:1030A0000AF08DFDE5481E22032110300BF001FBD4
:1030B000E2480722342174300AF0DAFCDF484C2160
:1030C000283011F0FBFEDD496A46743108464C3861
:1030D0000164FF317B31416401211172039002F0E0
:1030E00013FA02A80CF0FEFC002803D0CBA1AA2002
:1030F00012F021F8CF4802222421A8380AF0B8FCA7
:10310000CC4802222C215C380AF0B2FCCC490B20BE
:103110000EF030F9002803D0C0A1B72012F00BF850
:1031200004F04CF903F050FB04F0B2FF6B460022B0
:103130000821C4A002F0A4F8002803D0B7A1BE2043
:1031400011F0F9FF284605F0C9FA002803D0B3A111
:10315000C02011F0F0FF8521C900BD4811F0AEFE7E
:10316000BB49B24A0020135C0C18401CC0B2E3708B
:103170000428F8D3A849002048608870C8707FBD33
:1031800070B5B44E0546706A94B00C46401C04D12C
:10319000B06AC0430004000C0BD0306AC007C00FF7
:1031A0002870706A11F09DFEB06A2071000A60718B
:1031B00013E02B206946087009A968460AF09EFCB6
:1031C000002803D095A1E42011F0B5FF012028705C
:1031D00006220AA9204611F012FE2878002803D002
:1031E0006079C0210843607114B070BDF0B5994C8E
:1031F0000646206895B00D463746401C0837002823
:1032000008D16068401C05D1A068401C02D1E0686C
:10321000401C11D02068314611F063FE6068311DFA
:1032200011F05FFEA068394611F05BFEE0683146A0
:103230000C3111F056FE25E02B206946087009A9D3
:1032400068460AF05BFC002804D0FF2073A10E3012
:1032500011F071FF08220AA9304611F0D0FD2B2091
:103260006946087009A968460AF048FC002804D09D
:10327000FF206AA1153011F05EFF08220AA9384626
:1032800011F0BDFD20692E46401C0836002808D1EB
:103290006069401C05D1A069401C02D1E069401C56
:1032A00012D02069294611F01CFE6069291D11F019
:1032B00018FEA069314611F014FEE06929460C3170
:1032C00011F00FFE15B0F0BD2B246846047009A95B
:1032D0000AF014FC002804D0FF2050A1333011F074
:1032E0002AFF082209AF0AA9284611F088FD68467E
:1032F000047009A90AF002FC002804D0FF2047A1AD
:103300003A3011F018FF0822391D304611F077FDD0
:10331000D8E710B5002108460EF0BAFD00210120C3
:103320000EF0B6FD002102200EF0B2FD00210320B8
:103330000EF0AEFD002104200EF0AAFD00210520B4
:103340000EF0A6FD10BD10B5414CA0780B2804D39B
:10335000FF2032A18A3011F0EEFE20786021484330
:1033600000190830002101704178E722C908C9001E
:10337000C91C11404170284A0121917010BD70B5DF
:10338000254CA07800280ED0314800250178491C32
:10339000C9B201700B2900D105708178491C817078
:1033A0000EF041FEA57070BD70B51B4C05466068FF
:1033B000002804D0FF2019A1B33011F0BCFE6560D5
:1033C00070BD70B5144E224DFFF7BDFF7168044605
:1033D000002907D06022FDF7F7FEFFF7D0FF00209D
:1033E0007060F1E72879002876D012485C380AF03E
:1033F0004FFB6060002804D1FF2008A1D13011F0FC
:103400009AFE60680AF0A2FB002831D0204601F045
:1034100095F8607801071FE0340000207372635C48
:10342000686F73745F636F72652E630044530100AD
:10343000040400200C12002023300000840A002025
:10344000B41000206E524635313832320000000090
:103450008C0C00208000001007D5C008C000401C64
:1034600060702879401E287127E0F74861682AE0DB
:10347000F54861680AF015FB687900282CD0F248FD
:103480004C380AF005FB6060002804D1FF20EF49AA
:10349000F43011F050FE60680AF05CFB002816D092
:1034A000204603F0DDFF6078010709D5C008C000A1
:1034B000801C60706879401E6871FFF760FF83E7C9
:1034C000E14861684C380AF0ECFA7DE704E0DE4838
:1034D00061684C380AF0E5FA70BDF7B5054600782A
:1034E000002700090C463E46062803D0D749D84895
:1034F00011F021FE287A00280ED0012814D0D448DB
:10350000D249213011F017FE0298002C068001D01C
:10351000278066800020FEBD02270926002C0ED0E1
:10352000A889A080A87B08E003271426002C06D0D9
:103530002869E060A88A2082287B2072E4E702984C
:103540000680E7E770B50E4600211C461980154637
:10355000030011F0E1FE0723050B1711231D2300C3
:1035600022462946304603F047FF70BD22462946D1
:10357000304601F09FFA70BD22462946304604F0DD
:1035800082FC70BD22462946304603F051F970BDD9
:10359000224629463046FFF7A0FF70BD9720AB4971
:1035A000800011F0C8FD032070BD10B5A94C217832
:1035B000002901D0082010BDFFF74EFD012020702A
:1035C000002010BD0146A04810B54C380AF069FA39
:1035D000A1494879401CC0B24871012803D19D48D7
:1035E0004078FFF7E9FA10BDF8B505460720400717
:1035F0000F460A18012189038A4209D2002D02D000
:103600002818884204D2E81C80088000A84201D013
:103610001020F8BD90488178002911D03988009198
:103620004178602251430C18083420783B4600074B
:10363000000F00222146FFF785FF060004D015E0A9
:10364000002038800520F8BD002D13D0398800985F
:10365000814201D90C260DE020783B460007000F7F
:103660002A462146FFF76EFF060005D00C2E01D03A
:10367000002038803046F8BD774D6878401CC0B2D5
:1036800068700B2801D100206870A878401EA870CF
:1036900061784807400F022810D00128EAD16A4813
:1036A00061680AF0FEF92879401CC0B2287101282F
:1036B000E0D168484078FFF77FFADBE7C806D9D445
:1036C0006068FFF77FFFD5E770B50446634816468C
:1036D0000D46814204D15E485C49C53011F02BFD96
:1036E000012E05D05A485949D53011F024FD70BD3E
:1036F00058480121C1706620207000202072A581E9
:10370000A17370BD70B516460D46040001D1FFF7D8
:103710001AFE662101700121017229680161A988E0
:1037200081820673002C01D1FFF729FE70BD0721AD
:103730004907012241189203914201D3102070479A
:103740000721017000207047454A10B590420ED302
:1037500001239B04C21A434B9A4208D3424B98421E
:1037600005D2072252078A18DB139A4201D3102090
:1037700010BD0DF038FE10BD394B10B599420ED377
:1037800001239B04374CCB1AA34208D3364B9942F2
:1037900005D2E3020124D318A403A34201D31020CD
:1037A00010BD022803D0102801D0092010BD0DF053
:1037B00040FE0028FAD0052010BD70B5284B984275
:1037C00012D301239B04274CC31AA3420CD3264BCC
:1037D000984209D2E4020D19DB139D4204D2002A5B
:1037E00004D014199C4201D3102070BD0DF047FE87
:1037F0000028FAD0072070BD10B504460720400706
:1038000001212018890394B0884202D3102014B0FB
:1038100010BD01F0C7FE002801D01120F7E70F20EE
:1038200008A9087369460BA80AF068F90028EED1C8
:103830006846007A207068464089608068468089C2
:10384000A0800020E3E70000B01100201C3400003D
:1038500015020000340000208C0C0020FFFF000047
:10386000006001000000FC1F0040002010B594B073
:10387000044601F097FE002801D01120C7E7002C74
:1038800001D00720C3E7392168460170002181700B
:1038900009A90AF033F9002803D02B492B4811F06D
:1038A0004AFC0020B3E770B5294C0846E1780029AE
:1038B00013D000280FD007225207012385189B033D
:1038C0009D4203D20568AA189A4201D3102070BD08
:1038D0008288002A03D0012903D0082070BD092066
:1038E00070BD04F039FC0028FAD10021E17070BDF0
:1038F000184A10B5914208D301229204164B8A1A35
:103900009A4202D3154A914201D3102010BD0246BB
:10391000203A1F2A02D801F053FD10BD072010BD28
:1039200007225207012310B58A189B039A4201D33C
:10393000102010BD0246203A1F2A02D801F0C5FD12
:1039400010BD072010BD00001C34000079030000EA
:1039500034000020006001000000FC1F0040002037
:1039600010B5EFF31080C407E40F72B6D648417863
:10397000491C41704078012801D10EF079FB002CE0
:1039800000D162B610BD70B5CF4CE07800280AD1E6
:103990000125E570FFF7E4FF0EF072FB002804D06C
:1039A00000200EF045FB002070BDC84865714560E1
:1039B000F9E770B5EFF31080C507ED0F72B6C24C92
:1039C0006078002803D1C2A18F2011F0B4FB607889
:1039D000401E60706078002801D10EF04DFB002D74
:1039E00000D162B670BD10B5B748C178002904D0C7
:1039F00000214171C170FFF7DCFF002010BD10B540
:103A000004460EF03DFBB049C978084000D00120C3
:103A10002060002010BDF8B50246AB4C0026A67110
:103A20000820042101251027130011F075FC0D0852
:103A30000A0C0E101214161E2621232528002571AB
:103A400022E0022001E021711EE020711CE02771BC
:103A50001AE02020F9E7012616E0FFF781FF0EF0BB
:103A60000FFB0028FBD002260EE02171A5710BE0B0
:103A70002771FBE7202000E040202071F6E7FF20BF
:103A800093A17E3011F057FB0EF006FB002809D001
:103A90000EF008FBB04205D130460EF006FB0028C0
:103AA000FAD024E001208007C5608D4A00215160D2
:103AB0008C4A9661854B02225A6085608A48036968
:103AC0000569DB43DB06DB175B1C10273D43056103
:103AD000834D00E020BF6F68002FFBD0002B03D187
:103AE000076910239F430761784882606960A07965
:103AF00000280CD00EF0C4FA05460EF021FA7B4ADD
:103B0000002D02D0A260E06001E0E260A060002E23
:103B100001D100F0B1F8F8BD10B504460EF0B6FAC8
:103B2000002805D068490120C8704A78521C4A70A4
:103B30002046FFF770FF10BDF8B5694FB868002543
:103B4000012802D1BD600EF073FA7868012800D117
:103B50007D60386801265C4C012814D13D60607995
:103B6000002803D000200EF063FA65712078002849
:103B700009D00EF085FA002805D05948C038866370
:103B800000060661A670386901282CD13D6100F05D
:103B900068F8012080074661A079002815D00EF052
:103BA0006FFA00900EF0CCF90099002901D0E1687D
:103BB00000E0A168411A022901DA8A1C13DC00998D
:103BC000002901D0E06000E0A060FFF7C9FE0EF020
:103BD00057FA002806D04248C038866300060661BE
:103BE000A67000E02670F868012819D100F039F8B5
:103BF00000F037F800F035F8A078002804D1FF2055
:103C000033A1053011F097FAFD60A5702570FFF71C
:103C1000D0FE0DF00CFD002802D03148C038C6633C
:103C2000F8BD10B5284CE078002801D10EF024FA38
:103C300001208107886100F014F8A07800280BD0DB
:103C4000274CE068002803D10EF02FFA0028F8D1A5
:103C50000020E06000F005F800201C49C0438860A7
:103C600010BD08B55020694608806A461088411E7C
:103C700011800028F9D108BDF8B5144819278760CC
:103C8000174900200860C8600EF0FAF9BD0701244A
:103C90000D4E002805D01248C03884632C61B470E2
:103CA00000E03470FFF75CFE084847600D4930794A
:103CB0008863FFF7D6FFAC61FFF7D3FF0849002008
:103CC00008616C61F8BD0000400000200003004066
:103CD0007372635C736F635F636C6F636B2E6300FF
:103CE000000100400005004000ED00E0FFFFFF7F05
:103CF00030B40121BC48C9020160CD1005604A03FF
:103D00000260BA4803681B021B0A036004680023B0
:103D1000240A24020460B6480468240A24020460C9
:103D2000B448012444608460B34C23606360A360A2
:103D3000B24B19601D601A60B14B19601A60012105
:103D4000016030BC704710B40121A748CC02046068
:103D50000A0202600B060360A64841608160A64922
:103D60000020086048608860A44804600260036026
:103D700010BC70470121A148C9020160C91001604F
:103D80007047002805D0012805D0022805D19D489C
:103D900070479D4870479D48704710B59CA18B2087
:103DA00011F0C9F9002010BD70B500219F4CA04D45
:103DB000A04A914B002808D001281DD0022822D00B
:103DC00093A1B32011F0B7F970BD01200004A060E9
:103DD000A86011601960984B42109A60974A9060F1
:103DE000814A00121060964801608748016095483A
:103DF00001609548017070BD01204004A060A8607A
:103E00005160596070BD01208004A060A86091607D
:103E1000996070BDF8B59446844A854D0024012709
:103E2000754E002808D0012836D0022844D078A149
:103E3000E82011F080F9F8BD891E0902090A012065
:103E400000049060346068607A4A1160012B21D0D0
:103E500000217D4A7D4B517061463D31DC63DF635B
:103E60007B4B5C6002249C6004241C61744B1960D1
:103E700074490F60614B89151960704B5860604838
:103E8000016075487349C16086606B496003486092
:103E90001770F8BD0121DCE701205C4E40046F4F34
:103EA000012B04D13460506068603960F8BD9060C7
:103EB000346068603960F8BD0120524E8004684F5C
:103EC000012BF4D1EEE767484068704770B54A4D62
:103ED00028680026554C012806D1A068C00303D5E8
:103EE00001200004A0602E606868012809D1A06844
:103EF000800306D501204004A0606E6001200FF011
:103F0000AEF8A868012809D1A068400306D50120B1
:103F10008004A060AE6002200FF0A1F870BD10B563
:103F200049490878002818D00120434AC00390600E
:103F3000424A400090602C4A00121060404A002023
:103F40001060314A10603F4A106008704A78002AB9
:103F500002D048700FF083F810BD0320FAE701206B
:103F600041490006086070470120244900060860A6
:103F7000704701203C4940050860704701201F49F7
:103F800040050860704731490020C86388151B4907
:103F900008607047410A354AC005C00D5043801C77
:103FA0005143400A0818704710B4314C430B634327
:103FB0001B0C5C020C602D4C6343C31A2D485C0241
:103FC00058432A4B400D4343E31A0124DB032404E6
:103FD0001B191B1613700A681018086010BC704774
:103FE00010B50FF014F910BD80E100E008E400E026
:103FF00018E400E000B0004040B1004080E200E082
:1040000000E100E048B100404081004044B1004080
:104010007372635C72656D5F68616C5F6576656E17
:10402000745F74696D65722E6300000000B3004018
:1040300040B3004040B5004000F50140008300401F
:10404000408500400082004050000020C08F0040AA
:10405000008500400080004080F5014044B50040EC
:1040600048B5004000B5004000E200E0093D000016
:10407000378600006F0C010010B5FA4C94B021682F
:10408000087A002836D017206A46107000A8062249
:104090000931023010F0B3FE09A9684609F02EFD7F
:1040A000112825D02168C0318979062920D0072917
:1040B0001ED008291CD004291AD0092918D00A2991
:1040C00016D00B2914D0052912D0002803D0E6A160
:1040D000F32011F030F82168B820405806221C3037
:1040E000093110F08CFE2068017A8030806BC17637
:1040F00014B010BD3220C7E770B5DA4D0446296808
:104100000300C03111F008F90C077C0B1A212E3B7B
:1041100048515C677080FF20D3A109306EE0887938
:1041200001286DD009286BD0052869D00A2867D0EE
:104130000B2865D0FF20CCA10E305FE088790128E4
:104140005ED0FF20C8A1153058E08879062857D0E6
:10415000072855D0082853D0052851D0FF20C2A1E8
:1041600018304BE0887909284AD00A2848D00B2813
:1041700046D0042844D0FF20BBA11E303EE0887901
:1041800003283DD007283BD0082839D0092837D04C
:10419000FF20B5A1243031E08879062830D00A28E4
:1041A0002ED0FF20B0A12A3028E08879062827D019
:1041B000072825D00B2823D0FF20ABA12E301DE0EF
:1041C000887906281CD00A281AD00B2818D0FF207E
:1041D000A5A1333012E08879092811D00A280FD020
:1041E000FF20A1A1383009E08879092808D00A28E1
:1041F00006D0082804D0FF209BA13C3010F09BFF84
:104200002868C030847170BDFF2097A14130F5E768
:104210009449C9220968525CD206920F05D1A03197
:104220008A8B824201D1887F70470020704770B529
:1042300004461120207000218A4D61702968C03128
:10424000897A002908D003290ED0042910D0FF2034
:1042500085A16A3010F06FFF20780009012802D98B
:104260002868807D607070BD0007000F203002E07C
:104270000007000F30302070EEE730B503887E492C
:104280007E4C8B4202D09A1FA2421ED242888A42A2
:1042900002D0951FA54218D2934216D883887D2458
:1042A000E400A34211D8C088884205D0734D04466B
:1042B0000A3C2D1FAC4208D2884208D08A4206D060
:1042C0005B1C5A43C000824201DD072030BD002044
:1042D00030BDFFB50022099B002802D0994205DCC1
:1042E0005CE0002902D1002004B0F0BD0920FBE70A
:1042F000845C002C12D085186F780D2F4CD010DC08
:104300003B0011F009F80A421B2A2A303032323AB7
:104310003A42835C002B3FD1521CD2B28A42F8DB76
:10432000E1E7122F31D004DC0E2F35D00F2F2CD126
:1043300032E0142F11D0152F27D116E0022CD5D141
:10434000AB78039C072B237001D25B0701D40A20B2
:10435000CAE7029B01241B7814E0E343DB0708E073
:10436000012C08D011E00620BEE70F2523072D07FA
:104370005B19002BF4D03046B6E7029B1B789C07F4
:104380000AD402242343029C2370835C521C9A1893
:10439000D2B28A4204DDA9E70B20A5E719267602EE
:1043A0008A42A5DB9FE705E00278401C002A01D085
:1043B000002070470A46491E89B2002AF4D1012024
:1043C000704730B5274D0021286887B0C943A03019
:1043D000818300248477214606200DF059FD0021B9
:1043E00005200DF055FD002102200DF051FD0120AA
:1043F000FFF782FE28686946C030C471047201204C
:10440000087068460BF08FFB07B030BD30B5154C17
:1044100095B02268C0329279042A0CD0052A0AD0BD
:1044200028236A4613705080132906D03B2904D0F4
:10443000072015B030BD0820FBE71171104609A90F
:1044400009F05CFB05000BD12068C030817906299A
:1044500016D0082914D0072912D00520FFF74CFEEA
:104460002846E6E7540000207372635C6761705F62
:10447000636F72652E630000FFFF00007B0C00007D
:104480000420EBE730B587B0040003D000210720FB
:104490000DF0FEFCFE4D012128686A4601720421E0
:1044A000117003210C300DF0F3F929684022887B4C
:1044B0008006800E1043887368460BF034FB00289A
:1044C0000DD12968098A00299ED0002C9CD08B0030
:1044D0000122002107200DF036FC072801D003201F
:1044E00092E7002090E770B500250646002803D02B
:1044F000002107200DF0CCFCE54C01212068017261
:10450000062109300DF0C4F92068817B8906890EE7
:104510008173FFF7B1FD2068008A00280AD0002EC1
:1045200008D083000122002107200DF00CFC072891
:1045300002D00325284670BD0025FBE7F0B59BB0EF
:10454000040004D11920D349400110F0F4FD722079
:104550002070616800260A780825521F0127CC4880
:10456000130010F0D9FE100977DAFD7779FCFBB65D
:1045700077777777FAF9FA77C5480068C03080799D
:10458000032803D0C349C44810F0D5FD00210846D4
:104590000DF07EFC002107200DF07AFC6078BC4B0A
:1045A000284360701868102501460246C031487AD9
:1045B00028434872606885783C2D48D0858810462D
:1045C000A030877763688032DB890B8063681B8A41
:1045D0004B8063685B8A8B8085836068916BC07950
:1045E00008756168906B08311530062210F007FCE1
:1045F0000620FFF781FDA648CA210068FB220E5461
:10460000017E11400176B82109588A7A92089200F9
:104610008A724682284602F0DDFE002804D09E48B9
:104620009C491A3010F087FD284602F0EDF800286A
:1046300004D0994897491D3010F07DFD284603F0BD
:1046400039FD002806D069209249C0003EE10120D2
:10465000FFF752FD1BB0F0BD074600688E88C030E2
:104660008079062812D0072810D008280ED00428F8
:104670000CD009280AD00A2808D00B2806D0052813
:1046800004D0D5208349800010F055FD6078284380
:1046900060703868C030417A2943417280790928B6
:1046A00011D00A280FD00B280DD005280BD0FFF70A
:1046B00088FE304602F093FE304602F0ABF83046FA
:1046C00003F02EFDC6E7FFF77CFE0220FFF714FD86
:1046D000EFE70068C0308079062812D0072810D094
:1046E00008280ED004280CD009280AD00A2808D09F
:1046F0000B2806D0052804D06F206649C00010F0B2
:104700001AFD6068807902F022FF0028A2D061784B
:10471000294361706168C8809CE707460068C03023
:104720008079062812D0072810D008280ED0042837
:104730000CD009280AD00A2808D00B2806D0052852
:1047400004D055485349623010F0F5FC6078284396
:1047500060706068C18804E033E198E185E085E03D
:1047600010E03868C0300180616809894180616863
:1047700049898180002102200DF08AFB3868C03011
:10478000C67167E706460068C0308179062919D0EE
:10479000072917D0082915D0042993D0092911D049
:1047A0000A290FD00B290DD005298BD03A48394959
:1047B000793010F0C0FC3068C03080790428ABD06C
:1047C0000528A9D03068807C40063AD5606802216F
:1047D0000C30FFF7E8FD002833D060680821001D89
:1047E000FFF7E1FD00282CD03168B8204058807ACE
:1047F000800708D1CA20405C002808D1488AC20539
:1048000005D5C00703D14A8A402082434A824A8A9A
:10481000802082434A822D2268460270BC20425A80
:10482000684642801022973101A810F0E8FA09A9E1
:10483000684609F063F90028A3D017481549A0304D
:1048400044E062683068AC2192890A5261680822AB
:10485000091DAE3010F0D3FA10A805743068AE30E0
:10486000159014A80BF05FF9F4E68F710646006806
:10487000C030817906291FD007291DD008291BD0F7
:104880000429F1D0092917D00A2915D00B2905E0F0
:104890005400002068440000290300000CD00529C2
:1048A000E2D0FD49FD4810F046FC3068C030807908
:1048B0000428D9D00528D7D060688179002902D092
:1048C0008078002805D0F548F3496C3010F033FCAF
:1048D000C0E66078B8212843607030680958897A4A
:1048E0008907890F012952D1817C09064FD4017EA5
:1048F000490701D5042100E00321C03081722B203B
:104900006946087009A9684609F0F8F8002804D03B
:10491000E248E149213010F00EFC68463168008D14
:1049200088820E2210A80274DD48B82215905258D1
:10493000083242610A4660324260927902700A4649
:1049400014320261521D82601032C260133A8261D9
:104950009632C261921C0262473A4262103282620F
:104960001032C262473AC263521E0264921F503133
:104970004264816414A80CF0BFFA022815D0002804
:1049800013D0C648C4494A3010F0D5FB0DE0817CF5
:104990004906017E490701D5042100E00321C0300A
:1049A0008172002106200DF073FA3068418A0A06F0
:1049B00002D440229143418289B2802291434182B4
:1049C00048E6B8480068C0308079032804D0B3486E
:1049D000B149783010F0AFFB002108460DF058FACD
:1049E000002107200DF054FA6078AE4A2843607029
:1049F000106810250146C0314B7A2B434B72636817
:104A00009D783C2D00D122E602469D88A032977702
:104A100063688030DB890B8063681B8A4B80636826
:104A20005B8A8B8095836168826BC9791175616837
:104A3000806B08311530062210F0E1F90620FFF7EF
:104A40005BFB9848CA210068FB220E54017E11408E
:104A500001764682284602F0BDFC002804D08F482B
:104A60008D49923010F067FB284601F0CDFE0028FA
:104A700004D08A488849953010F05DFB284603F041
:104A800019FB00289CD08548834997301EE7607841
:104A900028436070DEE500290BD0888081480068DB
:104AA000C0300288CA8002880A8142884A81808890
:104AB00088817047F7B5064600780C460027010943
:104AC00082B03D46012974D0764800680090C0301D
:104AD00002296FD0072904D00A296CD06E49724888
:104AE000F3E171680A78521F130010F015FC1009E9
:104AF000B751B7B72F585847B7B7B7B7656FA5B70E
:104B00008A783C2A1BD010271625002C7ED0888856
:104B1000A0807068A21DC08920827068C089E08171
:104B20007068008A60827068408AA0827168084656
:104B30000831C07901F0D3FB0020607375E01927BC
:104B40000725002CE2D00021A17171E01127072573
:104B5000002CDBD089880091A1807168F7228979C7
:104B6000A171417A11404172009802F039FC00981D
:104B700001F054FE009803F0E1FAD1E10127092584
:104B8000002CC3D08888A080706880792072C7E12B
:104B9000888812270E252146FFF77DFFC0E11827E0
:104BA0000825002CB2D08888A080A01DFFF73FFB0D
:104BB000B6E157E0B1E179E01A270725002CA5D02E
:104BC0004888A08070680079A071A9E18A783C2AA1
:104BD000B5D010271625002C98D08888A080706842
:104BE000C08920827068C089E0817068008A608214
:104BF0007068408AA0827168607B497D4008C9075F
:104C00004000C90F08436073C00700E045E17168C8
:104C1000C00F497DA21D49084900084360737168AF
:104C200008460831C07901F05AFB1E480068C030C0
:104C3000417AEF22114056E11B270E25002C88D027
:104C40000020C043A0807068E21D407AA0717168A6
:104C50000846C91C807801F042FB61E1A9200E4999
:104C6000C00032E1307A012803D00F480A49C53824
:104C70002BE112270E2570892146FFF70CFF002C2F
:104C800090D070784007400F032887D1054800680E
:104C9000C030417AFB22CDE768440000ED030000FC
:104CA000AC1200205400002024060000F8490968D6
:104CB000A031002C01D08A8BA280327A921E130080
:104CC00010F02AFB073D4853EDEE6F05ED0013276A
:104CD0000C25002CB3D0009900224A82F168897813
:104CE0008907890F0129217A26D0490849002172B4
:104CF000FD231940F3689B785B07DB0F5B001943CA
:104D00002172E323E2801940F3681B785B07DB0E16
:104D100019432172DF231940F3685B78DB079B0E90
:104D2000194321726272F1680122C978A172017A75
:104D30001143F7221140ADE001231943D7E71527AE
:104D40000C25002C9CD0F06806220068A11D0EF0F6
:104D5000FBFEE5E016270725002C91D0317BA171E1
:104D6000017A08221BE00172DAE014271225002CD8
:104D700086D00098A21D8030806B01461531007DE1
:104D800001F0ADFAB089E081207C01210843F921CE
:104D900008402074BE480068C030017A02221143E6
:104DA000E1E717273825002C77D03221A01D10F01D
:104DB00083F80020A071207A032108432072FB2190
:104DC0000840B34909680A7E5207D20F9200104387
:104DD0002072B8204058807A800757D0A07A8A7C09
:104DE0004008D2074000D20F1043FD221040A072AD
:104DF0008B7CFB229B07DB0F10409B001843A072AB
:104E00008B7CF7269B07DB0F3040DB001843EF233A
:104E10001840A072E07A10408A7CD206D20F92002D
:104E20001043E0728A7C3040D206D20FD200104389
:104E3000E072888AA0812046102267310E300FF080
:104E4000DEFF9349A07F0968C0078A7DC00F52002A
:104E50001043A0770A7E400852074000D20F10434B
:104E6000A077084640304DC820344DC4303C3F2028
:104E7000405C22463032393101F031FA8448006812
:104E80008030806B817A890889008172804800684F
:104E9000C030017AFB22114065E737E000E038E0DE
:104EA000327B022A14D017273825002C2ED0017A05
:104EB000FB2319400172012A17D0032A17D0042AB4
:104EC00018D0052A16D07349734810F034F927E03A
:104ED00019270725002C19D0898BA1800121A171E8
:104EE000417A4908490041721AE0012000E002209D
:104EF000A07106E0707B0007000F8030A071052ACA
:104F000002D00020E0710BE00120FBE7049805804F
:104F10000CE061485F490A30D7E7317A002908D0B0
:104F20000498002C058001D027806580002005B002
:104F3000F0BD19270725002CE8D00021C943A18026
:104F40000021A171417AFD2274E610B5504C94B055
:104F50002068C0308079022809D0032807D00528AE
:104F600005D0092803D00A2801D00B2837D11B21EE
:104F700008A801730021817369460BA808F0BEFDE3
:104F8000002804D1684640781B2802D0032014B0C2
:104F900010BD002108460CF07BFF002107200CF01B
:104FA00077FF68468078002819D12068C030807962
:104FB000801E030010F0B0F90A060613081313133D
:104FC0000D0F1113012000E00420FFF795F80020D9
:104FD000DDE70620F9E70720F7E70820F5E70820D6
:104FE000D5E770B500252A4C002807D0022817D035
:104FF000072828D0CF202749C00046E0FFF7A5FFAB
:1050000000280CD1FEF79FF9222101700572FEF7EE
:10501000B6F92068C030417A02221143417270BD56
:10502000FEF791F912210170012101722168BC2261
:10503000525A4281C031CD71FEF7A1F92068C030CB
:10504000417A0422E9E72168C620405C022809D0A1
:10505000032807D0092805D00A2803D00B2801D03F
:105060000528DCD1887B8109012917D0800904D06B
:10507000094808496E3010F05EF80020FFF733FA57
:105080000028CCD004480349723010F054F870BDA9
:105090005400002068440000010600000020FFF7D3
:1050A000F1F9EDE770B50D46040004D10D20F84983
:1050B000C00110F040F82078012804D0F449F548E8
:1050C00010F039F8E3E7A188F348F44E814209D1A2
:1050D000E288824206D130681321A030808BFFF72E
:1050E00095F9D4E7814202D1E08800280AD0122045
:1050F0002870687808210843687007CC083507C510
:10510000002106E000227823114602200CF01BFE4D
:1051100002213068C030C171B9E7E0480068C03092
:10512000807A704738B5DD4C054602782068130058
:105130000146C03110F0F0F809A00609099A193D9E
:105140006A82A000FEF798FF38BD8879062806D04D
:10515000092804D0CF48CE4918300FF0ECFF206862
:105160000422017E1143017680E0A9880029EBD05A
:10517000A030808BC8498842E6D0A868002804D1B6
:10518000C448C34928300FF0D6FFA86806220A3861
:10519000A86000902068AB88A030808B042102F0CA
:1051A0004DF80028D0D0BB48B9492D300FF0C3FFCF
:1051B00038BD2879022888790DD00428F8D0052830
:1051C000F6D0284601F09CF820681321A030808B8F
:1051D000FFF71CF938BD072806D00A2804D0AD48CF
:1051E000AB4937300FF0A7FF284601F089F8206857
:1051F0000122C030417A114341728079072803D0DF
:105200000920FEF779FF38BD0620FAE788790628DD
:105210000AD0042808D0092806D0052804D09D48C3
:105220009B495E300FF087FF0ECD9D480361C26041
:105230008160A2210170FEF7B7F838BD8879062891
:1052400018D0072816D009280DD00A280BD091486D
:105250008F4971300FF06FFF2068C03080790628C9
:1052600008D0072806D00B20FEF746FF284601F09D
:1052700047F838BD0820F7E786488549853095E727
:10528000FFB593B00124684603218470C9021D460E
:1052900001800AF020F900226946012003F0CFF9CD
:1052A00006460AF01CF9002E5CD168461521847070
:1052B0004902018000271C2101A808970FF0FEFD7C
:1052C00001200146103108A801700020014608A8FD
:1052D00041708178F9200140891C214308A8817020
:1052E0006846017902263143017114998185C78589
:1052F0001F21018608A80A9013980D90684609900E
:105300000AF0E9F80EAA09A901A802F05AFF074617
:105310000AF0E5F8002F02D0384617B0F0BD5F4F15
:1053200068463968008F4880684684705D4901800E
:1053300008A88078F9210840801C4108490008A885
:10534000817068468685068615A80D900AF0C3F818
:105350000EAA09A901A802F034FF06460AF0BFF818
:10536000002E01D03046D8E768463968008F888023
:105370004C4968468470C91C0180298810A80180A6
:1053800069884180A9888180E988C18008216846B0
:105390008185018610A80D900AF09DF80EAA09A932
:1053A00001A802F00EFF04460AF099F8002C01D083
:1053B0002046B2E768463968008FC8800020ACE715
:1053C000F0B5394D95B00C46A94242D30126B6043A
:1053D000364FA11BB9423CD335498C4239D22028E3
:1053E0000AD000210125212828D0222841D02328B5
:1053F00043D0072015B0F0BD3C21684601702188DC
:1054000041806188818009A908F078FB0028F1D1EA
:1054100008A98979002902D0022937D10CE06168F6
:10542000A942E7D38A1BBA42E4D3214A9142E1D28E
:105430006A46128D0A80DDE71E48DBE72068174CBC
:10544000002812D0072149070122411892039142F6
:1054500001D31020CEE706210EF060FB2168A822C0
:105460005050A0318D750020C4E72068A0308175B0
:10547000F9E7204600F050FFBCE73D206A46107077
:105480002078C007C00F17D0012818D00320B1E73B
:10549000684400009E060000FFFF0000540000204A
:1054A0004C120020012A0000006001000000FC1FD7
:1054B00000400020023000001046917001E01046CC
:1054C000957009A908F01AFB94E7FF4A10B59142BC
:1054D00008D301229204FD4B8A1A9A4202D3FC4A55
:1054E000914201D3102010BD202807D0212805D0DB
:1054F000222805D0232801D0072010BD062010BD8A
:10550000084600F040FF10BD70B50446CC21F148BC
:105510000FF0D4FCF04EEF4800213060C943A030BA
:105520008183002585770120FEF7E6FD3068C721DD
:105530000D54E121C57389000182B6210D54014645
:1055400009310830FDF71CFE316808462931193051
:10555000FDF74CFE002C24D0306880308463FEF7C9
:105560008BFD1E20E081607A8F2108403030607210
:1055700030680146143121619831616293392160AC
:105580001031616025721339A162091FE162853112
:10559000E163303921631031616310310930A16357
:1055A000A06474E5CC480068C0308079042803D03A
:1055B000052801D0002070470120704770B50646CD
:1055C000C1480C46814208D301208004BF49201AFB
:1055D000884202D3BE48844201D3102057E5FFF72A
:1055E000E1FF002801D0112051E5BC48BA4D002E42
:1055F00002D0012E46D12FE02278002A0AD00121C4
:10560000012A09D0022A14D0032AE7D1A2799209EB
:10561000E4D112E0002103E0A2799209032ADDD14E
:1056200028680622017260308171611C0FF0E7FB6F
:1056300005E0A2799209012AD0D1286801720021DF
:1056400007200CF025FC28680622611C09300FF0A9
:10565000D6FBFEF711FD11E02178002912D00129B7
:1056600010D0022910D00329B8D10120FEF73BFF4A
:10567000002803D09A499B480FF05DFD2868C67347
:10568000002004E5072002E50120FEF7FBFEEFE71E
:1056900007214907012210B541189203914201D315
:1056A000102010BD8C49024609680B7A0931184652
:1056B00000F015FE002010BDFFB599B00546002092
:1056C00069460871087208A9087408751E461446D0
:1056D00001217D4889047D4A7D4B002D06D08542FD
:1056E0000DD36F1A97420AD39D4208D2002C09D0DD
:1056F000844204D3601A904201D39C4202D310200A
:105700001DB0F0BD2846204318D01F270CAB01AABE
:10571000009728461A99FEF7DCFD0028F0D10DAB62
:1057200002AA314620460097FEF7D3FD0028E7D1B4
:105730006846007AC10703D00A20E1E70720DFE7C7
:10574000800705D568460079800701D50B20D7E78B
:10575000FFF728FF002801D01120D1E703AF002D6B
:105760000FD01A20694608731A9888732946F81CC6
:105770001A9A0FF044FB0EA903A808F0BFF90028FD
:10578000BED1002C0ED020216846017386733246AC
:105790002146F81C0FF033FB0EA903A808F0AEF960
:1057A0000028ADD14C4908A80968007C0870002089
:1057B000A6E7F0B504464448002795B084426FD36D
:1057C00001208004211A41488142F8D34048844294
:1057D00066D22378012B0BD13B4960688842EED317
:1057E0009904421A39498A42E9D339498842EFD2A9
:1057F00039490A681546C035A879022814D003280B
:1058000012D0052810D009280ED00A280CD00B2859
:105810000AD0012803D0002B06D0012B04D0687ACF
:10582000C506AD0F06D101E00820E3E5850701D4E8
:10583000400701D51120DDE5012B15D0208A2A4E25
:105840000546203DB5426ED2022B01D0032B01D17B
:10585000A02868D3012B07D01078C00704D0608A35
:10586000002860D0B4285ED8002B06D0012B08D0C9
:10587000022B04D0032B56D110E0002512E00225A4
:1058800010E060680125007800280BD0012808D0BE
:10589000022806D0032804D01048ABE5032501E018
:1058A00078E00127D07B01282FD1108A00282CD046
:1058B000907B8109012924D0800904D00948084936
:1058C000E4300FF038FC11E0006001000000FC1F24
:1058D00000400020F8120020540000200232000096
:1058E0006844000088080000E13F00000120FEF746
:1058F000FAFD00280BD09720FA4900010FF01BFC9D
:1059000005E00120FEF7BEFDF3E7FEF7B5FB207AC8
:10591000002806D0012807D0022807D0032802D18A
:1059200006E0002605E081E0012602E0022600E014
:105930000326002D01D0022D3FD1002E3DD0E0687E
:10594000002873D00179002926D008296ED8027B5F
:105950009446082A7ED800290CD0E34A0168914277
:1059600018D3012292048B1AE04A934212D3E04AE0
:1059700091420FD26146002912D08068DA498842EC
:1059800008D301218904421AD8498A4202D3D8494E
:10599000884205D310202DE5027B002A5AD0D6E795
:1059A000D44800680078800701D0D34822E5022D52
:1059B00003D1022E4ED0032E4CD018216846017020
:1059C000218A4180218A81808571CA480068007AD5
:1059D000002801D001287DD16946C8716846077248
:1059E00021780930012922D006210FF065FA07211C
:1059F0006846C173067409A908F080F80028CAD166
:105A00000A216846017009A908F078F80028C2D177
:105A10003A206946087009A9684608F06FF800281E
:105A2000B9D1002D09D0022D07D04CE012E06168F9
:105A30000622491C0FF0E3F9D9E7002E43D00026D7
:105A4000374623E00168B00009580978002903D0DF
:105A5000012904D00720CDE469468F7002E00121BE
:105A60006A469170E16806220968095800A8491C35
:105A700003300FF0C4F90B206946087009A9684685
:105A800008F03CF8002886D1761CF6B2E06801796F
:105A9000B142D7D800266F4611E08068B100415866
:105AA0001022B81C0FF0ABF93B206946087009A919
:105AB000684608F023F80028CDD1761CF6B2E068DD
:105AC000017BB142E9D81B2069460870012088702B
:105AD00009A900E034E0684608F010F80028BAD1BF
:105AE00008A840791B282BD1002D0AD0012D04D005
:105AF000022D08D0032D18D105E00320FEF7FCFA93
:105B000026E003200FE07B480068C0308079030066
:105B10000FF002FC09160616161816081A1C1600B5
:105B2000022000E00920FEF7E7FA608A00280FD083
:105B300000228300114610460CF005F9002807D01A
:105B4000032057E40520EEE70A20ECE70B20EAE704
:105B500000204FE470B586B00C0006460BD06248BA
:105B600084424AD3012080046049201A884244D3E9
:105B70005F48844241D25F4D2868C030C179022914
:105B800002D0407A400702D5112006B009E5002C6A
:105B900004D02046FEF771FB0028F6D13046FEF710
:105BA00037FB012803D0022823D05448EDE7210019
:105BB0001BD1082069468882286801ABC08805AAE5
:105BC000002103F024F90028DFD16846808A0828E4
:105BD00001D00320D9E7684681888181C188C181CD
:105BE000018901824189418203A9304601F07FFC8D
:105BF000CBE7002C01D00620C7E71020C5E770B521
:105C00000C460546FEF704FB012803D0022801D00C
:105C10003A48C6E421462846FEF7F8FBC1E400B541
:105C20000146143095B0192801D2880707D00846DC
:105C30001E3004D00A3002D0072015B000BDFFF797
:105C4000B1FC002801D01120F7E72A483122006872
:105C5000417068460270817009A907F04FFFECE7B8
:105C600001B582B0022069460880224802AB006874
:105C70006A468088002102F035FF694609880229BA
:105C800000D003200EBD38B502216A4611800721DD
:105C90004907012241189203914201D3102038BDD7
:105CA0001449034609686A468C880021204603F09F
:105CB000AEF8694609880229F1D0032038BD3EB507
:105CC00004460820694608800748844208D301201A
:105CD00080040649201A884202D3054884420FD323
:105CE00010203EBD68440000006001000000FC1F61
:105CF000004000205400002001320000023000006B
:105D00002046FEF7BAFA0028EBD120886946888041
:105D10006088C880A0880881E0884881F94801AB84
:105D200000686A46C088002102F0DCFE69460988E6
:105D30000829D6D00320D4E71FB5044608206946B9
:105D40008881F148844208D301208004EF49201A59
:105D5000884202D3EE48844202D3102004B010BD22
:105D6000E8486B46006803AAC088002103F04FF89A
:105D70000028F3D169468989082901D00320EDE77D
:105D80006946098821806946498861806946898811
:105D9000A1806946C988E180E0E7FEB50546DA489A
:105DA00017460E46814208D301218904D74A731A47
:105DB000934202D3D64B9E4201D31020FEBD1F2F2B
:105DC00001D90C20FEBDCF4C85422AD3681A9042DF
:105DD00027D39D4225D2206801A9408802F034FED5
:105DE0000028EFD1287869464871206801A94088C9
:105DF00002F00DFE0028E5D16946009008780221E6
:105E00000843694608704979090703D00821084307
:105E10006946087020686946408802F0A2FD0028A3
:105E2000D0D169460F8120683346408802AA0021FC
:105E300002F058FE69460989B942C3D00320FEBD6D
:105E400038B50C460721012249079203002802D0E9
:105E50004318934202D26118914201D3102038BDF9
:105E600021886A461180002801D000290BD0A5495D
:105E7000034609684D880021284602F0C8FF69469C
:105E80000988218038BD0C2038BD30B50C469E49AC
:105E900087B08C4208D3012189049C4A611A91423F
:105EA00002D39B498C4202D3102007B030BD954DE0
:105EB0002968C0310A7A520708D48979491F0B0032
:105EC0000FF02AFA05040604040604000820ECE793
:105ED000FEF79EF9012803D002282ED08D48E4E772
:105EE00020881E2801D20720DFE72868C03080798B
:105EF000062820D00A20FEF7FFF805206946087022
:105F00000879A1788008C9078000C90F084369464D
:105F10000871FB210840A1788907C90F890008434F
:105F2000694608712088C880684609F0FCFD002891
:105F3000BBD00320B9E70720DDE70620B5E7F0B5C1
:105F400087B014460D46FEF763F9012804D00228F5
:105F500002D0704807B0F0BD6A4B18680146C031E6
:105F60000A7AD20707D08A79042A04D0052A02D0F7
:105F7000002D02D052E00820ECE7634A944208D397
:105F800001229204614BA21A9A4202D3604A9442BF
:105F900001D31020DEE7A278D206520F042A0CD8D3
:105FA000E378072B09D3102B07D822799A4204D320
:105FB000102A02D822881E2A01D00720CAE70246EA
:105FC0008032966BF727F372966B23793373966B57
:105FD000737A3B40A778BF06FF0FFF003B43737205
:105FE000966B2388F381966BA778B37AFF079B089B
:105FF0009B00FF0F3B43B372FB273B40A778966B98
:10600000BF07FF0FBF003B43B372926BA478537A74
:10601000E406DB08DB00640F234353720B226B465C
:106020001A70852D22D008DC002D17D0812D17D0B5
:10603000822D17D0832D08D116E0862D18D0882DFB
:1060400018D0892D18D08A2D18D00B221A71B6229B
:10605000125C2C4C002A13D0A83012E00022F5E785
:106060000122F3E70222F1E70322EFE70522EDE741
:106070000622EBE70822E9E70922E7E70A22E5E73B
:1060800000200290887907280BD0082809D0092021
:10609000FEF732F8684609F046FD002803D00320D9
:1060A00058E70620F4E720680422C030017A490846
:1060B00049001143017200204CE770B5114E0D46A6
:1060C000316886B0C031097A1446090701D4082026
:1060D0005BE5FEF79DF8012803D0022801D00D48AA
:1060E00053E5002D1DD00848844208D301208004C8
:1060F0000649201A884202D3054884420CD3102056
:1061000043E5000054000020006001000000FC1F77
:106110000040002002300000012D0BD0022D02D1E2
:1061200006E0002C01D007202FE50020029005E0BA
:10613000022000E0012069460871029403206946AC
:106140000870684609F0EFFC002801D003201CE528
:106150003068F722C030017A11400172002014E546
:1061600070B594B014460E46FEF752F8012804D0DC
:10617000022802D0994814B04BE5994D2868C030E8
:10618000007A800701D40820F5E7002C01D0072011
:10619000F1E7FFF707FA002801D01120EBE7002E06
:1061A0001DD02D21684601702C68BC20015B68461B
:1061B00041801022B11C01A80EF021FE207EFB219F
:1061C0000840B17CC907490F08432076B07CFF2105
:1061D0004008A075608A82310843608207E02E2162
:1061E000684601702868A030818B6846418009A903
:1061F000684607F083FC2968FD23C0310A7A1A40FB
:106200000A72B8E710B50C46FEF702F8012803D071
:10621000022801D0714810BD7248844208D3012081
:1062200080047149201A884202D37048844201D305
:10623000102010BD2046FDF7FAFF002010BD10B55C
:1062400094B00446FDF7E4FF012804D0022802D0F0
:10625000624814B010BD62480068C03081790429DA
:1062600010D005290ED03820694608704C800120D6
:106270000871487109A9684607F040FC0028E8D079
:106280000B20E6E70020E4E710B594B00446FDF7E4
:10629000BFFF012803D0022801D05048D9E7504859
:1062A0000068C030817904290DD005290BD0382031
:1062B000694608704C8000200871487109A9684639
:1062C00007F01CFCC5E70020C3E745480068C03064
:1062D0008079062801D3012070470020704708B557
:1062E0001346002806D042A00068009048796A460C
:1062F0008009105C18700622581C0EF080FD08BD45
:1063000010B50446FDF71FF8A22101700ECC08302D
:106310000EC0FDF734F810BD70B5314C054601686C
:106320002068002913D02F4A914208D301229204F9
:106330002D4B8A1A9A4202D32C4A914201D3102043
:1063400067E4102277300EF05AFD2068012180307A
:10635000806B01722068A9880182C17B01290CD160
:10636000807B800901280AD00120FEF7BCF80028B4
:1063700003D0204920480EF0DEFE002049E4012031
:10638000FEF780F8F3E770B505460068144C002866
:106390001ED007214907401801218903884201D3F3
:1063A000102036E42068B8210958097A012909D05B
:1063B0000146773129300AF0EEFE20680121803055
:1063C000806B017221681022286877310EF017FD6A
:1063D0002068008AA88000201BE400000230000032
:1063E00054000020006001000000FC1F004000205D
:1063F0000302FF0168440000FD020000FFB581B008
:1064000001980E46C078174610360E37022809D07C
:10641000032840D005287DD0F2A1F7480EF08BFE6E
:1064200005B0F0BDCC890A2060430E3018803123BE
:106430000A98002A0380F3D04868008890800020E2
:10644000D0801081097B9481891FCDB21AE03088F9
:106450007168388048780A7800021043F880C8785C
:106460008A78000210433881BA1C091D28460AF0B8
:10647000E0FF002D01D0002802D000203871788084
:1064800008360A372046641EA4B20028DFD10199DD
:106490000020C870C4E7CC890A2060430E30188001
:1064A00032230A98002A0380BAD048680025008861
:1064B0009080D5801581087B401FC0B200909481E8
:1064C00042E0716832880878FA803A79C307520846
:1064D0005200DB0F1A43FD231A408307DB0F5B00DA
:1064E0001A43FB231A404307DB0F9B001A43F72391
:1064F0001A400307DB0FDB001A43EF231A40C306E1
:10650000DB0F1B011A43DF231A408306DB0F5B01FD
:106510001A4300E020E0BF231A404306DB0F9B0133
:106520001A433A71C00978718A784B78100218437F
:1065300038813A46C91C00980AF07BFF002801D038
:10654000BD703D8008360A372046641EA4B200287C
:10655000B7D10198C57063E7087BCC89801E85B2EE
:106560002846083060431030188034230A98002AE7
:1065700003808FD048681746008890800020D08024
:10658000108194811037E000D581C0190CE030886B
:106590003880009878602A46716800980EF02FFCC9
:1065A000009808360837401900902046641EA4B2AF
:1065B0000028ECD16BE7FFB50546C07881B00C46EA
:1065C0000A9E03000EF0A8FE0BA3071733414F6D80
:1065D0008F9D9D9DA300207B1746082806D0032889
:1065E00004D085487FA154300EF0A5FD04990E20FB
:1065F000088030200CE0207B1746042804D07E4819
:1066000078A171300EF097FD04990E20088031209A
:106610003080002F44D060680088B880607AFF30F6
:106620000130F880E08938810020B88137E0207B94
:106630001746042804D070486AA18D300EF07BFD07
:1066400004990E2008803220E2E7207B17460228BA
:1066500004D0694863A1A9300EF06DFD04990E20A5
:1066600008803320D4E7207B1746042804D06248F2
:106670005CA1C4300EF05FFD04981021018034202D
:106680003080002F0CD060680088B880607AFF30BE
:106690000130F880E08938810020B881F881E87005
:1066A000BEE6207B1746052806D0062804D05248AF
:1066B0004CA1E1300EF03FFD0498122101803520FD
:1066C0003080002FECD060680088B880607AFF309E
:1066D0000130F880E0893881E089B8810020388273
:1066E000A988F981DBE7207B1746072804D04248B8
:1066F0003CA1F8300EF01FFD04990E2008803620D2
:1067000086E700962846049B00F02DFD88E635A11B
:106710003A480EF010FD83E670B5054600780C4649
:10672000082603000EF0F8FD124C3434241C380AFD
:106730000A0A0A0A0A0A0A0A0A0A0A4C6878002897
:1067400004D02E4827A12C300EF0F5FC002C03D1EC
:106750001F2024A1400108E060783043607020E0F1
:10676000002CF9D17D201FA1C0000EF0E4FCF3E75E
:10677000002904D03F201BA100010EF0DCFCFCF737
:10678000E2FD0446407830436070FCF7F8FD08E015
:106790001A4814A1473002E0184812A14C300EF0FC
:1067A000CAFC002C0AD06078000707D5932020701F
:1067B0002046582229460830FAF706FD002070BD11
:1067C0000E4808A15030EAE710B500200C4C0D49E6
:1067D0000346C2008C525218401C0006D370000EB3
:1067E000F7D010BD7372635C67617474635F636F2D
:1067F00072652E63000000005A020000B30300001F
:10680000FFFF000058000020FE490880012088702A
:1068100000207047FB4900208870704710B50021A8
:10682000F848C94301800021C17007F0A1F9D8E7F9
:10683000F7B584B0054600276846078187806868F9
:106840000C46008800F0ECFB0646287A032805D0A9
:10685000002E03D1EC49ED480EF06DFC297A20465C
:10686000C91E123000900B000EF056FD0FF2F1F031
:106870003D09AA465C6D34B3CDF38B8BF000F07804
:10688000012803D0E049AD200EF055FCA8896946E7
:10689000C0000E30888030200881002C22D068682B
:1068A0000188A180E7802781A989A18100200DE0CE
:1068B000C100B27909190A74B288CA8182005219DA
:1068C000D3894B82128A401C8A8280B2A18981427C
:1068D000EED8D7E002A8009001AB22462946304608
:1068E00000F0CCFBF1E002A8009001AB2246294663
:1068F000304600F005FCE8E0F07806281AD0FF20CA
:10690000C149223014E068680188A180E7802781AE
:10691000A989A181B188E181E9892182EA8929696E
:1069200000982BE0F078062804D0FF20B6493C30D0
:106930000EF001FCE8896946123088803520088114
:10694000002CE0D1C1E0F078072804D0FF20AE4948
:1069500056300EF0F0FBA88969460E30888036204C
:106960000881002CBED068680188A180E78027815B
:10697000A989A1812046AA890E3029690EF03FFA23
:1069800080E0E8896946123080B2382288800A8126
:10699000002C79D068680188A180E7802781A989C7
:1069A000A181287A102809D00221A173E9892182C6
:1069B000EA89296900980EF022FA86E00121F4E7BD
:1069C00002A8009001AB224629463046FFF716FD8B
:1069D0007BE0F078082803D08B498D480EF0ABFBA4
:1069E00014206946888037200881002C6DD06868A3
:1069F0000188A180E7802781A989A18167822782F8
:106A00000120A0733EE0F078092804D080487E4938
:106A100018300EF090FB288A6946143088803720A1
:106A20000881002C51D068680188A180E78004218A
:106A30002781A173A989A181E9892182298A61829B
:106A400020462A8A1430696998E702E038E01CE0A1
:106A500024E0F0780A2804D06D486B4933300EF0FA
:106A60006AFB14206946888037200881002C2CD0CE
:106A700068680188A180E78027810521A173A7812B
:106A800027826782F77020E017E002A8009001AB30
:106A9000224629463046FFF78EFD16E00D20694656
:106AA000392288800A81002C07D00120E0805548D7
:106AB0000188A1802781277307E00699088010E0EC
:106AC0008F205149C0000EF036FB68460699808839
:106AD0000880002C05D068460089208068468088A0
