:020000040000FA
:10100000581D0020E54B0100B93C00004B4B01008E
:1010100000000000000000000000000000000000D0
:10102000000000000000000000000000554C01001E
:101030000000000000000000B93C0000B93C0000C6
:10104000C14C0100C74C0100B93C0000B93C000094
:10105000B93C0000B93C0000B93C0000B93C0000BC
:10106000CD4C0100B93C0000B93C0000D34C01005C
:10107000B93C0000D94C0100DF4C0100E54C0100F7
:10108000B93C0000B93C0000B93C0000B93C00008C
:10109000B93C0000B93C0000B93C0000B93C00007C
:1010A000EB4C0100F14C0100B93C0000B93C0000E0
:1010B000B93C0000B93C0000B93C0000B93C00005C
:1010C00000F002F813F06FFD0CA030C808382418A7
:1010D0002D18A246671EAB4654465D46AC4201D170
:1010E00013F061FD7E460F3E0FCCB646012633421B
:1010F00000D0FB1AA246AB4633431847B03C010070
:10110000E03C0100103A02D378C878C1FAD85207FF
:1011100001D330C830C101D504680C6070470000AD
:101120000023002400250026103A01D378C1FBD803
:10113000520700D330C100D50B6070471FB5C046C1
:10114000C04613F0D1FC04B00FB41FBD8269024940
:1011500081610248104470476111000001000000E5
:1011600001B41EB400B510F0DDF901B40198864653
:1011700001BC01B01EBD0000F0B4404649465246D5
:101180005B460FB402A0013001B50648004700BF1E
:1011900001BC86460FBC8046894692469B46F0BC01
:1011A00070470000C1100000401E00BF00BF00BF1C
:1011B00000BF00BF00BF00BF00BF00BF00BF00BF37
:1011C00000BFF1D17047000070B505460C461646C9
:1011D00002E00FCC0FC5103E102EFAD2082E02D31B
:1011E00003CC03C5083E042E07D301CC01C5361F2E
:1011F00003E021782970641C6D1C761EF9D270BD45
:101200008307FF22DB0E9A408907090E99400028C8
:101210000BDA0007000F0838830828489B001B18CA
:10122000D86990430843D8617047830824489B00DD
:101230001B181868904308431860704710B504469F
:1012400000210120FFF7DCFF00211820FFF7D8FF65
:1012500000210B20FFF7D4FF02211920FFF7D0FF58
:1012600002210D20FFF7CCFF02210E20FFF7C8FF5F
:1012700002210F20FFF7C4FF0221C81FFFF7C0FFA4
:1012800003211620FFF7BCFF03211520FFF7B8FF4D
:10129000204600F019F8002010BD0121C94301804B
:1012A000704710B500F039F810BD0648704710B50A
:1012B00000F034F810BD70477047704700ED00E053
:1012C00000E400E003F900C330B504462E4D95B0AC
:1012D00007202870A81CFFF7E0FF5920A8802B48A2
:1012E00001F098FB0546072000F0C6F9294626487C
:1012F00000F076FA641E072C0AD830216846017087
:10130000847001F06BFA002802D009A800F0C6FC36
:10131000284601F09EFE15B030BD704710B50C4652
:10132000014660390B2903D8214601F025FB06E070
:1013300001466C39032904D8214601F050FB206096
:1013400010BD014670391F2903D8214600F02EF840
:10135000F5E7014690390F2903D8214600F0B0F88F
:10136000EDE70146A0390F2903D8214600F018F90E
:10137000E5E70146B0390F2903D8214600F0F5F81A
:10138000DDE70120DBE70000180000200934000041
:101390007047704770477047704770477047704795
:1013A00010B5012801D100F040FA10BD10B5703819
:1013B000030013F0B5FC150C10141C20232A313641
:1013C0003B3F43474E535A626A72797E83000868F6
:1013D00003F02EFE10BD086803F080FE10BD0C79EE
:1013E0000B7B8A680868214603F08CFE10BD0868F4
:1013F00003F017FF10BD03F092FB10BD08884A6888
:1014000080B2114604F0B7F810BD0A790888114679
:1014100080B204F015F910BD087840B204F020F94C
:1014200010BD088880B204F03CF910BD086804F0D3
:101430004BF910BD086804F063F910BD086804F0AA
:101440008EF910BD088982B209C9194604F0B8F9AD
:1014500010BD05C9114604F006FA10BD08884A6897
:1014600080B2114604F024FA10BD0B7908888A680E
:1014700080B2194604F071FA10BD0B7908888A68A9
:1014800080B2194604F02BFB10BD08884B688A68AF
:1014900080B2194604F06BFB10BD08884A6880B220
:1014A000114604F0B6FB10BD088880B204F0CEFBF4
:1014B00010BD088880B204F0EDFB10BD012010BD06
:1014C00010B59038030013F02BFC09060F161D24ED
:1014D0002C363F464E0088888A6883B208881946B1
:1014E00080B204F0A6FF10BD08884A6880B2114699
:1014F00004F0FCFF10BD08884A6880B2114605F070
:101500003FF810BD08884A6880B2114605F075F8AA
:1015100010BD08884B688A6880B2194605F0A6F8A5
:1015200010BD088982B2888883B20888194680B2C3
:1015300005F0DBF810BD08894B6882B208881946AF
:1015400080B205F010F910BD08884A6880B21146D3
:1015500005F040F910BD888882B20888114680B233
:1015600005F0D4F910BD012010BD10B5B02805D08C
:10157000B12808D0B2280BD0012010BD088880B255
:1015800005F0B8FC10BD088880B205F0E3FC10BD82
:1015900008884B688A6880B2194605F0ECFC10BDDB
:1015A00010B5A038030013F0BBFB0B070E17202863
:1015B000323C434D545D65004B6808788A68194693
:1015C00007F006F810BD88888A6883B20888194633
:1015D00080B207F012F810BD08884C68CB688A68A2
:1015E00080B2214607F019F810BD08884B688A6858
:1015F00080B2194607F033F810BD8888CB6884B2F2
:1016000008888A6880B2214607F053F810BD8888A0
:10161000CB6884B208888A6880B2214607F059F8FE
:1016200010BD08884A6880B2114607F08DF810BDD9
:10163000088982B2888883B20888194680B207F088
:101640008DF810BD08884A6880B2114607F0A6F8E8
:1016500010BD08894B6882B20888194680B207F02D
:1016600023F910BD08884B688A6880B2194607F0D4
:10167000E0F910BD012010BD10B507F0C6FA0FF05B
:101680006BFD00F007F80FF0B9FE07F0C9FF07F097
:1016900055FF10BD01202B49C00308602A490020D6
:1016A000087003202949800288607047F8B5264DEC
:1016B00004462878A04207D0002C05D0002803D08B
:1016C00023A14D2013F03BFA2878A04213D02C70B0
:1016D000032500232349AD021C48002C27D01B4AB8
:1016E000214E4032214F012C06D0022C13D018A1DC
:1016F0006E2013F024FAF8BD0B6002230B604E61DC
:1017000085601B4911625762091D91621749091DC5
:10171000D1624560F8BD0B6003230B604E6101216F
:10172000C9028160134B9362D7624160F8BD0B60C0
:101730000B608560F8BD10B505A1772013F0FFF9A7
:1017400010BD000080E100E01E00002000F5014017
:101750007372635C68616C5F63636D5F6161722E5D
:101760006300000000F500407801002000F0004018
:1017700000110040488100401CB504460020694625
:101780000870204608F0C4FE6946204608F082FD35
:10179000002803D1FBA1B12013F0D1F901A9204603
:1017A00008F0D7FC002803D1F6A1B62013F0C7F942
:1017B000684600781CBD70B5F74D002428462C768D
:1017C00020308471C47113F0B9FA2846403804708F
:1017D00020308473847484762C74AC7070BDEAE716
:1017E00010B50C46ED4982888A8042884A8000788C
:1017F000087008460A38847008F081FCFFF7DBFFA8
:1018000020460AF00DF8E44AE0321146383908461D
:101810001446813808F0EEFE2146E0480BF009FB43
:1018200008F06DFE13F08AFA10BD10B50120FFF725
:10183000AFFD10BDF8B509F00CFBD84DD64C0A3DF4
:10184000022802D0207C00287CD0207E0026102890
:1018500019D1A078002803D0CAA1D14813F06FF99C
:10186000CD48E838817A89070DD50146267160395F
:101870008989E180C17A217281896181C089A081D1
:101880000120A0702676C44F203FB87C002859D193
:10189000C4486946808908F0FDFC002805D06946E7
:1018A000687809784018687004E0BD48B5A11D301B
:1018B00013F045F9207C002838D0BA488189FF30E0
:1018C0000930406D8089814204D0B548ADA12230F5
:1018D00013F035F9B348808908F082FD002804D15F
:1018E000AF48A8A1283013F02AF908F0F0FD00282D
:1018F0001CD0AC488089FFF73FFF697840186870BA
:10190000A5484038416D20310A7C012A0DD1A54AF5
:101910003E779289C287487C20700120B876207E6D
:10192000102801D0282800D126762674697800294D
:1019300008D09C488289FF300930C2860187012087
:10194000B8746E7009F05CFA002805D1207C00287C
:1019500002D0A87801F082F8F8BDF8B50F46044629
:10196000FFF768FF8C4D403D28788B4E002813D040
:10197000002F10D1307E002804D0FF2081A1BE307E
:1019800013F0DDF82C22A91C204612F03CFF0E209B
:101990002070002028708FE07F4D203DA87B00281C
:1019A00018D0002FF7D1307E102808D0282806D074
:1019B000002804D0FF2073A1CA3013F0C0F8012022
:1019C000E070E87BA070287C60700F202070002001
:1019D000A87371E00121204608F0B2FD002807D06D
:1019E000307C002851D13946204608F0A9FDF8BDC9
:1019F000A97C69480C38009068480A38002913D03F
:101A00000178052910D2002F56D1491C01700026FB
:101A100066700D202070012028750622A01C0099F8
:101A200012F0F1FEAE7447E05C4800210A38017004
:101A3000B078002814D0002F3ED1307E002803D08B
:101A400050A1594813F07BF80025657001205249D8
:101A500020700A22091DA01C12F0D5FEB5702BE0E3
:101A6000394620460BF052F9002825D1A87C0028E1
:101A700005D0002F20D149480A380178C5E7A87E53
:101A8000002802D0307C002801D00020F8BD002FB3
:101A900012D1307E002804D08D203AA1800013F0AE
:101AA0004EF8002666700A203B4920700622091F66
:101AB000A01C12F0A8FEAE760120F8BD10B5364885
:101AC000017E002908D1007C012805D001210020D9
:101AD000FFF743FF002801D0072010BD012010BDF3
:101AE00010B5012409F0E0FE0443FFF7E7FF0443CB
:101AF00008F006FD01462143084610BDF8B51D4615
:101B000014460E4608F045FB002807D0684608F04A
:101B10004BFB002803D0002C07D101E00120F8BDC9
:101B2000992018A1800013F00AF808F0E9FAA04201
:101B300004D21D4813A1583013F001F8009807F0A3
:101B40005DFF3146009807F06BFFE2B2294600982E
:101B500008F022F908F03AFB002804D19D2009A1E1
:101B6000800012F0ECFF08F0CDFC0E48002440305D
:101B7000C17B002902D0C47309F0ABFF0948C480BF
:101B8000CCE700007372635C6C6C5F6374726C2EE4
:101B900073302E6300000000200300202A00002084
:101BA00031060000D80100200D02000010B50179B7
:101BB000002907D001290AD0F749FE2012F0BFFF03
:101BC000002010BD831D42880488022103E0428862
:101BD0000488831D01212046FFF790FF10BDF8B552
:101BE0001F4615460E46044609F033F9022803D075
:101BF000EA48007C00281FD0E9488089208008F04E
:101C0000EFFB002803D1E449E64812F098FF0524D1
:101C1000684608F0F0FB00280ED0009807F038FF67
:101C20003070022809D0012807D008F024FC641E77
:101C30002406240EECD10020F8BD3946009808F0A7
:101C4000C3F82880002804D1D648D349123012F0B6
:101C500076FF08F010FC002804D1AF20CE498000A8
:101C600012F06DFF0120F8BD38B50446831D821CBB
:101C70006946FFF7B4FF00280DD000206071684668
:101C80000078012808D0022806D0FF20C249203061
:101C900012F055FF012038BD2071FBE700215CE602
:101CA00070B5BE4C0546403C2078002803D1BB48A7
:101CB000007E002803D0B849BB4812F040FF2878C6
:101CC00008F037FD28780BF0FAF900202071012088
:101CD00060713921E170207070BD70B5AF4D044660
:101CE000403D2878002803D1AC48007E002804D06D
:101CF000AD48A949183812F022FFA94E2188B089B1
:101D0000884203D109F0A5F8022807D002202871E3
:101D1000012068713821E970287070BD7F207076CD
:101D20009F48E1782030C173A17881730020EEE7ED
:101D300010B59A4C403C2078002807D19748007E87
:101D4000002803D109F085F8032804D161209249C5
:101D5000C00012F0F4FE914900202031C8712071BA
:101D6000012060713A21E170207010BD70B58B4C7C
:101D70000646403C2078002807D18848007E00288D
:101D800003D109F066F8032804D1864882497830E7
:101D900012F0D5FE814D2035E87908280CD2E8797B
:101DA0001022000100196830314600F0CFFDE879BB
:101DB000401CE871002000E00720207101206071C4
:101DC0003B21E170207070BDF8B5744C0546403C75
:101DD0002078002803D17148007E002804D0724882
:101DE0006D49443812F0ABFEA878002801D00128D4
:101DF00004D1A888FF21F531884204D96A48664990
:101E00003E3812F09CFE664E2988B089884203D184
:101E100009F01FF8022807D002202071012060710C
:101E20003621E1702070F8BD5D48002720308772B0
:101E3000A988B18501213176A978012900D0002136
:101E4000817257484030C07B002801D009F041FE24
:101E50002771E3E770B5514C0546403C20780028D7
:101E600007D14E48007E002803D108F0F2FF002879
:101E700004D055204849000112F061FE287809F08D
:101E800016FD00202071012060713021E17020706A
:101E900070BD70B5414C0546403C2078002803D108
:101EA0003E48007E002804D03F483B490D3012F0E8
:101EB00046FE287800280BD0012809D0022807D038
:101EC0006878402804D338483349143012F037FE7C
:101ED000284608F0B6FF002801D0002000E00C20C2
:101EE0002071012060713421E170207070BD70B5E7
:101EF0002A4C0546403C2078002807D12748007E20
:101F0000002803D108F0A5FF002804D02648224964
:101F10005C3812F014FE2978002914D00A2912D056
:101F2000142910D01E290ED028290CD032290AD00D
:101F30004B2908D0642906D0FF2904D01A48164935
:101F4000503812F0FCFD284609F02BFD00202071CE
:101F5000012060713321E170207070BD70B50F4CAD
:101F60000546403C2078002803D10C4A107E00280A
:101F700004D00D480849753812F0E1FD06222946C3
:101F80000A4812F040FC00202071012060713221CB
:101F9000E170207070BD0000841B00002003002051
:101FA000D8010020A3020000B70500002300002094
:101FB00070B5F74C05462078002804D12046403003
:101FC000007E002803D0F349F34812F0B8FD002149
:101FD0006956042914D0002912D0081D10D0001D04
:101FE0000ED0001D0CD0001D0AD0001D08D00A30F4
:101FF00006D0283104D0E848E649801C12F09FFD45
:10200000E64829780170012060713121E17020706B
:10201000C0E710B5DE4C2078002804D120464030BF
:10202000007E002803D0DB49DD4812F088FD08F06F
:1020300067F8E08008F02CF9207200202071012060
:1020400060710521E170207010BDF8B5D04C0746D5
:102050002034A07B25462035002805D1287E002885
:1020600002D1A878002804D0CB48CA492A3812F0F7
:1020700066FD08F0EEFE1026022822D1C9483988F4
:10208000808988421DD1C249483908460A7F603894
:10209000807A002A03D080070CD40C200CE0800743
:1020A00008D406200877BF484030C07B002801D004
:1020B00009F00FFD2E760020E07326740120A07336
:1020C000F8BD0220F8E710B5B14C2078002804D103
:1020D00020464030007E002804D04F20AD4900014A
:1020E00012F02DFD002020710E20A0700F20E07056
:1020F000FF20A0710020C0432081AB480178A1726D
:102100008188A1814088E08101206071207010BD2C
:1021100010B59F4C2078002804D120464030007E26
:10212000002804D0DB209B49800012F008FD082124
:10213000A01D0FF0ADF800202071012060712B214F
:10214000E170207010BD70B5914D044628780028CC
:1021500004D128464030007E002804D08E488D49A6
:10216000B23012F0ECFC8F4810222146303800F0DB
:10217000EDFB8C481022A118203800F0E7FB8948BD
:1021800030380FF08CF98749102210392C46A81DE1
:1021900000F0DCFB002020710E20A0702A20E070EF
:1021A000012060712070F5E6F8B5794C05462034C1
:1021B000A07B26462036002802D1307E002804D09D
:1021C00045207449000112F0BAFCA978052912D003
:1021D000132910D014290ED015290CD01A290AD091
:1021E000292908D03D2906D03B2904D08B206949F4
:1021F000C00012F0A4FC28886C49884204D96648C3
:102200006449CB3812F09BFC08F023FE0C212827F0
:10221000022809D163482A888089904215D15C48F8
:102220004838027E002A01D0E17310E0A978417697
:102230000121017637760020E0735A484030C07B98
:10224000002804D009F045FC01E00220E073277467
:102250000120A073F8BD70B54D4C054620780028CC
:1022600004D122464032107E002804D04A48494911
:10227000EE3812F064FC46482946603006220546D6
:1022800012F0C1FA0120A87100212171607117219B
:10229000E17020707EE6F0B5404F85B0403F3D7A5A
:1022A00006463B480078002804D13846A038007E16
:1022B000002803D037493E4812F041FC307800280E
:1022C00006D0012804D00D203249800112F037FCDD
:1022D000082D39D2314820380190C469307800285F
:1022E0002CD0012804D032482A490F3012F027FCA4
:1022F000294608310120884004430120A84020439A
:102300000090B179224C08027279690009191043D2
:10231000FF3101318881B01C12F0D6FA71780002C9
:102320000843A9000919C031C862387A401C3872C4
:1023300001990098C8610020207108E02946083101
:10234000012088408443D8E7114807210171012109
:102350000F480B224171C270017005B0F0BD10B57D
:102360000B4C2078002804D120464030007E002805
:1023700004D00F4807490E3812F0E1FB12F0DEFCE2
:1023800000202071012060710A21E170207010BDD1
:10239000E0020020841B00002C0500000004002047
:1023A00096060000D80100202A000020FF0E000041
:1023B0003F03000010B509F0D8F9002803D0FE490A
:1023C000FE4812F0BCFB08F099F807F07CFE0AF01A
:1023D00022FD002804D0F948F7490E3012F0AFFB77
:1023E00008F0DDF8002804D0F448F349123012F068
:1023F000A6FB12F0A3FCF24800240470FFF7DBF9FF
:10240000F0480121047141710222C270017010BDB7
:1024100070B5EC4D04462878002804D12846403099
:10242000007E002804D0EF20E349800012F087FBF3
:1024300020781F2801D8601C04D1E048DE49DE3036
:1024400012F07DFB002028712078611C08F060F9F3
:10245000012068712021E97028709BE5F8B5D94CFE
:102460000646207825464035002810D1287E0028D1
:102470000DD108F0EEFC002802D1287C00280BD0FA
:1024800008F0EDFC012807D0307800280ED0CB48AA
:10249000C949EB3012F053FB3078012806D00028F0
:1024A00004D03D20C449000112F049FB01206071B5
:1024B00030780C27002601280AD008F0D0FC032829
:1024C00061D00021012009F027F9002869D060E0DF
:1024D00008F0C2FC002827710FD008F0A1F80028EE
:1024E00049D02A7F698B002009F0E5F9002856D0F1
:1024F000B149B54812F023FB51E008F091F80028EB
:1025000048D0B0480221FC380EF04BFE002807D01E
:10251000AE4F0F21B889090212F0EFF9B98101E03D
:10252000AA48868101220321A84807F075FCA74824
:1025300008F0DDF9A54FB88907F0E4FD002804D1C3
:10254000FB209D49800012F0FAFAB889002107F0BB
:10255000DDFF002804D03F209749000112F0EFFA78
:102560002A7F698B012009F0A6F9002817D0FD20E9
:1025700091498000BEE7287F002801D0012809D1B9
:102580001F20207106E00021084609F0C5F8002848
:1025900005D027711B20E07001202070F8BD267146
:1025A000F8E72671287C0028F4D188488089FFF755
:1025B000E3F8EFE770B5834D04462878002804D18E
:1025C00028464030007E002804D07F487A4957389A
:1025D00012F0B5FA20781F2801D8601C04D17A487F
:1025E0007549563812F0ABFA002028712078611C2A
:1025F00008F0A2F8012068711A21E9702870C9E476
:10260000F8B5704D044628780C272E464036002831
:1026100006D1307E002803D108F01BFC032804D12A
:102620006F206549C00012F08AFA6079002801D055
:1026300001282FD1A079002801D001282AD1A07B20
:10264000002805D0012803D0022801D0032821D179
:10265000607B40071ED0618801208003814202D840
:102660002288824201D920790CE02079002804D008
:10267000022805D0032803D004E0202904D209E071
:10268000A02A01D2012805D12088884207D92079C3
:10269000012804D04C4848497B3812F050FA208871
:1026A0007083207930776079002802D0012803D028
:1026B0000CE0474A002105E0424A60329079002848
:1026C00004D00121204607F0AFFF074601202F71FB
:1026D00068711821E9702870F8BD70B5394C05464D
:1026E0002078002804D120464030007E002804D005
:1026F00035483149C03012F022FA08F0AAFB0C210B
:1027000002280ED131482A8883899A4219D102467B
:10271000C032137F002B04D1807E0E2803D00F28F7
:1027200001D0217103E005201077002020710E20D8
:10273000A0702E20E0702888E08001206071207059
:1027400028E40220F2E770B51E4C054620780028E8
:1027500004D120464030007E002804D01A48164993
:10276000943012F0ECF908F074FB0C2102280ED121
:1027700016482A8883899A422ED10646C036327F6F
:10278000002A04D1807E0E2803D00F2801D02171A9
:1027900009E00C481022A91C1E3812F034F804205D
:1027A0003077002020710E20A0702D20E070288846
:1027B000E080012060710DE0841B0000DF0200005A
:1027C00000040020E002002005040000D8010020E1
:1027D0002300002020701BE40220E3E710B50178FD
:1027E0000B0012F09DFA3C828237828257828282ED
:1027F000823A3D8282825053828282828282412743
:10280000822B2F82828282338282828282828245DE
:1028100082494D821F23826A5A5E6266826E827985
:102820007D767282801CFFF78EFF5CE0801CFFF7D4
:1028300054FF58E0801CFFF7E3FE54E0801CFFF7D4
:10284000B9FE50E0801CFFF709FE4CE0801CFFF74A
:10285000DFFD48E0FFF7AEFD45E0FFF780FD42E019
:10286000801CFFF718FD3EE0801CFFF7F4FC3AE007
:10287000801CFFF799FC36E0801CFFF764FC32E017
:10288000FFF746FC2FE0FFF71EFC2CE0801CFFF753
:10289000DCFB28E0FFF7BDFB25E0801CFFF788FB91
:1028A00021E0801CFFF75AFB1DE0801CFFF71FFB97
:1028B00019E0801CFFF7EDFA15E0801CFFF7CAFA5B
:1028C00011E0801CFFF780FA0DE0801CFFF74EFA44
:1028D00009E0FFF72DFA06E0801CFFF7FEF902E0A1
:1028E000801CFFF7DDF9012010BD002010BD10B5E0
:1028F0005F201D49000112F022F910BD70B51C4A7D
:1029000001241146194D4031030012F009FA05184F
:102910001B1B04181B0001220021144807F07CFA3D
:1029200013480021483801774177C03809F03AF858
:10293000002803D00C490F4812F001F933E40C745D
:10294000556530E40B4808493330F5E730B5134698
:1029500006E0CC18203CE47FD51A44555B1EDBB260
:10296000002BF6D130BD0000841B0000D8010020F0
:10297000E0020020C306000010B56038030012F02A
:10298000CFF907050A0E131A21252C0005C9114697
:1029900000F03EFE10BD086800F0DDFE10BD05C968
:1029A000114600F0E5FE10BD4B6808788A681946AC
:1029B00000F0F6FE10BD4B688A680868194600F002
:1029C00010FF10BD086800F02BFF10BD08884A6892
:1029D00080B2114600F07BFF10BD012010BD10B584
:1029E0006C2801D0012010BD087800F053FF10BD05
:1029F00001203F49400608603E4908603E490A6898
:102A0000FF231B029A4383121A430A603849803914
:102A10000860704710B502460420384904E0C3003E
:102A20005B181B79002B0AD00346401EC0B2002B56
:102A3000F5D133A1432012F082F8FF2010BDC3006E
:102A4000CA50002259184A718A7101220A7110BDB8
:102A50002A4A0021C00080180171704710B5044651
:102A6000042803D326A1522012F069F82348E1007C
:102A70000C182079012803D021A1532012F05FF80F
:102A80006079A179401CC0B2814200D06071012000
:102A9000174940068031086010BD70B516480068BF
:102AA0000004800F022803D015A1692012F047F816
:102AB000124E194C03252078C10088190279012A89
:102AC00007D1427983799A4203D042798271705852
:102AD00080472078401CC0B22070042801D3002019
:102AE000207028466D1EEDB20028E4D170BD0000B4
:102AF00080E100E080E200E018E400E02C12002019
:102B00007372635C736F635F7369676E616C6C692A
:102B10006E672E63000000003800002010B5EFF350
:102B20001080C407E40F72B6D6484178491C417042
:102B30004078012801D10EF09BFF002C00D162B635
:102B400010BD70B5CF4CE07800280AD10125E570A2
:102B5000FFF7E4FF0EF094FF002804D000200EF0F1
:102B600067FF002070BDC84865714560F9E770B522
:102B7000EFF31080C507ED0F72B6C24C60780028E5
:102B800003D1C2A18F2011F0DAFF6078401E60707F
:102B90006078002801D10EF06FFF002D00D162B6E1
:102BA00070BD10B5B748C178002904D0002141712B
:102BB000C170FFF7DCFF002010BD10B504460EF019
:102BC0005FFFB049C978084000D001202060002094
:102BD00010BDF8B50246AB4C0026A67108200421B2
:102BE00001251027130012F09BF80D080A0C0E1097
:102BF0001214161E262123252800257122E002200A
:102C000001E021711EE020711CE027711AE02020F4
:102C1000F9E7012616E0FFF781FF0EF031FF0028EB
:102C2000FBD002260EE02171A5710BE02771FBE7B6
:102C3000202000E040202071F6E7FF2093A17E30A5
:102C400011F07DFF0EF028FF002809D00EF02AFFBA
:102C5000B04205D130460EF028FF0028FAD024E01B
:102C600001208007C5608D4A002151608C4A966121
:102C7000854B02225A6085608A4803690569DB43F7
:102C8000DB06DB175B1C10273D430561834D00E02D
:102C900020BF6F68002FFBD0002B03D107691023E2
:102CA0009F430761784882606960A07900280CD052
:102CB0000EF0E6FE05460EF043FE7B4A002D02D0E4
:102CC000A260E06001E0E260A060002E01D100F0AF
:102CD000B1F8F8BD10B504460EF0D8FE002805D0B6
:102CE00068490120C8704A78521C4A702046FFF794
:102CF00070FF10BDF8B5694FB8680025012802D1F2
:102D0000BD600EF095FE7868012800D17D603868BE
:102D100001265C4C012814D13D606079002803D065
:102D200000200EF085FE65712078002809D00EF095
:102D3000A7FE002805D05948C03886630006066102
:102D4000A670386901282CD13D6100F068F8012097
:102D500080074661A079002815D00EF091FE009002
:102D60000EF0EEFD0099002901D0E16800E0A168B5
:102D7000411A022901DA8A1C13DC0099002901D0CA
:102D8000E06000E0A060FFF7C9FE0EF079FE0028C9
:102D900006D04248C038866300060661A67000E08F
:102DA0002670F868012819D100F039F800F037F8DA
:102DB00000F035F8A078002804D1FF2033A10530B9
:102DC00011F0BDFEFD60A5702570FFF7D0FE0EF07E
:102DD0002EF9002802D03148C038C663F8BD10B5BE
:102DE000284CE078002801D10EF046FE0120810732
:102DF000886100F014F8A07800280BD0274CE06818
:102E0000002803D10EF051FE0028F8D10020E06028
:102E100000F005F800201C49C043886010BD08B5CB
:102E20005020694608806A461088411E118000289B
:102E3000F9D108BDF8B51448192787601749002053
:102E40000860C8600EF01CFEBD0701240D4E00286E
:102E500005D01248C03884632C61B47000E034702F
:102E6000FFF75CFE084847600D4930798863FFF73B
:102E7000D6FFAC61FFF7D3FF0849002008616C6101
:102E8000F8BD00003C000020000300407372635C4A
:102E9000736F635F636C6F636B2E630000010040B0
:102EA0000005004000ED00E0FFFFFF7F8107C90E35
:102EB000002808DA0007000F083880082C4A800034
:102EC0008018C06904E080082A4A800080180068E1
:102ED000C8400006800F704710B50D20FFF7E6FFD1
:102EE000C4B20420C043FFF7E1FFC0B2844203D064
:102EF00021A11A2011F023FE10BD0121234A48030D
:102F00001060234B00221A60224A5160224A10604E
:102F1000224A11601D4980390860704701211B4A0F
:102F2000480310601D4A5160194A002111601A4976
:102F30000860704710B516490868012804D00EA132
:102F4000562011F0FCFD10BD154880680022C0B26B
:102F50000A600EF0C3F910BD10B50D4801680029D4
:102F6000FCD0FFF7E7FF01200B494003086010BDCC
:102F700000ED00E000E400E07372635C736F635F78
:102F800068616C5F726E672E6300000080E100E094
:102F900000D1004000D3004080E200E000D00040BB
:102FA00000D5004010B50FF07BFE10BD0020044995
:102FB000C863012001218140024A116000BF7047AF
:102FC000C01F004080E200E010B504460AF0C3FED6
:102FD00020460BF0D8FE10BD064A107051707047A5
:102FE00004481C220178417142700170704770479B
:102FF000704770471C01002070477047704770474A
:1030000010FFFFFFDBE5B15100500100FEFFFFFFA5
:1030100003B40148019001BD0900002010B5030070
:1030200011F07EFE070805080B0B0E0E110003F0D1
:103030007CFE10BD01F0C4FD10BDFFF7C5FF10BD43
:103040000DF0ACFD10BDFF20F8A17D3011F077FD33
:1030500010BD7FB5F94AFA4C51689268019200910F
:1030600020700823F74A1946F7480EF03BFB00256D
:10307000F6480EF055FB6D1CEDB2072DF8D3F14963
:103080000320803140020BF053FF002803D0E7A15A
:10309000912011F054FD1E220221ED480AF00BFB95
:1030A000EB481E22032110300BF07FF8E84807227E
:1030B000342174300AF058FAE5484C21283011F0D8
:1030C00001FCE3496A46743108464C384164FF31DB
:1030D0007B31816401211172039001F050FF02A83D
:1030E0000CF074FA002803D0D0A1A52011F027FD20
:1030F000D54802222421A8380AF036FAD248022202
:103100002C215C380AF030FAD2490B200DF032FE47
:10311000002803D0C5A1B22011F011FD03F0F2FD8B
:1031200002F0F8FF04F058FC6B4600220821CAA008
:1031300001F085FE002803D0BCA1B92011F0FFFCEE
:10314000012004F04AFF002803D0B8A1BB2011F0F1
:10315000F6FC8521C900C34811F0B4FBC149B74A48
:103160000020135C0D18401CC0B2EB700428F8D38B
:10317000002060606070A0707FBD70B5BA4E0546DB
:10318000706A94B00C46401C04D1B06AC04300047D
:10319000000C0BD0306AC007C00F2870706A11F0A5
:1031A000A4FBB06A2071000A607113E02B2069460D
:1031B000087009A968460AF01DFA002803D09BA1EF
:1031C000DF2011F0BCFC0120287006220AA920464D
:1031D00011F019FB2878002815D06079C021084328
:1031E000607117206946087000A806222146023047
:1031F00011F009FB09A968460AF0FCF9002816D06D
:103200008AA1F42011E032206946087000A8062245
:103210002146023011F0F7FA09A968460AF0EAF9E6
:10322000002804D0FF2081A1013011F088FC14B0E7
:1032300070BDF0B58C4C0646206895B00D463746FB
:10324000401C0837002808D16068401C05D1A068E0
:10325000401C02D1E068401C11D02068314611F0BA
:1032600044FB6068311D11F040FBA068394611F045
:103270003CFBE06831460C3111F037FB25E02B2098
:103280006946087009A968460AF0B4F9002804D014
:10329000FF2066A1203011F052FC08220AA9304616
:1032A00011F0B1FA2B206946087009A968460AF0A6
:1032B000A1F9002804D0FF205CA1273011F03FFCC9
:1032C00008220AA9384611F09EFA20692E46401CB1
:1032D0000836002808D16069401C05D1A069401C4F
:1032E00002D1E069401C12D02069294611F0FDFA94
:1032F0006069291D11F0F9FAA069314611F0F5FA5B
:10330000E06929460C3111F0F0FA15B0F0BD2B241C
:103310006846047009A90AF06DF9002804D0FF205E
:1033200042A1453011F00BFC082209AF0AA928463A
:1033300011F069FA6846047009A90AF05BF90028DF
:1033400004D0FF2039A14C3011F0F9FB0822391DBF
:10335000304611F058FAD8E710B5002108460EF0B3
:1033600097FA002101200EF093FA002102200EF0BE
:103370008FFA002103200EF08BFA002104200EF0BA
:1033800087FA002105200EF083FA10BD10B5354CE8
:10339000A0780B2804D3FF2024A1963011F0CFFB96
:1033A00020786021484300190830002101704178DD
:1033B000E722C908C900C91C11404170204A0121F7
:1033C000517010BD70B51E4C607800280ED0254895
:1033D00000250178491CC9B201700B2900D1057084
:1033E0008178491C81700EF01EFB657070BD70B550
:1033F000134C05466068002804D0FF200BA1BF30A5
:1034000011F09DFB656070BD70B50D4E154DFFF759
:10341000BDFF71680446002928D06022FDF7D4FE64
:10342000FFF7D0FF00207060F1E700007372635C6B
:10343000686F73745F636F72652E63004C4D01009B
:1034400030000020040400200C1200201D30000079
:10345000840A0020B41000206E52463531383232D2
:10346000000000008C0C002080000010287900284B
:1034700052D0FE480AF088F86060002804D1FF208E
:10348000FB49DD3011F05BFB60680AF0DBF80028D7
:1034900010D0204600F019FE6078010707D5C0085B
:1034A000C000401C60702879401E287126E0EF485B
:1034B000616829E0ED4861680AF06FF868790028D2
:1034C0002AD0EA484C380AF05FF86060002803D13F
:1034D000E749E84811F033FB60680AF0B7F80028C4
:1034E00015D0204603F060FC6078010709D5C008BC
:1034F000C000801C60706879401E6871FFF762FF31
:1035000085E7DA4861684C380AF047F87FE7D74822
:1035100061684C380AF041F870BDF7B5054600788F
:10352000002700090C463E46062804D0D148D04961
:10353000223011F004FB287A00280ED0012814D084
:10354000CC48CB49433011F0FAFA0298002C06809F
:1035500001D0278066800020FEBD02270926002CAE
:103560000ED0A889A080A87B08E003271426002C91
:1035700006D02869E060A88A2082287B2072E4E7D0
:1035800002980680E7E770B50E4600211C461980B8
:103590001546030011F0C4FB0723050B1711231D6B
:1035A000230022462946304603F0CAFB70BD22465E
:1035B0002946304601F083F870BD22462946304640
:1035C00004F005F970BD22462946304602F0D6FDCA
:1035D00070BD224629463046FFF79FFF70BD4D2043
:1035E000A349C00011F0ABFA032070BD01469F480B
:1035F00010B54C3809F0D1FF9F494879401CC0B242
:103600004871012803D19D480078FFF727FA10BDC3
:10361000F8B50546072040070F460A18012189031F
:103620008A4209D2002D02D02818884204D2E81C10
:1036300080088000A84201D01020F8BD8E48817813
:10364000002911D0398800914178602251430C182B
:10365000083420783B460007000F00222146FFF780
:1036600092FF060004D015E0002038800520F8BD48
:10367000002D13D039880098814201D90C260DE025
:1036800020783B460007000F2A462146FFF77BFFC4
:10369000060005D00C2E01D0002038803046F8BD41
:1036A000754D6878401CC0B268700B2801D10020AD
:1036B0006870A878401EA87061784807400F0228FB
:1036C00010D00128EAD16948616809F066FF2879BD
:1036D000401CC0B228710128E0D168480078FFF78B
:1036E000BDF9DBE7C806D9D46068FFF77FFFD5E7EF
:1036F00070B50446624816460D46814204D15D48C5
:103700005B49DB3011F01BFA012E05D059485849AE
:10371000EB3011F014FA70BD584801218170662019
:10372000207000202072A581A17370BD70B516466F
:103730000D46040001D1FFF729FE66210170012129
:10374000017229680161A98881820673002C01D168
:10375000FFF738FE70BD0721490701224118920387
:10376000914201D31020704707210170002070475B
:10377000444A10B590420ED301239B04C21A424B17
:103780009A4208D3414B984205D2072252078A1821
:10379000DB139A4201D3102010BD0DF024FB10BDA5
:1037A000384B10B599420ED301239B04364CCB1AEB
:1037B000A34208D3354B994205D2E3020124D31822
:1037C000A403A34201D3102010BD022803D0102867
:1037D00001D0092010BD0DF02CFB0028FAD00520E7
:1037E00010BD70B5274B984212D301239B04264C81
:1037F000C31AA3420CD3254B984209D2E4020D19F7
:10380000DB139D4204D2002A04D014199C4201D338
:10381000102070BD0DF033FB0028FAD0072070BDDA
:1038200010B504460720400701212018890394B0F1
:10383000884202D3102014B010BD01F0ECFB002828
:1038400001D01120F7E70F2008A9087369460BA8DB
:1038500009F0D0FE0028EED16846007A2070684654
:103860004089608068468089A08011E0B011002006
:103870002C340000FF0100008C0C002030000020E0
:10388000FFFF0000005001000000FC1F004000206E
:103890000020D0E710B594B0044601F0BCFB00282E
:1038A00001D01120C7E7002C01D00720C3E7392140
:1038B000684601700021817009A909F09BFE00286B
:1038C00003D01549154811F03AF90020B3E770B557
:1038D000134C0846A178002913D000280FD00722E6
:1038E0005207012385189B039D4203D20568AA183D
:1038F0009A4201D3102070BD8288002A03D001298A
:1039000003D0082070BD092070BD04F0C7F800285E
:10391000FAD10021A17070BD2C34000079030000A1
:103920003000002030B40121BC48C9020160CD1034
:1039300005604A030260BA4803681B021B0A036061
:1039400004680023240A24020460B6480468240A98
:1039500024020460B448012444608460B34C2360B2
:103960006360A360B24B19601D601A60B14B1960AF
:103970001A600121016030BC704710B40121A748D2
:10398000CC0204600A0202600B060360A648416094
:103990008160A6490020086048608860A4480460EF
:1039A0000260036010BC70470121A148C902016098
:1039B000C91001607047002805D0012805D00228F1
:1039C00005D19D4870479D4870479D48704710B588
:1039D0009CA18B2011F0B3F8002010BD70B5002120
:1039E0009F4CA04DA04A914B002808D001281DD023
:1039F000022822D093A1B32011F0A1F870BD0120BC
:103A00000004A060A86011601960984B42109A6091
:103A1000974A9060814A001210609648016087487A
:103A20000160954801609548017070BD0120400417
:103A3000A060A8605160596070BD01208004A06042
:103A4000A8609160996070BDF8B59446844A854D30
:103A500000240127754E002808D0012836D00228FE
:103A600044D078A1E82011F06AF8F8BD891E090257
:103A7000090A012000049060346068607A4A11608D
:103A8000012B21D000217D4A7D4B517061463D3193
:103A9000DC63DF637B4B5C6002249C6004241C615C
:103AA000744B196074490F60614B89151960704B34
:103AB00058606048016075487349C16086606B4911
:103AC000600348601770F8BD0121DCE701205C4EFF
:103AD00040046F4F012B04D134605060686039603E
:103AE000F8BD9060346068603960F8BD0120524EC6
:103AF0008004684F012BF4D1EEE7674840687047B7
:103B000070B54A4D28680026554C012806D1A0689A
:103B1000C00303D501200004A0602E60686801285E
:103B200009D1A068800306D501204004A0606E6022
:103B300001200EF0CDFFA868012809D1A06840033C
:103B400006D501208004A060AE6002200EF0C0FF08
:103B500070BD10B549490878002818D00120434AA3
:103B6000C0039060424A400090602C4A00121060EE
:103B7000404A00201060314A10603F4A10600870CF
:103B80004A78002A02D048700EF0A2FF10BD032030
:103B9000FAE70120414900060860704701202449E6
:103BA00000060860704701203C49400508607047E6
:103BB00001201F4940050860704731490020C86353
:103BC00088151B4908607047410A354AC005C00D79
:103BD0005043801C5143400A0818704710B4314CC0
:103BE000430B63431B0C5C020C602D4C6343C31AF4
:103BF0002D485C0258432A4B400D4343E31A0124ED
:103C0000DB0324041B191B1613700A6810180860C4
:103C100010BC704710B50FF057F810BD80E100E000
:103C200008E400E018E400E000B0004040B10040CB
:103C300080E200E000E100E048B100404081004047
:103C400044B100407372635C72656D5F68616C5F64
:103C50006576656E745F74696D65722E6300000031
:103C600000B3004040B3004040B5004000F50140C3
:103C70000083004040850040008200404C0000204E
:103C8000C08F0040008500400080004080F501406A
:103C900044B5004048B5004000B5004000E200E0F7
:103CA000093D0000378600006F0C01000E4A1268C3
:103CB0000C498A420AD118470B4A1268094B9A42AA
:103CC00004D101B50DF025FC03BC8E4607490968F7
:103CD0000958084706480749054A064B704700003F
:103CE00000000000BEBAFECA180100200400002037
:103CF000581D0020581D002070B50446FB4D0300E0
:103D000011F00EF80C07AA0A21293C4F626D7C8D38
:103D100099AEF7A1D6209DE001F0E7FF01287DD004
:103D200001F0E3FF0928FAD001F0DFFF0528F6D003
:103D300001F0DBFF0A28F2D001F0D7FF0B28EED00C
:103D4000EBA1DB2086E02868A030807F0128E6D048
:103D5000E7A1E2207EE001F0C8FF06287CD001F058
:103D6000C4FF072878D001F0C0FF082874D001F004
:103D7000BCFF052870D0DEA1E5206BE001F0B5FFA7
:103D8000092869D001F0B1FF0A2865D001F0ADFF24
:103D90000B2861D001F0A9FF04285DD0D4A1EB204D
:103DA00058E001F0A2FF032856D001F09EFF07283B
:103DB00052D001F09AFF08284ED001F096FF092852
:103DC0004AD0CBA1F12045E001F08FFF062843D077
:103DD00001F08BFF0A283FD0C5A1F7203AE001F09F
:103DE00084FF062838D001F080FF072834D001F086
:103DF0007CFF0B2830D0BEA1FB202BE001F075FF2B
:103E0000062829D001F071FF0A2825D001F06DFFA6
:103E10000B2821D0FF20B6A101301BE01CE001F0EF
:103E200064FF092818D001F060FF0A2814D0FF2091
:103E3000AFA106300EE001F058FF09280CD001F0C8
:103E400054FF0A2808D001F050FF082804D0FF20B2
:103E5000A7A10A3010F073FE2868A030847770BDE7
:103E6000FF20A3A10F30F5E7A049C1220968525CE9
:103E7000D206920F05D1A0318A8A824201D1887D73
:103E800070470020704770B5044611202070002153
:103E9000964D61702968C0318978002908D00329BE
:103EA0000ED0042910D0FF2091A1383010F047FE29
:103EB00020780009012802D92868807E607070BDD2
:103EC0000007000F203002E00007000F30302070A4
:103ED000EEE730B503888A498A4C8B4202D09A1F9C
:103EE000A2421ED242888A4202D0951FA54218D211
:103EF000934216D883887D24E400A34211D8C08859
:103F0000884205D07F4D04460A3C2D1FAC4208D2A2
:103F1000884208D08A4206D05B1C5A43C0008242C5
:103F200001DD072030BD002030BDFFB50022099B18
:103F3000002802D0994205DC5CE0002902D1002073
:103F400004B0F0BD0920FBE7845C002C12D085187A
:103F50006F780D2F4CD010DC3B0010F0E1FE0A42D0
:103F60001B2A2A303032323A3A42835C002B3FD14E
:103F7000521CD2B28A42F8DBE1E7122F31D004DCC6
:103F80000E2F35D00F2F2CD132E0142F11D0152F3A
:103F900027D116E0022CD5D1AB78039C072B2370D8
:103FA00001D25B0701D40A20CAE7029B01241B78D7
:103FB00014E0E343DB0708E0012C08D011E0062001
:103FC000BEE70F2523072D075B19002BF4D03046E1
:103FD000B6E7029B1B789C070AD402242343029C69
:103FE0002370835C521C9A18D2B28A4204DDA9E77E
:103FF0000B20A5E7192676028A42A5DB9FE705E09C
:104000000278401C002A01D0002070470A46491E51
:1040100089B2002AF4D10120704730B5334D002118
:10402000286887B0C943A030818200248475214666
:1040300006200DF02DFC002105200DF029FC0021AB
:1040400002200DF025FC0120FFF756FE2868BF2155
:104050000C54C030047001206946087068460BF0AB
:10406000D6FA07B030BD30B595B00C46054601F024
:104070003CFE04280ED001F038FE05280AD0282185
:10408000684601704580132C06D03B2C04D00720D5
:1040900015B030BD0820FBE7047109A909F0AAFAA0
:1040A00004000ED101F021FE06280CD001F01DFE07
:1040B000082808D001F019FE072804D00520FFF7D2
:1040C0001BFE2046E4E70420F9E7F0B59BB00400AE
:1040D00003D107A10C4810F032FD722020706068F7
:1040E00000270178014D491F08260FE050000020ED
:1040F0007372635C6761705F636F72652E6300004B
:10410000FFFF00007B0C00007F0200000B0010F09E
:1041100007FE0F096DF4F26D6FF1F0BD6D6D6D6D01
:10412000EFEE6D002868A030807F032804D0512076
:10413000F849C00010F003FD002108460DF0A8FB6F
:10414000607810233043607028680146C0314A7897
:104150001A434A7061688A783C2A44D08E880146A6
:104160000122A0318A756268D2890A836268128A44
:104170004A836268528A8A838E8261680622C9797C
:10418000C17361681030083110F03DFB0620FFF765
:10419000B3FD2868C2210F54017FFB221140017733
:1041A000B02109584A7A920892004A72C782304672
:1041B00002F0B4FD002803D0D649D74810F0BFFC68
:1041C000304601F0C7FF002804D0A920D149800063
:1041D00010F0B5FC304603F00FFC002806D0CE48A6
:1041E000CC49401D7FE10120FFF786FD1BB0F0BDEB
:1041F000878801F07AFD062820D001F076FD072897
:104200001CD001F072FD082818D001F06EFD0428C2
:1042100014D001F06AFD092810D001F066FD0A28CB
:104220000CD001F062FD0B2808D001F05EFD0528DE
:1042300004D0B948B749113010F081FC60783043A0
:1042400060702868C03041783143417001F04DFD05
:10425000092817D001F049FD0A2813D001F045FDC7
:104260000B280FD001F041FD05280BD0FFF7D5FE3C
:10427000384602F058FD384601F072FF384603F028
:10428000F1FBB3E70220FFF737FDF1E701F02DFD69
:10429000062820D001F029FD07281CD001F025FDBB
:1042A000082818D001F021FD042814D001F01DFDCC
:1042B000092810D001F019FD0A280CD001F015FDD5
:1042C0000B2808D001F011FD052804D0924891492F
:1042D000343010F034FC6068807902F0DCFD002896
:1042E00084D06178314361706168C8807EE776E18F
:1042F000D2E1C0E0C1E03BE0FFE701F0F6FC0628B8
:1043000020D001F0F2FC07281CD001F0EEFC0828B8
:1043100018D001F0EAFC042814D001F0E6FC0928CA
:1043200010D001F0E2FC0A280CD001F0DEFC0B28D2
:1043300008D001F0DAFC052804D05D207549C000E2
:1043400010F0FDFB6078304360706068C1882868B9
:10435000A03001836168098941836168498981834B
:10436000002102200DF094FA2868A030C7773DE7BD
:1043700001F0BBFC062820D001F0B7FC07281CD0B8
:1043800001F0B3FC082818D001F0AFFC042814D0C9
:1043900001F0ABFC092810D001F0A7FC0A280CD0D2
:1043A00001F0A3FC0B2808D001F09FFC052804D0E5
:1043B000594858495E3010F0C2FB01F096FC0428C1
:1043C00094D001F092FC052890D02868807D4006AA
:1043D0003DD5606802210C30FFF711FE002836D071
:1043E00060680821001DFFF70AFE00282FD028680A
:1043F000014680310A46096B497A890708D1C221F2
:10440000095C002908D1C18ACB0505D5C90703D1AC
:10441000C18A40239943C182C38A80218B43C382CE
:104420002D2369460B70A030808A4880D36991693A
:104430005069126A01AC0BC4049209A9684609F0DC
:10444000D9F8002893D03448324985304BE062686F
:104450002868A42192890A5261680822091DA630A1
:1044600010F0D1F910A806742868A630159014A889
:104470000BF0CDF8BAE60121817101F036FC062877
:1044800020D001F032FC07281CD001F02EFC0828B7
:1044900018D001F02AFC042814D001F026FC0928C9
:1044A00010D001F022FC0A280CD001F01EFC0B28D1
:1044B00008D001F01AFC052804D017481549A93086
:1044C00010F03DFB01F011FC0428D3D001F00DFCED
:1044D0000528CFD060688179002902D08078002833
:1044E00004D00C490D4810F02AFB7FE66078B0211B
:1044F0003043607028680958497A8907890F012973
:1045000053D1817D090650D4017F490708D5042184
:1045100007E00000F0400000A1020000B503000029
:104520000321C03081702B206946087009A96846B4
:1045300009F060F8002803D0F849F94810F0FFFAB4
:1045400069462868098D01830E2210A90A74F5496D
:104550001591027A0A70024609324A600F320A61E6
:10456000521D8A601032CA60133A4A618A328A61E7
:10457000921CCA61423A0A6210324A6210328A625E
:10458000403A8A63D21FCA63521C54300A6448649A
:1045900014A80CF0C7F9022815D0002813D0E04861
:1045A000DE49283010F0CBFA0DE0817D4906017F0D
:1045B000490701D5042100E00321C03081700021AA
:1045C00006200DF065F92868C18A0A0602D4402247
:1045D0009143C18289B280229143C18206E6286854
:1045E000A030807F032804D0CD48CC49563010F04D
:1045F000A6FA002108460DF04BF9607810233043ED
:10460000607028680146C0314A781A434A70616870
:104610008A783C2A00D1E6E58E8801460122A03145
:104620008A756268D2890A836268128A4A836268DC
:10463000528A8A838E8261680622C979C173616851
:104640001030083110F0DFF80620FFF755FB28681E
:10465000C2210F54017FFB2211400177C7823046EF
:1046600002F05CFB002804D0AD48AC496F3010F07C
:1046700066FA304601F06EFD002804D0A848A7492C
:10468000723010F05CFA304603F0B6F90028A5D07D
:10469000A348A249743026E7607830436070A5E5EE
:1046A00000290BD08880A0480068A030028BCA8007
:1046B000028B0A81428B4A81808B88817047F7B5D3
:1046C000064600780C460027010982B03D460129C4
:1046D00074D0954800680090C03002296FD0072937
:1046E00004D00A296CD08D499048D5E171680A78C8
:1046F000521F130010F014FB0F09B051B0B02F5827
:104700005847B0B0B0B0656FB0008A783C2A1BD073
:1047100010271625002C7DD08888A0807068A21DE7
:10472000C08920827068C089E0817068008A6082D8
:104730007068408AA082716808460831C07901F02B
:10474000D9FA0020607375E019270725002CE2D004
:104750000021A17171E011270725002CDBD0898889
:104760000091A1807168F7228979A1714178114087
:104770004170009802F0D8FA009801F0F5FC00981A
:1047800003F07EF9B6E101270925002CC3D0888803
:10479000A080706880792072ACE1888812270E258D
:1047A0002146FFF77DFFA5E118270825002CB2D090
:1047B0008888A080A01DFFF766FB9BE150E096E192
:1047C00068E01A270725002CA5D04888A0807068CB
:1047D0000079A0718EE18A783C2A32D01027162504
:1047E000002C98D08888A0807068C089208270686A
:1047F000C089E0817068008A60827068408AA08207
:104800007168607B497D40084000C907C90F0843B3
:10481000607300E041E17168C007497DC00F49083D
:104820004900084360737168A21D08460831C079C9
:1048300001F060FA3C480068C0304178EF22114036
:104840003BE119270725002C88D00021A17142786F
:10485000EF210A4042704DE134483049D4381BE121
:10486000307A012803D031482C49BD3814E1122791
:104870000E2570892146FFF713FF002C86D0707833
:104880004007400F032887D127480068C03041788F
:10489000FB22D4E724490968A031002C01D08A8A80
:1048A000A280327A921E130010F03AFA0745505B4C
:1048B000F8E57505F80013270C25002C84D0F16865
:1048C00089788907890F0129217A31D0490849005F
:1048D0002172FD221140F268E32392785207D20F31
:1048E0005200114321720022E2801940F3681B78C4
:1048F0005B07DB0E19432172DF231940F3685B78F5
:10490000DB079B0E194321726272F1680122C9789C
:10491000A17201781143F722114020E0F04000001D
:104920006B030000AC120020500000205F05000067
:1049300001221143CCE715270C25002C84D0F06808
:1049400006220068A11D0EF009FED3E016270725F8
:10495000002C93D0317BA1710178082219E00170FD
:10496000C8E014271225002C88D000980099C07B3D
:10497000A21D103101F0BEF9B089E081207C012137
:104980000843F92108402074FE480068C0300178CF
:1049900002221143E3E717273825002C7DD032216E
:1049A000A01D0FF08DFF0020A071207A0321084385
:1049B000F44A20721168FB260B7F30405B07DB0F47
:1049C0009B0018432072B0204058407A800751D095
:1049D000A07A8A7D4008D2074000D20F1043FD2202
:1049E0001040A0728B7D30409B07DB0F9B0018436B
:1049F00008231843EF231840A0728A7DE07AD2067C
:104A0000D20F304092001043E072F72210408A7DAE
:104A1000D206D20FD2001043E072088BA08120464C
:104A2000102264310E300FF0EEFED649A07F0968E7
:104A3000C0078A7EC00F52001043A0770A7F40084B
:104A400052074000D20F1043A077084644304DC8AB
:104A500020344DC4303C3D20405C224630323E3153
:104A600001F048F9C74800688030006B417A890836
:104A7000890041723EE0327B022A13D01727382585
:104A8000002C2DD0012A1AD0032A1AD0042A1BD0B8
:104A9000052A19D0BC49BD4801E021E023E010F00F
:104AA0004EF827E019270725002C19D0898AA18004
:104AB0000121A17141784908490041701AE00120A3
:104AC00000E00220A07106E0707B0007000F80303C
:104AD000A071052A02D00020E0710BE00120FBE765
:104AE000049805800CE0A948A7490A30D4E7317A38
:104AF000002908D00498002C058001D0278065800B
:104B0000002005B0F0BD19270725002CE8D00021B2
:104B1000C943A1800021A1714178FD228FE600B533
:104B200095B001F0E2F8022813D001F0DEF8032876
:104B30000FD001F0DAF805280BD001F0D6F80928DB
:104B400007D001F0D2F80A2803D001F0CEF80B28E4
:104B500034D11B2108A801730021817369460BA879
:104B600008F048FD002804D1684640781B2802D090
:104B7000032015B000BD002108460CF089FE6846F0
:104B8000807800281AD17F480068A030807F801E7E
:104B9000030010F0C5F80A060613081313130D0FCF
:104BA0001113012000E00420FFF7A6F80020E0E741
:104BB0000620F9E70720F7E70820F5E70820D8E7FF
:104BC00070B500256F4C002807D0022817D06F4819
:104BD0006D495A300FF0B3FF70BDFFF7A0FF0028FA
:104BE000FAD1FEF7D3FB222101700572FEF7EAFB32
:104BF0002068C030417802221143417070BDFEF739
:104C0000C5FB12210170012101722168A0318A8A3D
:104C10004281CD77FEF7D6FB2068C0304178042270
:104C2000EAE770B50D46040004D158485649623091
:104C30000FF085FF2078012805D054485249803074
:104C40000FF07DFF70BDA18851484E4E814209D1C1
:104C5000E288824206D130681321A030808AFFF7B3
:104C600002FA70BD814202D1E08800280AD01220E9
:104C70002870687808210843687007CC083507C594
:104C8000002106E000227823114602200CF05BFD93
:104C900002213068A030C17770BD3A480068C0304A
:104CA0008078704738B504460078364D030010F020
:104CB00037F809C23D0606BC193E7D9CC20001F0D2
:104CC00014F8062808D001F010F8092804D02F485D
:104CD0002D4997300FF033FF28680422017F1143DC
:104CE0000177A2E0A088002820D028682849A030B9
:104CF000808A88421AD0A068002804D1234822491B
:104D0000A7300FF01CFFA06806220A38A0600090B0
:104D10002868A388A030808A042101F033FF00288E
:104D200004D0BD201849C0000FF009FF38BD20791C
:104D3000022811D000F0D9FF0428F7D000F0D5FFE9
:104D40000528F3D0204600F0E6FF28681321A030A4
:104D5000808AFFF788F938BD00F0C7FF072808D020
:104D600000F0C3FF0A2804D008480749B6300FF006
:104D7000E6FE204600F0CFFF28680146C0304278AA
:104D8000012307E050000020F04000003C05000037
:104D9000FFFF00001A434270A031887F072803D02C
:104DA0000920FEF7A9FF38BD0620FAE700F09DFFB5
:104DB00006280FD000F099FF04280BD000F095FFD3
:104DC000092807D000F091FF052803D0F649F748DD
:104DD0000FF0B5FE0DCCF6490B61CA608860A220C9
:104DE00008700846FEF703FB38BD00F07EFF06287A
:104DF00010D000F07AFF07280CD000F076FF0928C9
:104E000008D000F072FF0A2804D0E848E6491330C1
:104E10000FF095FE00F069FF06280AD000F065FF4C
:104E2000072806D00B20FEF767FF204600F073FF2F
:104E300038BD0820F7E71920DB49800174E7FFB58A
:104E400093B00124684603218470C9021D46018085
:104E50000AF0B5F800226946012003F06FF8064613
:104E60000AF0B1F8002E5CD1684615218470490221
:104E7000018000271C2101A808970FF023FD0120C5
:104E80000146103108A801700020014608A84170B1
:104E90008178F9200140891C214308A88170684667
:104EA000017902263143017114998185C7851F213B
:104EB000018608A80A9013980D90684609900AF098
:104EC0007EF80EAA09A901A802F01CFE07460AF006
:104ED0007AF8002F02D0384617B0F0BDB54F6846BB
:104EE0003968008F488068468470B349018008A8FB
:104EF0008078F9210840801C4108490008A8817089
:104F000068468685068615A80D900AF058F80EAA00
:104F100009A901A802F0F6FD06460AF054F8002E91
:104F200001D03046D8E768463968008F8880A249AA
:104F300068468470C91C0180298810A8018069888E
:104F40004180A9888180E988C180082168468185DF
:104F5000018610A80D900AF032F80EAA09A901A83E
:104F600002F0D0FD04460AF02EF8002C01D02046B5
:104F7000B2E768463968008FC8800020ACE770B59A
:104F800004468B48C421A8300FF09CFC8848894D0A
:104F9000A83000212860C943A03081820026867590
:104FA0000120FEF7A9FE2868BF210E5401460931F1
:104FB0000830FEF7E2F8296808462D311D30FEF76B
:104FC00038F9002C26D02868B0210C501E21A18170
:104FD000217A8F221140103121720146183121614E
:104FE00009396161491CA1610839E161491C2162EB
:104FF0009B31616287392160103161601339E16250
:10500000091F21637E31216430396163103184309E
:10501000A163E06370BD10B500F067FE042805D001
:1050200000F063FE042801D0002010BD012010BD57
:1050300030B50446614895B0844208D3012080040D
:105040005F49201A884202D35E48844202D310206E
:1050500015B030BD574D2868A030807F012801D0A1
:105060000820F5E7FFF7D7FF002801D01120EFE770
:105070002D68012028722278002A08D05249172072
:10508000012A0AD0022A1FD0032A25D121E032208A
:10509000694608700020287205E0A2799209032A67
:1050A0001AD16946087000A80622611C02300FF070
:1050B000AAFB28460622611C09300FF0A4FB09A9AF
:1050C000684608F097FAC3E7A2799209012A03D14A
:1050D000E7E7A2799209E4D00846B9E70721490732
:1050E000012210B541189203914201D3102010BD46
:1050F0003049024609680B7A0931184600F0FAFD7A
:10510000002010BDFFB599B0054600206946087122
:10511000087208A9087408751E461446012127481C
:105120008904274A274B002D06D085420DD36F1ADC
:1051300097420AD39D4208D2002C09D0844204D35E
:10514000601A904201D39C4202D310201DB0F0BDE2
:105150002846204318D01F270CAB01AA00972846E9
:105160001A99FEF7E2FE0028F0D10DAB02AA3146F3
:1051700020460097FEF7D9FE0028E7D16846007A5E
:10518000C10703D00A20E1E70720DFE7800705D544
:1051900068460079800701D50B20D7E7FFF73BFF72
:1051A000002813D01120D1E7F040000019060000BC
:1051B0004C12002050000020012A00000050010085
:1051C0000000FC1F004000200232000003AF002D51
:1051D0000FD01A20694608731A9888732946F81C5C
:1051E0001A9A0FF010FB0EA903A808F003FA002882
:1051F000ACD1002C0ED02021684601738673324654
:105200002146F81C0FF0FFFA0EA903A808F0F2F9E6
:1052100000289BD1F94908A80968007C0870002083
:1052200094E7F0B5044695B000201490F448844209
:105230006FD301208004F34F201AB84269D3F2489B
:10524000844266D2207801280BD1ED4960688842FB
:105250005FD301218904411AB9425AD3EA498842ED
:1052600057D200F042FD022824D000F03EFD032872
:1052700020D000F03AFD05281CD000F036FD0928AA
:1052800018D000F032FD0A2814D000F02EFD0B28B3
:1052900010D0DA49BE220868125C012A04D02278B4
:1052A000002A07D0012A05D0C122125CD3069B0F29
:1052B00007D102E0082015B0F0BD930701D45107D3
:1052C00001D51120F7E72178012915D0228ACF4D89
:1052D0001346203BAB4270D2022901D0032901D1F1
:1052E000A02A6AD3012907D00278D20704D0628AA3
:1052F000002A62D0B42A60D8002906D0012909D03A
:10530000022904D0032958D111E0002513E0022519
:1053100011E050E061680125097800290BD00129CE
:1053200007D0022905D0032903D0B948C3E70325D4
:1053300001E001211491217A002906D0012906D02B
:10534000022906D0032938D105E0002604E0012611
:1053500002E0022600E00326002D01D0022D3DD1FF
:10536000002E3BD0E168002927D00A79002A25D0F9
:10537000082A22D80B7B9C46082B7ED8002A0BD00B
:105380009F4B0A689A4216D301239B04D31ABB424F
:1053900011D39D4B9A420ED26246002A12D08968E0
:1053A000974A914207D3012292048A1ABA4202D341
:1053B000954A914206D310207DE75EE00B7B002BDF
:1053C0005BD0D7E70178890702D09148401E72E789
:1053D000022D03D1022E50D0032E4ED01822694642
:1053E0000A70228A4A80228A8A808D71007A012777
:1053F000002802D001287DD102E00020C87100E021
:10540000CF7114980872217802A80130012922D0A6
:1054100006210FF055FA07216846C173067409A9E1
:1054200008F0E8F80028C7D10A206946087009A9E1
:10543000684608F0DFF80028BED13A2069460870B7
:1054400009A9684608F0D6F80028B5D1002D08D083
:10545000022D06D04AE061680622491C0FF0D3F9FC
:10546000D9E7002E42D0002623E00168B000095899
:105470000978002903D0012905D007201BE7002166
:105480006A46917001E069468F70E16806220968FA
:10549000095800A8491C03300FF0B5F90B206946E4
:1054A000087009A9684608F0A5F8002884D1761C80
:1054B000F6B2E0680179B142D7D8002612E08068E0
:1054C000B100415800A8102202300FF09CF93B2097
:1054D0006946087009A9684608F08CF80028CDD103
:1054E000761CF6B2E068017BB142E8D81B21684621
:1054F000017000E035E0877009A908F07BF800280A
:10550000BCD108A840791B282BD1002D0AD0012D31
:1055100004D0022D08D0032D18D105E00320FEF79A
:10552000EBFB26E003200FE034480068A030807FCA
:1055300003000FF0F5FB09160616161816081A1CBC
:105540001600022000E00920FEF7D6FB608A002842
:105550000FD000228300114610460CF0F4F800280A
:1055600007D00320A7E60520EEE70A20ECE70B2092
:10557000EAE700209FE670B586B00C0006460BD027
:105580001F4884425AD3012080041E49201A8842B1
:1055900054D31D48844251D2184DBF212868095C5C
:1055A000022903D0C0304078400702D5112006B050
:1055B00070BD002C04D02046FEF78BFC0028F6D1ED
:1055C0003046FEF751FC012803D0022832D01148A2
:1055D000EDE721002AD1082069468882286801ABBE
:1055E000C08805AA002103F074F80028DFD16846BE
:1055F000808A082810D00320D9E70000500000203E
:10560000005001000000FC1F00400020E13F0000AE
:105610000232000001300000684681888181C18823
:10562000C181018901824189418203A9304601F08B
:1056300002FCBCE7002C01D00620B8E71020B6E73A
:1056400070B50C460546FEF70FFC012803D0022872
:1056500001D0FE4870BD21462846FEF704FD70BD0E
:1056600010B50446143094B0192801D2A00707D011
:1056700020461E3004D00A3002D0072014B010BDDE
:10568000FFF7C9FC002801D01120F7E7F0483121CD
:105690000068447068460170847009A907F0AAFF89
:1056A000ECE701B582B0022069460880E84802AB09
:1056B00000686A468088002102F090FE69460988E9
:1056C000022900D003200EBD38B502216A461180A0
:1056D00007214907012241189203914201D310206A
:1056E00038BDDB49034609686A468C88002120469C
:1056F00002F0EFFF694609880229F1D0032038BD86
:105700003EB50446082069460880D248844208D342
:1057100001208004D049201A884202D3CF48844215
:1057200001D310203EBD2046FEF7D3FB0028F9D15F
:105730002088694688806088C880A0880881E088C1
:105740004881C34801AB00686A46C088002102F066
:1057500045FE694609880829E4D003203EBD1FB5EF
:105760000446082069468881BA48844208D301204B
:105770008004B949201A884202D3B848844202D32F
:10578000102004B010BDB2486B46006803AAC08860
:10579000002102F09EFF0028F3D16946898908297B
:1057A00001D00320EDE769460988218069464988D0
:1057B000618069468988A1806946C988E180E0E7FF
:1057C000FEB50546A34817460E46814208D301217F
:1057D0008904A14A731A934202D3A04B9E4201D37B
:1057E0001020FEBD1F2F01D90C20FEBD984C854214
:1057F0002AD3681A904227D39D4225D2206801A956
:10580000408802F09DFD0028EFD128786946487154
:10581000206801A9408802F076FD0028E5D169469C
:105820000090087802210843694608704979090701
:1058300003D00821084369460870206869464088FB
:1058400002F00BFD0028D0D169460F812068334655
:10585000408802AA002102F0C1FD69460989B942C7
:10586000C3D00320FEBD38B50C46072101224907ED
:105870009203002802D04318934202D26118914249
:1058800001D3102038BD21886A461180002801D03C
:1058900000290BD06E49034609684D88002128462F
:1058A00002F017FF69460988218038BD0C2038BDF9
:1058B00030B50C46674987B08C4208D30121890472
:1058C000654A611A914202D364498C4202D3102086
:1058D00007B030BD5E4D2968A031897F891F0B005C
:1058E0000FF01EFA0405030305030820F0E7FEF796
:1058F000BBFA012803D002282DD05448E8E72088BD
:105900001E2801D20720E3E72868A030807F062800
:105910001FD00A20FEF7F0F90521684601700079D2
:105920008108A0788900C007C00F01436846017153
:10593000FB200140A0788007C00F8000014368462B
:1059400001712188C18009F062FE0028C0D00320C7
:10595000BEE70720DEE70620BAE770B586B014463A
:105960000E46FEF781FA012803D0022801D03748FD
:105970001DE6374D2868C0300078C0070AD000F017
:10598000B4F9042806D000F0B0F9052802D0002EA2
:1059900002D052E008200AE62E48844208D30120B3
:1059A00080042D49201A884202D32C48844201D316
:1059B0001020FCE5A078C006400F04280CD8E17840
:1059C000072909D3102907D82079884204D3102841
:1059D00002D820881E2801D00720E8E52868F72390
:1059E0008030026B9172026B2179D172026B117A55
:1059F0001940A3789B06DB0FDB0019431172026B81
:105A000021889181026BA378517ADB07890889008C
:105A1000DB0F19435172FB231940A378026B9B07DC
:105A2000DB0F9B0019435172006BA278017AD206FA
:105A3000C908C900520F114301720B206946087052
:105A4000852E38D013DC002E2DD009E00130000067
:105A500050000020005001000000FC1F004000200A
:105A6000812E22D0822E22D0832E08D121E0862EB4
:105A700023D0882E23D0892E23D08A2E23D00B200A
:105A8000087100F032F907281FD000F02EF908281D
:105A90001BD00920FEF730F9684609F0B8FD002850
:105AA00015D0032083E50020EAE70120E8E7022083
:105AB000E6E70320E4E70520E2E70620E0E7082028
:105AC000DEE70920DCE70A20DAE70620E2E72868BB
:105AD000C0300178490849000170002067E570B5C1
:105AE000934E0D46316886B0C031097814460907D7
:105AF00001D408205BE5FEF7B7F9012803D002289E
:105B000001D08C4853E5002D12D08B48844208D335
:105B1000012080048949201A884202D3884884429F
:105B200001D3102043E5012D0BD0022D02D106E058
:105B3000002C01D007203AE50020029005E0022069
:105B400000E001206946087102940320694608704C
:105B5000684609F05CFD002801D0032027E5306885
:105B6000F722C03001781140017000201FE570B5A8
:105B700094B014460E46FEF777F9012804D00228A7
:105B800002D06C4814B070BD694D2868C0300078F0
:105B9000800701D40820F5E7002C01D00720F1E7A9
:105BA000FFF739FA002801D01120EBE7002E1DD0B5
:105BB0002D21684601702C68B420015B6846418045
:105BC0001022B11C01A80EF01EFE207FFB21084010
:105BD000B17CC907490F08432077B07CFF214008FA
:105BE000A076E08A82310843E08207E02E216846F1
:105BF00001702868A030818A6846418009A96846FA
:105C000007F0F8FC2968FD23C0310A781A400A70B1
:105C1000B8E710B50C46FEF727F9012803D0022893
:105C200001D0444810BD4448844208D30120800478
:105C30004249201A884202D34148844201D31020AD
:105C400010BD2046FEF71FF9002010BD10B594B01E
:105C50000446FEF709F9012803D0022801D035488F
:105C60000CE500F042F8042812D000F03EF80528B8
:105C70000ED03820694608704C80012008714871A8
:105C800009A9684607F0B6FC0028E9D00B20F5E426
:105C90000020F3E410B594B00446FEF7E5F80128BF
:105CA00003D0022801D02348E8E400F01EF80428BD
:105CB0000FD000F01AF805280BD03820694608707C
:105CC0004C8000200871487109A9684607F092FCD1
:105CD000D4E40020D2E416480068A030807F062873
:105CE00001D3012070470020704711480068A030A0
:105CF000807F704708B51346002806D011A00068C1
:105D0000009048796A468009105C18700622581C79
:105D10000EF079FD08BD10B50446FDF737FBA22152
:105D200001700ECC08300EC0FDF74CFB10BD00001A
:105D30005000002001300000005001000000FC1F56
:105D4000004000200302FF01FFB581B001980E461C
:105D5000C078174610360E37022809D0032840D0E5
:105D600005287DD0F2A1F7480EF0E9FE05B0F0BDA0
:105D7000CC890A2060430E30188031230A98002A0B
:105D80000380F3D04868008890800020D080108184
:105D9000097B9481891FCDB21AE030887168388000
:105DA00048780A7800021043F880C8788A780002A0
:105DB00010433881BA1C091D28460BF03AF8002D13
:105DC00001D0002802D000203871788008360A37C8
:105DD0002046641EA4B20028DFD101990020C870BB
:105DE000C4E7CC890A2060430E30188032230A9819
:105DF000002A0380BAD04868002500889080D580AA
:105E00001581087B401FC0B20090948142E0716808
:105E100032880878FA803A79C30752085200DB0FBB
:105E20001A43FD231A408307DB0F5B001A43FB2351
:105E30001A404307DB0F9B001A43F7231A4003075E
:105E4000DB0FDB001A43EF231A40C306DB0F1B01F5
:105E50001A43DF231A408306DB0F5B011A4300E07D
:105E600020E0BF231A404306DB0F9B011A433A711F
:105E7000C00978718A784B781002184338813A4605
:105E8000C91C00980AF0D5FF002801D0BD703D80E4
:105E900008360A372046641EA4B20028B7D10198FC
:105EA000C57063E7087BCC89801E85B22846083020
:105EB00060431030188034230A98002A03808FD062
:105EC00048681746008890800020D0801081948117
:105ED0001037E000D581C0190CE030883880009878
:105EE00078602A46716800980EF08DFC009808369C
:105EF0000837401900902046641EA4B20028ECD157
:105F00006BE7FFB50546C07881B00C460A9E0300DA
:105F10000EF006FF0BA3071733414F6D8F9D9D9D1C
:105F2000A300207B1746082806D0032804D0854804
:105F30007FA153300EF003FE04990E20088030201C
:105F40000CE0207B1746042804D07E4878A17030EE
:105F50000EF0F5FD04990E20088031203080002FCE
:105F600044D060680088B880607AFF300130F880E3
:105F7000E08938810020B88137E0207B174604286B
:105F800004D070486AA18C300EF0D9FD04990E201F
:105F900008803220E2E7207B1746022804D06948B7
:105FA00063A1A8300EF0CBFD04990E2008803320A9
:105FB000D4E7207B1746042804D062485CA1C33094
:105FC0000EF0BDFD04981021018034203080002F98
:105FD0000CD060680088B880607AFF300130F880AB
:105FE000E08938810020B881F881E870BEE6207B26
:105FF0001746052806D0062804D052484CA1E030A8
:106000000EF09DFD04981221018035203080002F74
:10601000ECD060680088B880607AFF300130F8808A
:10602000E0893881E089B88100203882A988F98127
:10603000DBE7207B1746072804D042483CA1F73015
:106040000EF07DFD04990E200880362086E700962C
:106050002846049B00F02BFD88E635A13A480EF057
:106060006EFD83E670B5054600780C4608260300F1
:106070000EF056FE124C3434241C380A0A0A0A0A5E
:106080000A0A0A0A0A0A0A4C6878002804D02E482C
:1060900027A12C300EF053FD002C03D12A4824A157
:1060A0002D3008E060783043607020E0002CF9D19A
:1060B00025481FA135300EF042FDF3E7002904D03A
:1060C00021481BA13D300EF03AFDFDF75FF9044673
:1060D000407830436070FDF775F908E01A4814A164
:1060E000473002E0184812A14C300EF028FD002C79
:1060F0000AD06078000707D59320207020465822E8
:1061000029460830FBF760F8002070BD0E4808A152
:106110005030EAE710B500200C4C0D490346C20090
:106120008C525218401C0006D370000EF7D010BDE0
:106130007372635C67617474635F636F72652E630F
:10614000000000005A020000B2030000FFFF000040
:1061500054000020FD49088001208870002070470D
:10616000FA4900208870704710B50021F748C943EC
:1061700001800021C17007F077FAD8E7F7B584B045
:106180000546002768460781878068680C460088B6
:1061900000F0EAFB0646287A032805D0002E03D13A
:1061A000EB49EC480EF0CBFC287A2146C01E123198
:1061B000009103000EF0B4FD0FF1F0EF3D09AA4687
:1061C0005C6D34B3CCF28B8BEF00F078012803D0F8
:1061D000DF49AD200EF0B3FCA8896946C0000E303F
:1061E000888030200881002C22D068680188A18036
:1061F000E7802781A989A18100200DE0C100B27943
:1062000009190A74B288CA8182005219D3894B8253
:10621000128A401C8A8280B2A1898142EED8D6E0DF
:1062200002A8009001AB22462946304600F0CAFB86
:10623000F0E002A8009001AB22462946304600F06B
:1062400003FCE7E0F07806281AD0FF20C04922308E
:1062500014E068680188A180E7802781A989A1816D
:10626000B188E181E9892182EA89296900982BE0D6
:10627000F078062804D0FF20B5493C300EF05FFCD2
:10628000E88969461230888035200881002CE0D1E9
:10629000C0E0F078072804D0FF20AD4956300EF05A
:1062A0004EFCA88969460E30888036200881002C73
:1062B000BED068680188A180E7802781A989A18173
:1062C0002046AA890E3029690EF09DFA7FE0E88900
:1062D0006946123080B2382288800A81002C78D03A
:1062E00068680188A180E7802781A989A181287A2F
:1062F000102809D00221A173E9892182EA8929693C
:1063000000980EF080FA85E00121F4E702A80090E1
:1063100001AB224629463046FFF716FD7AE0F078B9
:10632000082803D08A498C480EF009FC14206946DD
:10633000888037200881002C6CD068680188A18093
:10634000E7802781A989A18167820120A0733EE0AF
:10635000F078092804D080487D4917300EF0EFFB13
:10636000288A69461430888037200881002C51D053
:1063700068680188A180E78004212781A173A98929
:10638000A181E9892182298A618220462A8A1430E2
:10639000696999E702E038E01CE024E0F0780A2817
:1063A00004D06D486A4932300EF0C9FB14206946AA
:1063B000888037200881002C2CD068680188A18053
:1063C000E78027810521A173A78127826782F77063
:1063D00020E017E002A8009001AB22462946304693
:1063E000FFF78FFD16E00D206946392288800A816B
:1063F000002C07D00120E08054480188A18027812B
:10640000277307E00699088010E0524850493C3055
:106410000EF095FB6846069980880880002C05D010
:10642000684600892080684680886080002007B028
:10643000F0BDF7B594B015460F46149800F09FFADA
:1064400004000AD0032000F087FB022802D2E07883
:10645000002804D0112017B0F0BD4048FBE71720FA
:10646000694601260883002D0FD00321684601717B
:106470001021018210A80246059004A928460AF0BE
:10648000FEFC00280DD00720E5E7082168460171D1
:1064900000210781C943418105218673C902818199
:1064A0000CE0A878A0712888A08068460521867332
:1064B000C902818100210781C943418109AA0232B1
:1064C00006A901A807F009F9002802D000F06AFA2D
:1064D000C1E707A800906846038B042203211498A3
:1064E00000F050FB0028B6D1E670B4E770B592B06A
:1064F0000D0006460ED000F042FA04000CD0032036
:1065000000F02AFB022802D2E078002806D01120F1
:1065100012B070BD1020FBE71048F9E7172168465C
:10652000818004210172298881816988C1810121CA
:1065300081740B4901820AAA023201A902A807F05C
:10654000CCF800280ED000F02DFAE1E7540000202E
:10655000306100003B0400006302000001300000D5
:106560000228000008A800906846838804220321BE
:10657000304600F007FB0028CAD10221E170C7E7CE
:1065800070B592B00D0006460DD000F0F8F9040089
:106590000BD0032000F0E0FA022802D2E0780028B5
:1065A00005D01120B4E71020B2E7FA48B0E7172170
:1065B0006846818004210172298881816988C181AE
:1065C00001218174F44901820AAA023201A902A8B8
:1065D00007F083F8002802D000F0E4F998E708A853
:1065E00000906846838804220321304600F0CAFAEE
:1065F00000288DD10321E1708AE770B592B00D00BB
:1066000006460DD000F0BBF904000BD0032000F0CB
:10661000A3FA022802D2E078002805D0112077E7FB
:10662000102075E7DB4873E702216846017229886C
:1066300081816988C181172181800AAA023201A95A
:1066400002A807F04AF8002802D000F0ABF95FE793
:1066500008A800906846838804220321304600F091
:1066600091FA0028DBD10421E17051E7F0B591B037
:1066700015000E4607460ED000F081F904000CD03C
:10668000032000F069FA022802D2E078002806D040
:10669000112011B0F0BD1020FBE7BE48F9E717212B
:1066A0006846818004210172298881816988C181BD
:1066B000B1788174318801820AAA023201A902A844
:1066C00007F00BF8002802D000F06CF9E1E708A809
:1066D00000906846838804220321384600F052FA6D
:1066E0000028D6D10521E170D3E7F7B592B0154661
:1066F0000E46129800F043F904000AD0032000F07F
:106700002BFA022802D2E078002804D0112015B01C
:10671000F0BDA048FBE70627002D12D0684607729F
:106720008681C581A5801720694688800AAA023221
:1067300001A902A806F0D1FF002807D000F032F925
:10674000E5E70521684601728681EBE708A800901D
:106750006846838804220321129800F013FA002867
:10676000D5D1E770D3E7F7B592B016460D000ED03D
:10677000129800F004F904000BD0032000F0ECF9AB
:10678000022802D2E078002805D01120BFE71020AF
:10679000BDE78048BBE70727684607728681172157
:1067A000049581800AAA023201A902A806F095FF89
:1067B000002802D000F0F6F8A9E708A80090684683
:1067C000838804220321129800F0DCF900289ED16E
:1067D000E7709CE7F3B5172091B00C46002915D05F
:1067E00021780B000EF09CFA062B05051A041C2BD1
:1067F0001520C01EE28880B2002A02D0A368002BB8
:1068000004D0824204D90C2013B0F0BD1020FBE765
:10681000042905D0A088002811D101E00620F3E763
:10682000119800F0ACF805000BD02078092701285A
:106830001AD0022807D0042824D0052835D00720F4
:10684000E2E75448E0E76846077161880181E18822
:106850004181A06808260390304600F07DF90728A2
:1068600029D34C48801CCFE70C2168460171618810
:106870000181E1884181A06803900EE0E87800285A
:1068800011D118E00D216846017161880181A1884C
:106890004181E1888181A06804900326304600F0A0
:1068A0005BF90228EAD31120AEE70E216846017198
:1068B000217B0172F1E717216846018309AA0232A0
:1068C00006A901A806F009FF002802D000F06AF826
:1068D0009AE707A800906846038B04223146119876
:1068E00000F050F900288FD12178012907D0022922
:1068F0008AD0042905D0052905D0032084E7082182
:1069000002E0EF7080E70A21E9707DE730B591B0D1
:106910000C46054600F033F8002808D0032000F0AC
:106920001BF9022805D31B48801C11B030BD194843
:10693000FBE70F216846017104811721018309AA31
:10694000023206A901A806F0C8FE002802D000F015
:1069500029F8EAE707A800906846038B0422032180
:10696000284600F00FF9E0E70C49884205D00C49B1
:106970000988814201D10A4870470020704710B54C
:10698000FFF7F2FF002802D08178C90700D100206C
:1069900010BD00000130000003280000FFFF0000D0
:1069A00054000020002806D0012805D0052805D075
:1069B000062805D003207047112070470820704733
:1069C0005C487047FFB583B003980C9EC0781D46A5
:1069D00014460F46012803D05749D2200EF0AFF8D5
:1069E000F889C0000E30288030203080387B001FAE
:1069F000C0B20190002C26D078680088A0800020CA
:106A0000E0802081F889A081002616E0F0000519B9
:106A1000C01900902A4641690E3201980AF009FA1D
:106A2000002802D000202874E8810098761C008A93
:106A300068820098B6B2408AA882A089B042E5D8A0
:106A400003990020C870F2E4F8B50646C0781F46E6
:106A500014460D46042804D0FF20374903300EF0B9
:106A60006EF8A889062148430E30388033210698F5
:106A7000002C01801AD068680088A0800020E08087
:106A80002081A989A18103460CE0194606225143C1
:106A90004A190919D789CF81977C8F74128A5B1C98
:106AA0000A829BB2A1899942EFD8F070F8BD70B507
:106AB00014460546142204981A8037220280002CBE
:106AC00018D0486800260088A080487AFF3001303E
:106AD000E080C8892081C889A0816682E87808287A
