:020000040001F9
:10400000F8360020C1410100D3410100D541010033
:1040100000000000000000000000000000000000A0
:10402000000000000000000000000000D741010077
:104030000000000000000000D9410100DB41010048
:10404000DD410100DD410100DD410100DD410100F4
:10405000DD41010000000000DD410100DD41010003
:10406000DD410100DD410100DD410100DD410100D4
:10407000DD410100DD410100DD410100DD410100C4
:10408000DD410100B1650100DD410100DD410100BC
:10409000D3650100917F01007D690100DD410100D0
:1040A000DD410100DD4101000000000000000000D2
:1040B0000000000000000000000000000000000000
:1040C00000F002F800F040F80CA030C808382418BE
:1040D0002D18A246671EAB4654465D46AC4201D140
:1040E00000F032F87E460F3E0FCCB6460126334232
:1040F00000D0FB1AA246AB46334318474C4200009F
:104100006C420000103A02D378C878C1FAD852073E
:1041100001D330C830C101D504680C60704700007D
:104120000023002400250026103A01D378C1FBD8D3
:10413000520700D330C100D50B6070471FB5C04691
:10414000C0461FBD10B510BD04F0B9F81146FFF709
:10415000F5FF00F07CFD04F0D1F803B4FFF7F2FFA7
:1041600003BC04F0D5F80000401E00BF00BF00BF34
:1041700000BF00BF00BF00BF00BF00BF00BF00BF47
:1041800000BFF1D17047000070B505460C461646D9
:1041900002E00FCC0FC5103E102EFAD2082E02D32B
:1041A00003CC03C5083E042E07D301CC01C5361F3E
:1041B00003E021782970641C6D1C761EF9D270BD55
:1041C0000A4802680F210A430260094880470948EB
:1041D0000047FEE7FEE7FEE7FEE7FEE7FEE700003A
:1041E00005480649064A074B704700002405004071
:1041F000D5420100C1400100F8260020F836002019
:10420000F82E0020F82E002000B54148C06980B289
:104210001D38030004F083F818170D2929292929CE
:104220000F2923252929191B1F1113212915292796
:104230001D29012000BD0120FCE70120FAE7012033
:10424000F8E70020F6E70120F4E70120F2E701207B
:10425000F0E70120EEE70120ECE70020EAE701208B
:10426000E8E70120E6E70120E4E70120E2E700B506
:104270002748C06980B21D38030004F050F81817B1
:104280000D29292929290F2923252929191B1F111E
:104290001321291529271D29012000BD0120FCE734
:1042A0000020FAE70020F8E70120F6E70120F4E714
:1042B0000020F2E70020F0E70020EEE70020ECE726
:1042C0000120EAE70120E8E70120E6E70120E4E732
:1042D0000020E2E710B5FFF7CAFF002805D00D481F
:1042E0000D494860C8130D498861FFF78DFF00280C
:1042F00009D0012005210907072212028918C86781
:10430000C0070749C86010BD0648074908607047E4
:1043100040000010DFFF07C000050040006C0040B7
:10432000000500500024F400002000200F2000F0C1
:10433000AEFC00BFBFF34F8FFD48FE49C860BFF31E
:104340004F8F00BF00BFFEE704460D462A462146B8
:10435000F948FFF7EBFF70B5F849F94801F055FD52
:10436000C5B22946F74800F0FEFF0446002C0DD0E8
:10437000082C0BD0F448844208D0F448844205D07D
:1043800000BFF3A2B7212046FFF7D0FF70BD10B5E4
:104390000446FFF7E0FF10BD10B504460120207071
:1043A00000206070A070ED49ED4801F02EFDA08066
:1043B000EC49ED4801F029FDA071EC49EC4801F011
:1043C00024FD2081A08803210902884201D901200F
:1043D000A07010BD7FB505466846FFF7DDFF694652
:1043E000E44801F098F90446002C0DD0082C0BD0BD
:1043F000D548844208D0D548844205D000BFD4A215
:10440000FE212046FFF792FF7FBD00BF00BF0320C3
:1044100005210907072212028918086200BF00BFA0
:1044200000BF00BF052109078918486200BF00BF0F
:1044300000BF00BF052109078918C86300BF00BF7E
:104440007047F8B500BF0020CB4B05220321009038
:1044500002F0C3F8054600BF2E46002E06D000BF6E
:10446000BBA2FF2119313046FFF760FF00BF00BF3C
:10447000C24A0121C24802F02DF9044600BF254678
:10448000002D06D000BFB2A2FF211F312846FFF742
:104490004DFF00BFBB4A0121BB4802F01BF9044697
:1044A00000BF2546002D06D000BFA9A2FF2125315F
:1044B0002846FFF73BFF00BFF8BD3EB500BF68468A
:1044C000007801090901491C009168460078F02133
:1044D00088431030009000BF0A22ACA168466CDF10
:1044E000044600BF2546002D06D000BF98A2FF213C
:1044F00037312846FFF71AFF00BF1120800168DF1F
:10450000044600BF2546002D06D000BF90A2FF2123
:104510003A312846FFF70AFF00BF002001900290C1
:10452000FF219131684681804900C18000210181CD
:10453000FF219131418101A86ADF044600BF254671
:10454000002D06D000BF82A2FF2144312846FFF78C
:10455000EDFE00BF3EBD30B593B0062103918E4AFB
:1045600007CA6B4607C33C2104A803F0F6FD0220EE
:104570000490012168464175018303A90791032135
:10458000818569460C91002104A801F0A5FB044631
:1045900000BF2546002D06D000BF6DA2FF2165316A
:1045A0002846FFF7C3FE00BF14217C4803F0D5FD69
:1045B00000207A4908704860087228200882B420D8
:1045C000488213B030BD30B599B0002016901790D6
:1045D00018901690052010A9488400BF10A8007FED
:1045E00001090901491C10A80177007FF0218843C7
:1045F000103010A9087700BF00BF16A84079000945
:10460000000116A9487116A84079F021884316A91F
:10461000487100BF00BF16A88079000900018871A9
:1046200016A88079F021884316A9887100BF00BFC1
:1046300010A8C07F01090901491C10A8C177C07FDB
:10464000F0218843103010A9C87700BF00BF16A81A
:10465000007A0009000116A9087216A8007AF02154
:10466000884316A9087200BF424801F026F80446A4
:1046700000BF2546002D06D000BF35A2FF218E3198
:104680002846FFF753FE00BF142111A803F065FD73
:1046900000BF10A8407C01090901491C10A8417401
:1046A000407CF0218843103010A9487400BF00BF3F
:1046B00011A8807B00090001401C11A9887311A872
:1046C000807BF0218843103011A9887300BF00BFA0
:1046D00011A8C07B00090001C87311A8C07BF0219C
:1046E000884311A9C87300BF00BF10A8007D01094D
:1046F0000901491C10A80175007DF0218843103084
:1047000010A9087500BF00201190012110A80172A6
:1047100000201390642110A8017411A9094800F029
:1047200001FE044600BF2546002D3FD000BF37E004
:104730000400FA0500ED00E0EFBEADDEC823002066
:104740000C200020942300200330000001340000DE
:104750002E2E5C6D61696E2E63000000D823002050
:1047600014200020E82300201C200020F823002033
:1047700024200020AC230020F02000208F430100E3
:104780002C200020D5430100302000204E6F7264A1
:1047900069635F52534300003C8301008023002083
:1047A000FB4AFF21A0312846FFF7C0FD00BF402192
:1047B00001A803F0D2FCF7A101A801F0F3FA00BFB1
:1047C00010A8007801090901491C10A8017000789F
:1047D000F0218843103010A9087000BF00BF10A856
:1047E000407800090001487010A84078F021884303
:1047F00010A9487000BF01A800F06CFB044600BF80
:104800002546002D06D000BFE14AFF21AB312846E6
:10481000FFF78CFD00BF19B030BD10B55120E24943
:10482000086064204860012088600873DF4801F058
:10483000DFFA8020DE4908600D20C0014860FF20BB
:104840008130886000200873DA4801F0D1FA28200E
:10485000D9490860A02048601420886000200873AF
:10486000D64801F0C5FA1420D54908607D2048607B
:104870000520886000200873D24801F0B9FA10BD05
:104880001E20D14908800846807840084000401C1E
:1048900088700846807802218843CB498870084692
:1048A00080781C2188430C30C7498870084680787E
:1048B00020218843C44988700720C87010200871DF
:1048C000704770B5002201210904C048006801F05A
:1048D0006DFF044600BF2646002E06D000BFAC4A3E
:1048E000FF21E9313046FFF721FD00BF0125ED032F
:1048F00000222946B648006801F058FF044600BF70
:104900002646002E06D000BFA14AFF21EE313046D8
:10491000FFF70CFD00BF70BD70B5AE4863DF044605
:1049200000BF2546002D06D000BF994AFF21F9316E
:104930002846FFF7FBFC00BF082000F0A8F970BD77
:1049400070B50546286800280FD13B21A248008891
:1049500066DF044600BF2646002E05D000BF8C4A05
:104960009E493046FFF7E2FC00BF70BD044600BF21
:10497000874A9A490B312046FFF7D8FC30B587B0FB
:104980001C21684603F0E9FB002000900520C003CD
:10499000019002900321684601739148418968465D
:1049A000C181002101748F4805908F4806906846A8
:1049B00002F073F8044600BF2546002D06D000BF64
:1049C000734A864922312846FFF7B0FC00BF07B082
:1049D00030BD70B5044600252088102806D0112867
:1049E0000ED0132825D0192833D129E0092000F052
:1049F0004EF9082000F050F9A0887749088029E096
:104A0000092000F049F90020C0437349088002F0F2
:104A1000EAFF054600BF2E46002E06D000BF5C4AC6
:104A20006E493C313046FFF781FC00BFFFF774FF51
:104A300010E0654A0021684800886FDF054609E0FC
:104A4000A079002804D1082000F026F931DF0546BE
:104A500000E000BF00BF00BF2E46002E06D000BF02
:104A60004B4A992189003046FFF760FC00BF70BDBA
:104A700010B50446204602F07FFF2146584800F05A
:104A8000E8FC2146594800F050FB204602F0D9F8D6
:104A90002046FFF79EFF10BD38B500BF0020544BE5
:104AA0005022544900900D2001F021FF044600BF20
:104AB0002546002D06D000BF354A484970312846AA
:104AC000FFF734FC00BF00BF38BD00BF00BF0320AC
:104AD00000044949086000BF00BF00BF00BF0521B6
:104AE0000907072212028918486000BF00BF7047FB
:104AF000044600BF264A394987312046FFF716FC95
:104B0000FEB501203D490969C1400140002900D19D
:104B100000E0002006463A484069401C08D00122C7
:104B20001207126991B2364A506903F018FB02E08D
:104B3000012000074069401E6946087030484069FE
:104B4000401C08D001221207126991B22C4A506908
:104B500003F005FB02E0012000074069C01EC1B25E
:104B60006846417000200190264802906846867091
:104B700003F04BF8044600BF2546002D06D000BFC9
:104B8000034A16499E312846FFF7D0FB00BFFEBD01
:104B9000504701004E6F7264696353656D69636FBE
:104BA0006E647563746F7200C82300200C200020AF
:104BB000D823002014200020E82300201C200020FF
:104BC000F823002024200020062000202C20002094
:104BD0003020002080230020042000200F0200004D
:104BE000AC230020414901006D49010094230020BD
:104BF000714A0100302300200007005000050050DA
:104C000000100010F14A010070B5264A052101206C
:104C100003F0CFF9044600BF2546002D05D000BFA4
:104C2000214A22492846FFF781FB00BF70BD70B5BD
:104C30003DDF044600BF2546002D06D000BF1A4ABE
:104C40001A4909312846FFF771FB00BF70BDFFF715
:104C5000DCFBFFF73AFFFFF71FFFFFF751FFFFF7FE
:104C6000F0FBFFF72AFCFFF776FCFFF7ACFCFFF741
:104C7000D4FDFFF783FEFFF703FEFFF7C5FFFFF745
:104C800020FEFFF749FE00BFFFF7D1FFFCE701213F
:104C90008140074A9160704701218140044AD160F8
:104CA00070470000757F010050470100BA02000004
:104CB0000005005070B504460D4600BF002D01D020
:104CC000012000E000200646002E05D100BFE6A22C
:104CD0002E21FFF72BFB00BF00BF00BF002C01D02F
:104CE000012000E000200646002E05D100BFDEA214
:104CF0002F21FFF71BFB00BF00BF287820702988F9
:104D00002879FF231B02194000200206080A1043DD
:104D1000607028791B022968194000200204080CE1
:104D20001043A07029791B0228681840002109024D
:104D3000000E0843E07028792071287A6071190C00
:104D4000A8680840000AA0710902A8680840000C81
:104D5000E07170BDF8B505460E46002400BF002E78
:104D600001D0012000E000200746002F05D100BF40
:104D7000BDA24621FFF7DAFA00BF00BF00BF002D39
:104D800001D0012000E000200746002F05D100BF20
:104D9000B5A24721FFF7CAFA00BF00BF327820460C
:104DA000611CCCB22A542919708800F054F90019FA
:104DB000C4B22919B08800F04EF90019C4B22919FB
:104DC000F08800F048F90019C4B200BF072C01D1E7
:104DD000012000E000200746002F05D100BFA2A25D
:104DE0004F21FFF7A3FA00BF00BFF8BDF0B58FB0A9
:104DF00007460D4614461E4600BF002D01D0012077
:104E000000E0002000900098002805D100BF96A285
:104E10006821FFF78BFA00BF00BF00BF002C01DD47
:104E2000012000E0002000900098002805D100BF7C
:104E30008DA26921FFF77AFA00BF00BF1C2107A8E5
:104E400003F08BF96946087F02218843801C69467C
:104E50000877002008900A900B900C900D9000BFEE
:104E6000012108A881766846078700BF00200190CD
:104E700031786846017171784171807906218843E3
:104E8000811C684681718079082188430146684603
:104E9000817180791021884301466846817180794B
:104EA0004108490068468171142102A803F055F9B0
:104EB0000EA8029001A80390684604820021418256
:104EC0008482069502AA07A974480088149BA2DF71
:104ED0000FB0F0BD7FB5044600BF01216846817365
:104EE0006F49818100BF6D4A03A90120A0DF0546FB
:104EF000002D02D0284604B070BD208800280DDDAA
:104F000068480090228823463C3367486168FFF771
:104F10006DFF0546002D01D02846ECE720890028CA
:104F20000EDD62480090228923463C335E48401FD4
:104F3000E168FFF75BFF0546002D01D02846DAE760
:104F4000208A00280EDD5A480090228A23463C33EE
:104F50005548001F6169FFF749FF0546002D01D044
:104F60002846C8E7208B00280EDD52480090228B8F
:104F700023463C334C48801EE169FFF737FF054666
:104F8000002D01D02846B6E7208C00280EDD4A48C7
:104F90000090228C23463C334348C01E616AFFF7D1
:104FA00025FF0546002D01D02846A4E7208D0028C6
:104FB0000EDD42480090228D23463C333A48401E85
:104FC000E16AFFF713FF0546002D01D0284692E75E
:104FD000206B002813D001A8216BFFF76BFE384827
:104FE00023463C33082201A900902F48801FFFF779
:104FF000FDFE0546002D01D028467CE700BF606B12
:1050000000280FD02F480090606B027923463C3374
:1050100001682548401CFFF7E9FE0546002D01D038
:10502000284668E7A06B002813D001A8A16BFFF702
:1050300091FE254823463C33072201A900901A48D7
:105040002730FFF7D3FE0546002D01D0284652E752
:1050500000BF00204FE702460A70FF200002104008
:1050600000124870022070472E2E5C2E2E5C2E2ED1
:105070005C2E2E5C2E2E5C536F757263655C626CC9
:10508000655C626C655F73657276696365735C62AB
:105090006C655F6469732E6300000000342000209B
:1050A0000A18000036200020292A00003E20002097
:1050B000462000204E200020562000205E200020A8
:1050C000662000206E200020762000208A88428200
:1050D00070470022D24342827047F8B504460E461C
:1050E000207D002820D0B51D2988608981421AD1F1
:1050F000288B022817D12068002814D000BF00BFD9
:10510000A97EEA7E120211430846C107C90F002991
:1051100002D00020009001E0012000906946204666
:105120002268904700BF00BFF8BD70B505460C4629
:105130002088102804D0112807D050280FD109E06A
:1051400021462846FFF7C2FF0AE021462846FFF71E
:10515000C0FF05E021462846FFF7BFFF00E000BF83
:1051600000BF70BDF0B591B004460D46207D00280B
:1051700019D00020099000BF08A800790109090191
:10518000491C08A801710079F0218843103008A952
:10519000087100BF697B08A84171807906218843A6
:1051A000801C08A988711C210AA802F0D6FF08A853
:1051B000007A02218843811C08A80172007A10211C
:1051C0008843217D002901D0012100E0002109014F
:1051D00010221140084308A9087200200B900D907E
:1051E0000E90207D002801D009A800E000200F903B
:1051F0000020109000BF01216846817377498181AA
:1052000000BF00200290A97B68460172E97B4172D1
:10521000807A06218843811C68468172807A082141
:105220008843014668468172807A1021884301468E
:1052300068468172807A4108490068468172297BFC
:105240000191142104A802F088FF03A8049002A889
:10525000059001216846018300214183012181835A
:1052600001A80890A088A31D04AA0AA9A2DF0646E7
:10527000002E02D0304611B0F0BDA86800284DD0F5
:1052800000BF0121684681735549818100BF00201C
:105290000290287C6946087200BF6846407A01097E
:1052A000090168464172407AF02188436946487294
:1052B00000BF6846807A06218843811C6846817257
:1052C000807A08218843014668468172807A1021DD
:1052D0008843014668468172807A410849006846E1
:1052E0008172A96800F040FD0746142104A802F06D
:1052F00034FF03A8049002A80590684607830021A4
:105300004183018B81830890E08822460E3204A9F4
:10531000A3DF0646002E03D03046ACE70020E08134
:105320000020A8E7F8B504460D4628682060002054
:10533000C043608228792075FF20207400BF0121BE
:10534000684681702749018000BF221D69460120FF
:10535000A0DF0646002E01D03046F8BD2946204683
:10536000FFF700FFF9E733B585B004460025207C40
:105370006946097E88422FD0012104916846007E4B
:105380002074E08806AB04AA0021A4DF0546002DA6
:1053900002D0284607B030BD608A1349884219D030
:1053A000207D002816D000200090019002900390EC
:1053B00001210491E188684601800121817000216A
:1053C000818004A8029006A80390608A6946A6DF3F
:1053D000054600E0082500BF2846DBE7192A000043
:1053E000082900000F180000FFFF00008A88C28211
:1053F00070470022D243C282704738B505460C463A
:10540000208B022817D12868002814D000BF00BFC5
:10541000A17EE27E120211430846C107C90F00298E
:1054200002D00020009001E001200090694628464B
:105430002A68904700BF38BD70B504460D46AE1DC2
:1054400031886089814203D131462046FFF7D5FF7C
:1054500070BD70B505460C462088102804D0112870
:1054600007D050280FD109E021462846FFF7BEFF9C
:105470000AE021462846FFF7BCFF05E02146284602
:10548000FFF7DAFF00E000BF00BF70BDF7B50C46C4
:105490001646002701257119A08800F06BF9401904
:1054A000C5B2A2792846691CCDB232540098007E5C
:1054B000C007C00F0AD02078002807D0012007437A
:1054C0007119208900F056F94019C5B20098008B77
:1054D0000221084216D06078002813D0022007432A
:1054E0007119E0680870FF2212020240120A4A7025
:1054F000FF2212040240120C8A70020ECA700422AB
:105500005019C5B20098008B0421084204D0A0783D
:10551000002801D00420074337702846FEBD30B56F
:1055200099B005460C460020119000BF10A80079E4
:1055300001090901491C10A801710079F021884373
:10554000103010A9087100BF217910A8417180792D
:1055500006218843811C10A881711C2112A802F029
:10556000FCFD10A8007A10218843103010A90872A1
:10557000002013901590169011A8179000201890F5
:1055800000BF012108A881737F496846818500BF5B
:1055900000200A90617908A80172A1794172807A8D
:1055A00006218843811C08A88172807A08218843DB
:1055B000014608A88172807A10218843014608A814
:1055C0008172807A41084900491C08A8817214211F
:1055D0000CA802F0C2FD0BA80C900AA80D9001AA1D
:1055E00006A92846FFF752FF0146684601870021B9
:1055F00041871421818701A81090A888AB1D0CAAAF
:1056000012A9A2DF19B030BD70B590B005460C46A6
:105610001C2109A802F0A1FD08A9087902218843EC
:10562000801C08A9087100200A900C900D900E9023
:105630000F9000BF0121684681735349491C818145
:1056400000BF00200290E17968460172217A417220
:10565000807A06218843811C68468172807A0821FD
:105660008843014668468172807A1021884301464A
:1056700068468172807A4108490068468172142127
:1056800004A802F06AFD668968460671311241710C
:1056900003A8049002A80590022168460183002116
:1056A00041830221818301A80890A8882B460E33EC
:1056B00004AA09A9A2DF10B070BDF8B504460E46D1
:1056C000306820600020C043E0827089208300BFE2
:1056D0000121684681702D49018000BF221D694665
:1056E0000120A0DF0546002D01D02846F8BD314637
:1056F0002046FFF714FF0546002D01D02846F5E7A8
:1057000031462046FFF780FF0546002D01D0284690
:10571000ECE70020EAE7F0B58BB004460F46E08ADC
:105720001B49884222D006AA39462046FFF7AEFE22
:105730000646059600200190029003900490E188AF
:1057400068468180012181710021018105A80390B3
:1057500006A80490E08A01A9A6DF0546002D04D121
:105760006846808AB04200D00C2500E00825284613
:105770000BB0F0BD02460A70FF200002104000127C
:105780004870022070470000532A000014180000DF
:10579000FFFF0000FEB505460E4614462078801C2B
:1057A0001F21081A80B200902178891C8819694647
:1057B0006DDF01900198002801D00198FEBD287985
:1057C000002808D0287969460988884203DA2879B0
:1057D0000090082700E0092768460088401CC1B2F5
:1057E0002278501C2070B1542178481C20707754C6
:1057F000217868460088081820700020DEE7F8B598
:1058000005460C462078001D1F2801DD0C20F8BD40
:10581000684669DF0646002E01D03046F7E70321CF
:105820002278501C2070A95419212278501C207015
:10583000A954207841196846008800F08AFA217836
:10584000401820700020E2E7F8B505460F461646DE
:105850001C466868002801D10720F8BD2078801C0C
:10586000298840181F2801DD0C20F6E72878401C05
:10587000C1B22278501C2070B1542178481C20708D
:1058800077542A8823789819696802F007FC2078F1
:105890002978401820700020DFE730B503461078E3
:1058A000C01C1F2801DD0C2030BD02241578681CA7
:1058B00010704C550A241578681C10704C551578DA
:1058C000681C10704B550020EEE7FFB587B0064608
:1058D0001D46109C0020069020780590002747E088
:1058E000B900706841180A88684602814988418178
:1058F000002203A902A854DF04900498002802D0D3
:1059000004980BB0F0BD6846017B099881422ED106
:105910000698002801D0002000E0022001902078A5
:105920006946097B4118019808181F2801DD0C20E1
:10593000E7E70698002809D12078401C20702278DB
:10594000511C08982170A854012006902078421913
:1059500003A902A854DF04900498002801D00498F9
:10596000CFE720786946097B4018207000BF7F1C74
:105970003088B842B4DC0698002806D02178059813
:10598000401C081AC1B2059829540020B9E7FFB598
:1059900081B0074615460A9E009602223846049BAF
:1059A0000299FFF792FF0446002C02D0204605B072
:1059B000F0BD0096102229463846049BFFF785FF6C
:1059C0000446002C01D02046F1E70020EFE7014615
:1059D0000888062808DB08881922D201904205DDD4
:1059E0000888E04A904201D007207047488806287E
:1059F00008DB48881922D201904205DD4888D94A3F
:105A0000904201D00720F0E70888D64A904208D09B
:105A10004888904205D008884A88904201DD0720D6
:105A2000E3E70020E1E7F8B506460D461446207886
:105A3000801D1F2801D90C20F8BD3046FFF7C7FF95
:105A40000746002F01D03846F6E705212278501C82
:105A50002070A95412212278501C2070A954227859
:105A60005119308800F075F921784018207022789B
:105A70005119708800F06DF92178401820700020CD
:105A8000DAE7F8B505460E4614462879801CC7B2F9
:105A90002078801CC0191F2801DD0C20F8BD781C5F
:105AA000C1B22278501C2070B154FF212278501CC2
:105AB0002070B15422789119288800F04AF9217891
:105AC00040182070A88800280EDDA868002801D1A1
:105AD0000720E3E7AA8823789819A96802F0DEFA7C
:105AE00020782979401820700020D7E7FEB50746B6
:105AF0000E461446786B002801D10720FEBD002019
:105B0000019032E0796B0C22019850430D182879EE
:105B1000801CC0B200900098401CC1B22278501C7A
:105B20002070B15416212278501C2070B154227874
:105B30009119288800F00DF9217840182070A88864
:105B400000280EDDA868002801D10720D6E7AA8822
:105B500023789819A96802F0A1FA207829794018C9
:105B600020700198401CC0B201903820C15D01989E
:105B70008142C7DC0020C1E7F8B504460F4616464F
:105B80000025002030702068002809D032463946B0
:105B90002046FFF7FFFD0546002D01D02846F8BD41
:105BA0006079002808D031463846FFF728FE0546C0
:105BB000002D01D02846F2E7208900280BDD33466E
:105BC0003A46012120460830FFF73EFE0546002DEB
:105BD00001D02846E3E7206900280BD00020216986
:105BE000085632463946FFF758FE0546002D01D0CB
:105BF0002846D4E7A08A00280CDD3B460622022175
:105C0000204614300096FFF7C2FE0546002D01D055
:105C10002846C4E7A08B00280CDD3B460722032161
:105C200020461C300096FFF7B2FE0546002D01D03D
:105C30002846B4E7A08C00280CDD3B461522142131
:105C4000204624300096FFF7A2FE0546002D01D025
:105C50002846A4E7E06A002809D032463946E06ABF
:105C6000FFF7E1FE0546002D01D0284697E7206B9F
:105C7000002809D032463946206BFFF702FF05465F
:105C8000002D01D028468AE73820005D002809DD74
:105C9000324639462046FFF729FF0546002D01D040
:105CA00028467CE728467AE701460889002807D07D
:105CB000C868002804D0C86800780422104201D1C6
:105CC000072070470020FCE701460889002801DD15
:105CD000072070470020FCE7F3B593B00D46002184
:105CE000129111911398002814D01398FFF7DCFF3C
:105CF0000446002C02D0204615B0F0BD12AA09A916
:105D00001398FFF739FF0446002C01D02046F3E733
:105D100009AE00E00026002D13D02846FFF7D4FF7F
:105D20000446002C01D02046E6E711AA01A9284626
:105D3000FFF722FF0446002C01D02046DCE701AF2C
:105D400000E0002710A803793A46017A304662DF66
:105D5000D2E702460A70FF2000021040001248708D
:105D600002207047FFFF0000F8B505460E460024EC
:105D700032782146641C6A5472782146641C6A5445
:105D800000BF022C01D1012000E000200746002FB7
:105D900005D100BF08A21B21FEF7C8FA00BF00BF53
:105DA0002046F8BD70B504460D46284602F054F969
:105DB0002080656070BD00002E2E5C2E2E5C2E2E85
:105DC0005C2E2E5C2E2E5C536F757263655C626C6C
:105DD000655C626C655F73657276696365735C624E
:105DE0006C655F7372765F636F6D6D6F6E2E6300AF
:105DF0000A7B002A04D04A6802600022027103E094
:105E00000A68026001220271704702461079002878
:105E10000FD048681368C01A8B68984204D910687C
:105E20008B68C018106013E0486810600020107183
:105E30000EE010680B68C01A8B68984204D910688D
:105E40008B68C01A106003E00868106001201071B0
:105E50001068704710B5002819DAF74A03071B0FBE
:105E6000083B9B089B00D2588307DC0EFF23A3400E
:105E70009A438B071B0E8407E40EA3401A43EE4B94
:105E80000407240F083CA408A4001A5118E0EB4AA8
:105E900003231B02D21883089B00D2588307DC0E11
:105EA000FF23A3409A438B071B0E8407E40EA340F5
:105EB0001A43E24B032424021B198408A4001A513C
:105EC00010BD10B50446DE48846003211120FFF7A1
:105ED000C1FF10BD10B501200004DA494860D9495E
:105EE00040394860112000F0DDFC112000F0CCFCAE
:105EF0000120D54908602F20FEF736F910BD10B5F6
:105F0000112001218140CD4A8032116000BF012063
:105F10000004CC498860CB49403988600120CA49D7
:105F200048602F20FEF720F910BDF0B5024628206A
:105F30005043C64B1B68C118C5480068401C02D1BD
:105F4000C348026057E0C2488B6800682824604359
:105F5000BE4C246800198068834217D8BC4800688A
:105F600028235843B94B1B68C01880688B68C31A34
:105F7000B748006828246043B44C24680019836043
:105F8000B34800684862B248026034E08B68B04DA4
:105F90002C6828680DE028254543AC4E3668AD19BD
:105FA000AD685B1B044628254543A84E3668AD19ED
:105FB000686A451C07D028254543A44E3668AD19AC
:105FC000AD689D42E7D3451C0CD0282545439F4E24
:105FD0003668AD19AD68EE1A282545439B4F3F68DA
:105FE000ED19AE608B60486228256543974E366890
:105FF000AD196A6200BFF0BD70B50246944C2168CD
:10600000084609E0904200D108E0014628244443B4
:106010008E4D2D686419606A441CF3D100BF441C86
:1060200000D170BD814209D1894C246828256C4378
:10603000864D2D686419646A854D2C60282444437C
:10604000824D2D686419A368282444437F4D2D6830
:106050006419656A28244C437C4E3668A41965622D
:1060600028244C43794D2D686419606A441C0CD077
:1060700028244443754D2D686419A468E518282424
:106080004443724E3668A419A56000BFC9E710B535
:10609000112000F000FC10BD10B5142000F0FBFB37
:1060A00010BD70B504466B480068002813D0694ADB
:1060B000216AE06912689047054600BF2E46002E0F
:1060C00007D000BF64A2FF2153313046FEF72EF9FE
:1060D00000BF00BF02E0E169206A884770BDF8B5E3
:1060E0005B480068401C3BD0002667480078401C95
:1060F000C5B2022D00D1002564480078854225D024
:1061000000F0D8FB044662480168204600F0D5FB49
:1061100007464F480068009013E028210098484344
:106120004A4909684418A068B84200D90CE0A06840
:106130003F1AA0688619606A00902046FFF7B1FFF9
:1061400000BF0098401CE8D100BF00BF4E48007857
:10615000800050490E504C480570FFF79DFF00BF6E
:10616000F8BD014649480078474A127890421DD050
:10617000464800788000474A105808604348007835
:10618000401C424A107010460078022801D10020BD
:1061900010703F4A0868126880183D4A1060104627
:1061A00000680002000A10600120704700200860AB
:1061B00000BFFAE7FEB5264800680190364800782F
:1061C000009074E00098C0003449096844182578AC
:1061D00069E01820684361680F18681CC5B2A07890
:1061E000A84200D100253868022802D0032857D1E0
:1061F0000EE0282178684843144909684618307E23
:10620000002804D07868FFF7F7FE0020307648E0D9
:106210000CE00F490968282251430C4A126888187B
:10622000002101760A4A416A116000BF08480068EF
:10623000401CEED135E000001CED00E000E100E084
:106240000015014040130140001001408020002053
:106250008C200020A02000202E2E5C2E2E5C2E2EC6
:106260005C2E2E5C2E2E5C536F757263655C6170C4
:10627000705F636F6D6D6F6E5C6170705F74696D80
:1062800065722E63000000009D2000209C200020ED
:1062900090200020942000208520002088200020CD
:1062A00000BF00BF00BF6078A84292D100BF009835
:1062B000411EC9B20091002884D1FA4801680198B2
:1062C000814201D00120FEBD0020FCE7F0B503466D
:1062D000002426E0F34E366828277E43F24F3F68BD
:1062E000F01986689E4203D98668F61A86601CE01B
:1062F00086689B1B86683419002686600676E94E00
:106300003568E84F466A3E604669002E08D00E198F
:106310003602360AC660466906611668466215602E
:1063200000BFE0480068401CD4D100BFF0BDFEB5FE
:106330000746DC4800680290DC480078019069E07C
:106340000198C000DA49096845185CE0781C07D05C
:106350003E4628207043D44909684418676A23E000
:106360002978182359436A6850182978491C2970DC
:106370002978AA78914201D1002129704668282104
:106380007143C94A12688C180168012902D1217E23
:10639000002900D037E08168E160C16821610169AE
:1063A00061614169216200BFC249E0680968401A21
:1063B0000002000AC049884208D2BE49E068096864
:1063C00000F07BFA21694018A06011E0B948E1684B
:1063D000006800F072FA009021690098814204D9A7
:1063E00021690098081AA06001E00020A06000BFA9
:1063F0000020E060206101202076801E606230462F
:10640000FFF793FD00BF781CA0D1287869788842F7
:106410009CD100BF0198411EC9B2019100288FD1C3
:10642000A04801680298814201D00120FEBD0020F1
:10643000FCE7FEB505469B480068401C33D09948F0
:10644000006828214843984909684018866800F088
:1064500031FA0290974804682146029800F02DFA1C
:10646000C01C0190681C01D1FFF734FD0198B042B7
:1064700001D2304600E0019804192402240A204683
:106480008E49086000BF00F015FA0090029900F0F4
:1064900014FA07462046029900F00FFA874201D904
:1064A000FFF7F5FD01E0FFF72AFDFEBDFEB5002078
:1064B000C04301907F4804687A4807686846FFF740
:1064C00050FE0546FFF776FE0646002D05D001AAD0
:1064D00021460098FFF7FAFE01260198FFF727FFF3
:1064E000002800D00126002E02D03846FFF7A1FF79
:1064F000FEBD30B501464878421C8878904200D1F4
:1065000000220878904201D1002030BD487818253B
:1065100068434C6823184A701846F6E7FFB581B007
:1065200005460E461746E900614A12688818FFF7CB
:10653000E0FF0446002C02D1042005B0F0BD01208C
:106540002060666000F0B6F9A060E7600498206102
:106550000A986061FFF7A0FD0020EEE770B50546E0
:106560000E46E900524A12688818FFF7C2FF044637
:10657000002C01D1042070BD022020606660FFF76E
:106580008BFD0020F7E770B50546E900484A126820
:106590008818FFF7AEFF0446002C01D1042070BD1F
:1065A00003202060001F6060FFF776FD0020F6E703
:1065B00010B50020424908600021414841608160D7
:1065C000C16000203E49403908604860FFF787FD00
:1065D00010BD10B5FFF76AFF10BDFFB581B00E46C4
:1065E00017461C4620468107890F01D1012100E092
:1065F0000021002902D1072005B0F0BD002C01D1F7
:106600000720F9E7FFF77BFC2E490A9808602E481F
:1066100006702548046000250CE00021282068430E
:10662000214A12681150282068431F4A12688018B6
:1066300001766D1CB542F0DB28207043041903205D
:106640001A4908701A480460183400250CE0E90063
:10665000174A1268881800210170417087704460E1
:10666000182179430C196D1C032DF0DB0020C04369
:106670000C4908600020154908701549087014205D
:1066800000F010F903211420FFF7E4FB142000F0C0
:10669000FBF80198FFF715FC00F00CF905490860BC
:1066A0000020A9E78C2000208020002085200020E9
:1066B0008820002090200020FFFF7F00401501402F
:1066C00040110140A0200020842000209C200020B8
:1066D0009D20002070B503460C467A4800680028CB
:1066E00001D1082070BD002A01D10720FAE7002B54
:1066F00001D10720F6E700211CE028204843714D16
:106700002D682858002814D10125282048436D4EB3
:1067100036683550282048436A4D2D68401944603A
:1067200028204843674D2D684019C2611960002038
:10673000D8E7491C644800788142DEDB0420D1E7B9
:1067400030B500BF61484068C205D20D002A1ED096
:106750001346103B184600280CDA5C4C1C34050725
:106760002D0F083DAD08AD0064598507ED0EEC40D6
:10677000A4090AE0564C03252D0264198508AD00D2
:1067800064598507ED0EEC40A409E0B200E0042056
:10679000012802D0032804D101E0002103E00121F7
:1067A00001E0022100BF00BF084630BDFEB504462F
:1067B0000D46164643480068002801D10820FEBD5A
:1067C00041480078844201D2052D01D20720F6E726
:1067D000282060433B4909680858012801D0082057
:1067E000EDE72820604337490968401840680128D0
:1067F00001D1284600E000200746FFF7A1FF3B46F5
:106800002A46214600960190FFF788FED7E770B52B
:1068100004462C480068002801D1082070BD2A4891
:106820000078844201D30720F8E7282060432549F7
:1068300009680858012801D00820EFE7FFF780FF1A
:1068400005462146FFF78AFEE8E710B51D480068B7
:10685000002801D1082010BDFFF772FF0446FFF7A2
:1068600092FEF8E710B5044600F024F820600020FE
:1068700010BD70B505460E4614463146284600F058
:106880001CF82060002070BDC206D20E012191408C
:106890000F4A11607047C206D20E012191400D4A85
:1068A00011607047C206D20E01219140094A803220
:1068B000116070470848406870470246501A00024D
:1068C000000A7047802000208420002000ED00E0B6
:1068D00000E100E000E200E00015014070B506466E
:1068E0000C46154629462046FDF72EFD70BDFFB526
:1068F00081B00C4616461F4620468107890F01D1FC
:10690000012100E00021002902D1072005B0F0BDDF
:10691000002C01D10720F9E72548046025480680AE
:106920002548076025490A9808602549019810DF25
:106930000546002D01D02846E8E7162023DFE5E7CD
:1069400038B500BF1B4800880090694618480068A9
:1069500050DF0446052C00D10EE0002C06D000BF0D
:1069600018A25F212046FDF7E1FC00BF1048006837
:10697000114909688847E5E700BF38BD70B50F4881
:106980000068002810D00D4800688047044600BF0A
:106990002546002D06D000BF0AA271212846FDF72A
:1069A000C5FC00BF00BF01E0FFF7CAFF70BD0000DB
:1069B000AC200020B0200020A4200020A82000202F
:1069C000DD6801002E2E5C2E2E5C2E2E5C2E2E5CA1
:1069D0002E2E5C536F757263655C626C655C626CD5
:1069E000655F737461636B5F68616E646C65722E62
:1069F0006300000001464888B74A1288904206DBCF
:106A00004888B54A5288904201DC01207047002036
:106A1000FCE738B50546B1480088B14988423BD00B
:106A2000B0480078401CAF490870AF48007B097837
:106A300088420FDBA849A948008865DF0446002C7E
:106A400007D0A9488069002803D0A748816920465B
:106A5000884721E00020A3490870A348007C002853
:106A60000FD03B219D48008866DF0446002C07D0EC
:106A70009D488069002803D09B488169204688474B
:106A800000BF99484069002806D000200090964831
:106A900041696846884700BF38BD70B505461C226D
:106AA00029469148FDF770FB00209049087028683E
:106AB00000280BD008228848296801F0EFFA8648A0
:106AC0006ADF0446002C08D0204670BD82486BDF88
:106AD0000446002C01D02046F7E70020C0437F4940
:106AE000088000207F490870814A00218148FFF713
:106AF000F1FDEAE710B57F480068FFF788FE10BD9A
:106B000038B57D48FFF776FF002829D1774800780F
:106B100000280AD074484069002820D00020009046
:106B2000714841696846884719E06E480078002836
:106B300002D16D48456801E06B488568002229460E
:106B40006C480068FFF732FE0446002C07D0664808
:106B50008069002803D064488169204688470AE09C
:106B600061484069002806D0012000905E484169D4
:106B70006846884700BF00205C49087038BD10B5E2
:106B80000446A08855490880082221460E315A48FB
:106B900001F084FA0020534908705348C089002846
:106BA00001D1FFF7ADFF10BD70B505460020C04311
:106BB0004A49088000204B4908704E480068FFF79A
:106BC00026FE0446002C07D047488069002803D0E1
:106BD000454881692046884770BD70B50546AC1DA3
:106BE00020884149C989884220D1208B02281DD1A3
:106BF00000BF00BFA17EE27E120211430846C1071A
:106C0000C90F002902D0FFF77BFF0FE03948006869
:106C1000FFF7FDFD0646002E07D0334880690028A7
:106C200003D0314881693046884700BF70BD10B538
:106C300004460822A11D304801F030FAFFF760FF3A
:106C400010BD10B504462088102806D0112808D0A1
:106C500012280ED0502810D107E02046FFF78FFFF2
:106C60000CE02046FFF7A0FF08E02046FFF7B5FF45
:106C700004E02046FFF7DBFF00E000BF00BF10BDCF
:106C800038B5044608222146134801F007FA124895
:106C90006ADF0546002D1CD11748FFF7ABFE002820
:106CA0000BD10120114908700B490C48008865DFA1
:106CB000054601200B4908700BE00B48406900288D
:106CC00006D001200090084841696846884700BF07
:106CD0000025284638BD0000B6200020C020002036
:106CE000FFFF0000BE20002008240020B420002068
:106CF000136A0100CC200020C22000200246100CA4
:106D00000004F84B984202D10A8000207047501CC2
:106D100001D10520FAE70B20F8E770B505460121FF
:106D20000907096988B2502101F019FAEE4909787A
:106D3000884201D8042070BDEB480078002810D1AB
:106D400000221146104601F001F8E8490880E849A0
:106D50000878E84901F005F90446002C01D02046E6
:106D6000E9E713222946E3480068001D01F066F8B0
:106D70000446002C01D02046DDE7DC4A4C212846A1
:106D800000F0E4FFD949088008460088D54A10433E
:106D90000146D848006801F048F80446002C01D0AC
:106DA0002046C8E7D34800685030D2490860CE4832
:106DB0000078401CCC4908700020BCE770B505463F
:106DC00001210907096988B2502101F0C8F9CA49AF
:106DD0000978884201D8042070BDC748007800288F
:106DE00010D100221146104600F0B0FFC3490880C0
:106DF000BF494878C24901F0B4F80446002C01D0DC
:106E00002046E9E707222946BD480068001D01F039
:106E100015F80446002C01D02046DDE7B74A1C21B6
:106E2000284600F093FFB549088008460088AD4A1F
:106E300010430146B248006800F0F7FF0446002CFA
:106E400001D02046C8E7AE4800682030AC49086051
:106E5000A9480078401CA84908700020BCE738B554
:106E60000546A1480078002810D10022114610469E
:106E700000F06CFF9D4908809D4908789D4901F00C
:106E800070F80446002C01D0204638BD99490968A5
:106E900008686946FFF732FF0446002C01D02046FF
:106EA000F3E74C2293480168091D2846FDF76CF969
:106EB0008E4A4C21284600F049FF8C49088008463C
:106EC00000886946098888420BD187480078401CB1
:106ED000854908708748006850308649086000205E
:106EE000D3E70B20D1E738B5054683480078002862
:106EF00010D100221146104600F028FF7F4908807B
:106F00007B4948787E4901F02CF80446002C01D0DA
:106F1000204638BD7A49096808686946FFF7EEFEE1
:106F20000446002C01D02046F3E71C227448016877
:106F3000091D2846FDF728F9704A1C21284600F053
:106F400005FF6E490880084600886946098888421E
:106F50000BD169480078401C674908706848006890
:106F60002030674908600020D3E70B20D1E710B537
:106F70005F49087800F074FF0446002C01D02046D9
:106F800010BD5B49487800F06BFF0446002C01D02F
:106F90002046F5E70020F3E738B5002211461046F9
:106FA00000F0D4FE0090002409E068216143554AB6
:106FB00088186A464C2100F0C9FE0090641C5248B3
:106FC00000788442F1DB6846008848490988884295
:106FD00001D0012038BD0020FCE738B50022114661
:106FE000104600F0B3FE009000240BE068216143DE
:106FF000444A891808464C306A461C2100F0A6FE17
:107000000090641C404800788442EFDB68460088AA
:107010003A490988884201D0012038BD0020FCE7A8
:1070200070B505463948406E002808D03748406E94
:10703000142801D9032070BD344C503400E00024E2
:1070400032484C30008B82B2214631480088A9DF9B
:10705000F1E710B5002100202E4A10702E4A107062
:107060003BE068224A43274BD018427A5207D20F9E
:107070001FD04222125C002A1BD04222125C012A3D
:1070800017D04222125C032A13D0027852B2224B4C
:107090001B78DB00214CE25402461E321E4B1B784B
:1070A000DB001B195A601C4A1278521C1A4B1A70CA
:1070B00012E0027852B2174B1B78DB00184CE254F6
:1070C00002464232134B1B78DB001B195A60114AEF
:1070D0001278521C0F4B1A70491C0B4800788142E1
:1070E000BFDB10BD0000DE45E4200020D8200020DA
:1070F00044240020DC200020E5200020DA200020AD
:10710000E0200020B8240020D420002050240020BB
:10711000D2200020D5200020D62000207826002074
:10712000582600207CB50546FE480078042801DB7F
:1071300004207CBD32222946FB4800F0AFFFE988DD
:10714000F948001FC18700214166F6480078F649DA
:10715000091F0860F3490978F24A1278521CF14B72
:107160001A7068225143F14A88186822EE49091FB3
:10717000FDF70AF8FFF76DFF00221146EC48008882
:10718000A9DF0446002C01D02046D2E7E648001FC4
:10719000FFF7C3FD0446042C15D1E64840680028DB
:1071A00011D004200090E048001F007841B26846EA
:1071B0000171DD48001FC18F6846C180DD4841680C
:1071C0006846884703E0002C01D02046B1E7D94843
:1071D0004068002811D000200090D348001F00789C
:1071E00041B268460171D048001FC18F6846C18016
:1071F000D04841686846884700BF002099E770B5CD
:10720000C948001F0568002D10DBC648007885427C
:107210000CDA68216943C54A88186822C249091FE7
:10722000FCF7B2FFFFF715FF002400E0032420461F
:1072300070BD70B505460020C043BB49091F0860FA
:10724000002412E068206043B8494018C08FA8426B
:107250000AD1682060430A4681186822B248001F9C
:10726000FCF792FF002070BD641CAE480078844299
:10727000E8DB0520F7E770B594B00020A949087055
:107280002FE001A8FFF7EBFD0546052D00D12CE00E
:10729000002D02D0284614B070BD019EA148007890
:1072A000864201DD0B20F6E7682171439F4A88186A
:1072B0004C2201A9FCF768FF9A48007886420FD15A
:1072C000002168207043994A80184166491E682051
:1072D00070438018C16493480078401C914908703D
:1072E00000BF904800780428CBDB00BF00241DE0DD
:1072F0000DA8FFF7F8FD0546052D00D11AE0002D79
:1073000001D02846C7E7874909780D98884201DDF2
:107310000B20C0E768220D995143844A891808461A
:107320004C301C220DA9FCF72FFF641C7D4800780F
:107330008442DDDB00BF7B48047810E00021C943B4
:1073400068206043794A115000216820604380180A
:107350004166491E682060438018C164641C042C87
:10736000ECDBFFF776FE002095E702461078C007B9
:10737000C00F0B78DB07DB0F984211D11078800724
:10738000C00F0B789B07DB0F984209D1107840079C
:10739000C00F0B785B07DB0F984201D101207047CB
:1073A0000020FCE702461078C007C00F0B78DB070F
:1073B000DB0F984221D110788007C00F0B789B0714
:1073C000DB0F984219D110784007C00F0B785B078C
:1073D000DB0F984211D110780007C00F0B781B0704
:1073E000DB0F984209D11078C006C00F0B78DB067E
:1073F000DB0F984201D1012070470020FCE770B5F7
:1074000004460D4620882988884217D1A07CC007F1
:10741000C00FA97CC907C90F88420FD1A07C4008C2
:10742000A97C4908884209D1A07C4208A91CA01C5B
:1074300000F0E4FD002801D1012070BD0020FCE730
:1074400070B504460D4610222946204600F0D6FDB0
:10745000002801D1012070BD0020FCE770B5054671
:107460000C4628782178884208D10622611C681CC5
:1074700000F0C4FD002801D1012070BD0020FCE710
:1074800070B504460D4620782978884233D160785B
:10749000697888422FD1A91CA01CFFF766FF00283D
:1074A00029D0E91CE01CFFF760FF002823D0291D2C
:1074B000201DFFF777FF00281DD0691D601DFFF715
:1074C00071FF002817D0A91DA01DFFF798FF002805
:1074D00011D029461A3120461A30FFF7B1FF002893
:1074E00009D029462A3120462A30FFF7B7FF002865
:1074F00001D0012070BD0020FCE77CB50446A088C7
:107500000B4908800020C0430749091F0860072273
:10751000A11D05483E3000F0C1FD00210248001FBA
:10752000416609E0D420002054240020B824002023
:10753000D220002044240020607BC007C00F19D057
:10754000607B4508042D04DAE800FD49085604284C
:1075500004DBFC488168032088470AE0E800F84A19
:10756000105668225043F84A81186822F748FCF701
:107570000BFE20E0002518E0E800F54940184668B9
:107580000622F2494331701C00F038FD00280BD16F
:10759000E800EF4A105668225043EB4A81186822EF
:1075A000EA48FCF7F1FD04E06D1CEA4800788542EA
:1075B000E2DB00BF00BFE5480068401C13D0E14893
:1075C000406800280FD001200090E048007841B2C8
:1075D00068460171DD48C18F6846C180D94841685D
:1075E0006846884700BF7CBD70B50546D74800682F
:1075F000401C03D0D8480078002806D1002211464C
:10760000D6480088A9DF044603E0D048FFF708FD0C
:107610000446002C03D0CB4881682046884770BDC3
:107620007CB504462146C948001DFFF729FF002804
:107630003CD132222146C548001D00F02FFDE188D3
:10764000C248C187FFF769FB0546042D13D1BD4829
:10765000406800280FD004200090BC48007841B258
:1076600068460171B948C18F6846C180B548416814
:107670006846884705E0002D03D0B2488168284657
:107680008847B048406800280FD003200090AF48DA
:10769000007841B268460171AC48C18F6846C1802C
:1076A000A84841686846884700BF00BF7CBDF8B560
:1076B000074600BFAA480078002801D10820F8BD7D
:1076C00000BF0026F64300240AE0682060439E497C
:1076D0004018C08FB84201D166B205E0601CC4B248
:1076E000A04800788442F0DB00BF701C01D1052067
:1076F000E5E7F4B226E0621C68235A43924BD118A6
:1077000068226243D0186822FCF73EFD682060437F
:107710008D490858401E682161438B4A50506820AB
:10772000604311464018C06C411C09D0682060437A
:1077300011464018C06C401E682161438918C86416
:10774000601CC4B287480078401EA042D3DC854943
:107750000978491E682251437B4A8818682100F045
:10776000FCFC80480078401E7E4908707549087806
:107770007D4900F0F6FB0546002D01D028469EE726
:1077800070494878794900F0ECFB0546002D01D09E
:10779000284694E7FFF7EBFB0546002D01D028466D
:1077A0008DE70020724908707249087000240CE0CF
:1077B00068216143644A8818FFF7AFFA0546002D37
:1077C00001D028467BE7601CC4B26648007884423A
:1077D000EEDB00240EE0682161435B4A891808460D
:1077E0004C30FFF7EBFA0546002D01D0284666E73E
:1077F000601CC4B25B4800788442ECDBFFF729FCD4
:1078000000205CE770B504462078002800D070BDE9
:107810004E480068401C21D1E088FFF70AFD05466C
:10782000002D02D0052D08D106E04849098888B20C
:10783000FFF73DFF054601E000E000BF00BF4648FE
:107840000078012809D12046FFF76CFC0546002D81
:1078500003D03C4881682846884702E02046FFF76D
:10786000DFFE00BFD3E770B505460C22A91D3748DF
:10787000363000F013FC3549C88FFFF7DAFC0446B8
:10788000002C0DD1002231490A313448008871DFC3
:107890000446002C18D02B4881682046884713E006
:1078A000052C11D1002211462C48008871DF0446B6
:1078B000002C03D0234881682046884700221146C7
:1078C00026480088A9DF0446002C03D01D488168A3
:1078D0002046884770BDFEB5044620780607360F5F
:1078E00020780709012E01D1012F03DC022E25D1BA
:1078F000002F23D000BF01201749087000BF134894
:10790000FFF78EFB0546002D03D00E488168284600
:1079100088470C48406800280FD0022000900B4890
:10792000007841B2684601710848C18F6846C1803D
:10793000044841686846884700BF00BFFEBD00009C
:107940007826002044240020B82400205024002061
:1079500058260020D5200020E6200020D22000203C
:10796000D0200020D4200020DC200020E0200020B7
:10797000E4200020E520002010B50446E44800780B
:10798000002803D1E3488168082088472088172809
:107990001AD006DC102809D011280BD014281FD1CA
:1079A00016E0182818D052281AD109E02046FFF70F
:1079B000A4FD16E000BF0020D749087000BF10E00A
:1079C0002046FFF711FE0CE0A01DFFF71BFF08E0AB
:1079D0002046FFF748FF04E0A01DFFF77CFF00E012
:1079E00000BF00BF10BD38B500BFC94800780028EF
:1079F00001D1082038BD00BFC8480068401C1CD019
:107A0000142000906A46C5495031C5480088AADF55
:107A10000446002C01D02046ECE7C0480068BF496E
:107A2000C86468460188BD484166FFF7E8FB044624
:107A3000002C01D02046DDE700BFFFF7ADFA00289B
:107A40001DD0B449087800F00BFA0446002C01D090
:107A50002046CFE70020B349087000250BE06821DD
:107A60006943B14A8818FFF758F90446002C01D041
:107A70002046BFE76D1CAD4800788542EFDBFFF77D
:107A8000ACFA00281FD0A349487800F0E9F9044671
:107A9000002C01D02046ADE70020A5490870002544
:107AA0000DE068216943A04A891808464C30FFF769
:107AB00085F90446002C01D020469BE76D1C9B48AD
:107AC00000788542EDDB0020C0439549088093494A
:107AD0000860C86400219148416600208AE738B5F3
:107AE0008E48406E002826D1142000906A468B49AB
:107AF00050318B480088AADF0446002C01D0204674
:107B000038BD864800688549C8646846018883484E
:107B100041660146096868225143834A891808462C
:107B20004C301C227D494C31FCF72EFB7B484C30FD
:107B3000FFF744F9E4E70820E2E710B5744800785D
:107B4000002801D1082010BD00207849087075492F
:107B5000087077490870FFF70AFAF4E770B5044631
:107B60000D46601C0DD071480078844209DA002D62
:107B700007D0682060436C494018407A4007C00F26
:107B800001D0072070BD68206043674A8018014615
:107B900042310722284600F081FA0020F2E710B5B2
:107BA0000246002107E0C800624BC01840688B0005
:107BB000614CE050491C614800788142F3DB0021B0
:107BC00007E0C8005E4BC01840688B005D4CE05079
:107BD000491C5D4800788142F3DB5B4800781071F6
:107BE00059480078002801D0564800E00020106075
:107BF00052480078107351480078002801D04E4850
:107C000000E000209060002010BD70B50546A86817
:107C1000002801D1072070BD01210907096988B238
:107C2000502100F09CFA042801D20C20F3E73948D7
:107C300029460EC90EC06821384800F08EFA00208F
:107C4000C04336490860364908800020374908702B
:107C5000344908703649087000BF2F49087000BFCA
:107C60002C488078002806D0FFF781F90446002CC4
:107C700001D02046CFE7FFF7FEFA0446002C01D0E2
:107C80002046C8E70120224908700020C3E710B54C
:107C9000034600BF1E480078002801D1082010BD0F
:107CA00000BF002901D10E20F9E708881F4C247875
:107CB000A04201DA0C20F2E71C4800780880002B73
:107CC00001D10020EBE7002200BF07E0682050430D
:107CD000154C0019C08F54001853521C13480078DB
:107CE0008242F3DB0020DAE7014600BF0848007853
:107CF000002801D10820704700BF074800780028FD
:107D000001D0012000E0002008700020F3E700000F
:107D1000D020002044240020E62000205024002011
:107D2000D2200020E4200020B8240020D42000200D
:107D3000E52000207826002034240020D6200020D2
:107D40005826002024240020D520002070B50346AA
:107D50000C46002A01D1894D00E0158828460021F3
:107D600011E0051206023543A8B25D5C68400506C5
:107D70002D0F684005034540A8B205062D0D6D0086
:107D800068404D1CA9B2A142EBDB70BD02217C4AC8
:107D9000516000BF7B4909680029FBD078498860A1
:107DA00000BF784909680029FBD00021744A51605E
:107DB00000BF744909680029FBD070470122704B4D
:107DC0005A6000BF6F4A1268002AFBD0016000BFF2
:107DD0006C4A1268002AFBD00022694B5A6000BF2F
:107DE000684A1268002AFBD0704770B504460D46F9
:107DF00000E03DDF644800780028FAD101206049A6
:107E0000486000BF5F4800680028FBD0256000BFC5
:107E10005C4800680028FBD000205949486000BF3A
:107E2000584800680028FBD070BD70B504460D4668
:107E300029462046FFF7D9FF002070BDF8B505465A
:107E40000E461746002407E0A00031582846FFF7E9
:107E5000CCFF2D1D601C84B2BC42F5DB0020F8BDB8
:107E600070B5044601200007006980B260430546F2
:107E70002846FFF78BFF002070BDF7B584B015468C
:107E800001200007006980B20499484307463C4638
:107E9000A90000220598FFF759FF03902068019080
:107EA000019880B2029003990298884202D1002082
:107EB00007B0F0BD3846FFF769FF241D241D0026DA
:107EC00007E0B200059881582046FFF777FF241D90
:107ED000761CAE42F5DB2946381DFFF786FF2B499D
:107EE00003980843019038460199FFF77EFF002070
:107EF000DEE7F7B586B007461446012000070069A3
:107F000080B278430490049D286803900398000C85
:107F1000000401901D490198884204D0002020707F
:107F2000052009B0F0BD2D1D287820702D1D20786A
:107F3000800005902946059A0798FCF725F92078D6
:107F4000810000220798FFF701FF06460F483043E3
:107F5000029003990298884201D00520E1E70020B1
:107F6000DFE7024601200007006980B25043086045
:107F7000002070470449087070470000FFFF0000B0
:107F800000E5014000E40140E72000200000DE455C
:107F900010B5184800780121484016490870164865
:107FA0000068002804D0084600781349096888470B
:107FB00010BDF8B505460F4616460F480660152059
:107FC00027DF0446002C01D02046F8BD29461520A5
:107FD00028DF0446002C01D02046F6E7152023DFD9
:107FE0000446002C01D02046EFE73946032049DF44
:107FF000EBE70000E8200020EC200020034610B54D
:108000000B439B070FD1042A0DD308C810C9121FB8
:10801000A342F8D018BA21BA884201D9012010BD74
:108020000020C04310BD002A03D0D30703D0521C48
:1080300007E0002010BD03780C78401C491C1B1B76
:1080400007D103780C78401C491C1B1B01D1921EE0
:10805000F1D1184610BD000030B5441C03E0017892
:10806000401C00290DD08107F9D10B4BDD0104C85C
:10807000D11A91432940FAD0001B0A0603D0C01E32
:1080800030BD001B30BD0A0401D0801E30BD090286
:10809000FCD0401E30BD000001010101F8B5042AEA
:1080A0002CD3830712D00B78491C0370401C521E3E
:1080B00083070BD00B78491C0370401C521E8307AA
:1080C00004D00B78491C0370401C521E8B079B0F79
:1080D00005D0C91ADF002023DE1B08C90AE0FCF71F
:1080E00053F8F8BD1D4608C9FD401C46B4402C435A
:1080F00010C0121F042AF5D2F308C91A521EF0D478
:108100000B78491C0370401C521EEAD40B78491CA2
:108110000370401C521EE4D409780170F8BD01E0E0
:1081200004C0091F0429FBD28B0701D50280801CE3
:10813000C90700D00270704700290BD0C30702D0D6
:108140000270401C491E022904D3830702D5028015
:10815000801C891EE3E70022EEE70022DFE7002211
:1081600003098B422CD3030A8B4211D300239C4674
:108170004EE003460B433CD4002243088B4231D3EC
:1081800003098B421CD3030A8B4201D394463FE080
:10819000C3098B4201D3CB01C01A524183098B42E0
:1081A00001D38B01C01A524143098B4201D34B01C9
:1081B000C01A524103098B4201D30B01C01A52412C
:1081C000C3088B4201D3CB00C01A524183088B42B3
:1081D00001D38B00C01A524143088B4201D34B009C
:1081E000C01A5241411A00D201465241104670470E
:1081F0005DE0CA0F00D04942031000D34042534013
:1082000000229C4603098B422DD3030A8B4212D3D2
:10821000FC22890112BA030A8B420CD38901921104
:108220008B4208D3890192118B4204D389013AD041
:10823000921100E08909C3098B4201D3CB01C01A16
:10824000524183098B4201D38B01C01A5241430929
:108250008B4201D34B01C01A524103098B4201D317
:108260000B01C01A5241C3088B4201D3CB00C01A84
:10827000524183088B4201D38B00C01A5241D9D29C
:1082800043088B4201D34B00C01A5241411A00D21D
:108290000146634652415B10104601D34042002B19
:1082A00000D54942704763465B1000D3404201B598
:1082B0000020C046C04602BD7047704770477546F3
:1082C00000F022F8AE46050069465346C008C000DB
:1082D000854618B020B5FBF783FF60BC002749082E
:1082E000B6460026C0C5C0C5C0C5C0C5C0C5C0C54E
:1082F000C0C5C0C5403D49008D4670470446C046D4
:10830000C0462046FBF729FF00487047982600200A
:1083100001491820ABBEFEE726000200704730B4CA
:108320007446641E2578641CAB4204D3635D5B0015
:10833000E31830BC18471D46F8E700001418010088
:108340000F1801000A1801006883010000200020B6
:10835000F00000000441010058840100F0200020DA
:1083600008160000204101000024F400FFFF000077
:1083700000000000000000000000000000000000FD
:1083800000000000000000000000000000000000ED
:1083900000000000000000000000000000000000DD
:1083A00000000000000000000000000000000000CD
:1083B00000000000000000000000000000000000BD
:1083C00000000000000000000000000000000000AD
:1083D000000000000000000000000000000000009D
:1083E000000000000000000000000000000000008D
:1083F000000000000000000000000000000000007D
:10840000000000000000000000000000000000006C
:10841000000000000000000000000000000000005C
:10842000000000000000000000000000000000004C
:10843000000000000000000000000000000000003C
:10844000000000000000000000000000000000002C
:08845000000000000000000024
:04000005000140C1F5
:00000001FF
